:10100000E01F00105D110000FD110000051200003E
:1010100000000000000000000000000000000000D0
:101020000000000000000000000000000D120000A1
:101030000000000000000000151200002D2000003C
:1010400025120000251200002512000025120000C4
:1010500025120000251200002512000025120000B4
:1010600025120000251200002512000025120000A4
:101070002512000025120000251200002512000094
:10108000251200002512000025120000ED1F0000AF
:1010900025120000251200000000000000000000E2
:1010A000251200002512000025120000000000009B
:1010B0002512000025120000251200002512000054
:1010C00048650000000000104C0800004C080010AB
:1010D0005005000080B588B000AFF860B9607A6054
:1010E000BB68FB61FB68BB6100237B610CE0BB69F3
:1010F0001A68FB691A60FB690433FB61BB6904333E
:10110000BB617B6904337B617A697B689A429B414E
:101110005B42DBB2002BEAD1BD4608B080BDC046C1
:1011200080B584B000AF786039607B68FB600023D5
:10113000BB6008E0FB6800221A60FB680433FB60B8
:10114000BB680433BB60BA683B689A429B415B4210
:10115000DBB2002BEED1BD4604B080BD80B584B0BB
:1011600000AF234BFB6019E0FB681B68BB60FB68AA
:101170000433FB60FB681B687B60FB680433FB6027
:10118000FB681B683B60FB680433FB60B9687A68E6
:101190003B68081C111C1A1CFFF79CFFFA68154BD2
:1011A0009A429B415B42DBB2002BDDD111E0FB6830
:1011B0001B687B60FB680433FB60FB681B683B605B
:1011C000FB680433FB607A683B68101C191CFFF74E
:1011D000A7FFFA68084B9A429B415B42DBB2002BA7
:1011E000E5D101F063F904F0EBF801F04DF9FEE709
:1011F000C0100000CC100000D410000080B500AF7B
:10120000FEE7C04680B500AFFEE7C04680B500AF40
:10121000FEE7C04680B500AFFEE7C04680B500AF30
:10122000FEE7C04680B500AFFEE7C04690B583B08C
:1012300000AFBB1D00221A803B1D00221A8000E077
:10124000C046BB1D1B889BB21AB2324B1B889BB297
:10125000D31A5A1E9341DBB2002B13D03B1D1B88BF
:101260009AB2012312B2FE2A00DC0023DBB2002B6B
:1012700008D0284B1B889BB29AB2BB1D1A803B1D1D
:1012800000221A803B1D1B889BB21BB2FE22D80F86
:10129000D117041C9A424C41231CDBB2002B24D0F2
:1012A000BB1D1B889BB21BB25A021B4BD11880235B
:1012B0009A001A4B081C111C1A1C02F0B5FA031CE8
:1012C0001A1C174B1A70164B1B78002B1CD1134B92
:1012D0001B88002B1AD03B1D1B889BB29BB201338D
:1012E000FF339BB29AB23B1D1A803B1D1B889AB2FA
:1012F000012312B2FE2A00DC0023DBB2002B9FD0B8
:10130000084B01221A709CE7C04600E0C046BD466B
:1013100003B090BD4C08001050080010520C001093
:10132000540C0010500C001090B583B000AF2F4B40
:101330001B88FE2B1BD92E4B1B78002B51D02B4B1F
:1013400000221A802B4B1B889BB2013B5A1E9341F3
:101350009AB2284B1A80274B1B889BB2013B5A1E1E
:1013600093419AB2244B1A80214B00221A70224BCF
:101370001B881C1C1D4B1B88181CBA1D1F492402EE
:1013800020184000415A118001339AB2174B1A803D
:101390000620012100F022FFBB1D1B88184A101CEB
:1013A000191C00F0EDFB144B1B881C1C0F4B1B88F9
:1013B000181CBA1D1149240220184000415A1180FE
:1013C00001339AB2094B1A800620002100F006FF73
:1013D000BB1D1B880A4A101C191C00F0D1FBC0461B
:1013E00000E0C046BD4603B090BDC046560C00109C
:1013F000500C00104C080010580C00105008001041
:10140000640C001080B500AF254A96239B01101C88
:10141000191C01F0F1F80620012100F03BFE214BE0
:10142000181C102100F084FB1E4B181C012100F039
:1014300099FB1C4B181C00F069FB1B4B181C01F09E
:1014400053FB031C5A425341DBB2002B06D0144A13
:10145000164B101C191C01F083FA1EE0104A144BA5
:10146000101C191C01F07CFA0F4A124B101C191C9D
:1014700001F054FB031C1A1C0F4B1A700E4B1B7807
:10148000002B0AD0064A0D4B101C191C01F068FAFB
:10149000054B181C01F058FBFEE7BD4680BDC04659
:1014A0009C0C0010640C0010AC0C0010E05E0000FE
:1014B000F85E00000C5F0000540C0010185F000084
:1014C00080B500AF104A114B101C191C01F048FAEE
:1014D0000F4B181C2D2100F045FDFFF7A7FE0D4B0B
:1014E000181C01F031FB00F073FD074A0A4B101C79
:1014F000191C01F035FA044A084B101C191C01F0A4
:101500002FFABD4680BDC0469C0C00102C5F000029
:1015100029130000AC0C0010385F00003C5F000095
:1015200080B582B000AF021CFB1D1A70064BFA1D7D
:101530001278111C1F220A400121081C9040021C35
:101540001A60BD4602B080BD00E100E0B0B582B0D7
:1015500000AF021C3960FB1D1A70FB1D1B787F2B2E
:1015600032D93049FB1D1B781A1C0F231340083B4E
:1015700098082C4AFB1D1B781C1C0F232340083B9A
:101580009B0806339B00D3185B68FA1D1278141C65
:1015900003222240D200FF24251C95402A1CD2435E
:1015A0001A403B689C01FF231C40FB1D1B781D1C3F
:1015B00003232B40DB00251C9D402B1C1A43831D5D
:1015C0009B00CB185A6029E0174BFA1D127852B2D3
:1015D00092081549F81D007840B28008C03080009C
:1015E0004158F81D0078041C03202040C000FF244F
:1015F000251C8540281CC043084039688C01FF2108
:101600000C40F91D09780D1C03212940C900251C37
:101610008D40291C0143C0329200D150BD4602B01A
:10162000B0BDC04600ED00E000E100E080B582B052
:1016300000AF78607B6800221A707B6800225A70C5
:101640007B6802229A707B680022DA707B6808222D
:101650005A607B689B787A68101C191C00F04CF863
:101660007B685B687A68101C191C00F02BF87B689B
:10167000181C002100F032F87B68181C00F010F8EC
:101680007B68181CBD4602B080BDC04680B582B0E4
:1016900000AF78607B68181CBD4602B080BDC046B4
:1016A00080B582B000AF78607B6818787B689978E5
:1016B0007B68DA787B685B6800F048F8BD4602B06A
:1016C00080BDC04680B582B000AF786039607B686D
:1016D0003A685A60BD4602B080BDC04680B582B04F
:1016E00000AF78600A1CFB1C1A707B68FA1C127829
:1016F0005A70BD4602B080BD80B582B000AF786040
:101700000A1CFB1C1A707B68FA1C12789A70BD4682
:1017100002B080BD80B582B000AF78600A1CFB1CAF
:101720001A707B68FA1C1278DA70BD4602B080BD70
:1017300080B582B000AF786039603B68181C00F05B
:10174000C5F8031C181CBD4602B080BD80B584B02E
:1017500000AF3B60FB1D1870BB1D19707B1D1A701C
:101760007020012100F096FC544B0022DA617020B9
:10177000012100F033FDFB1D1B78002B09D0012B4C
:101780000FD14E4AB0230121D1504C4B01221A6790
:101790000FE04A4AB0230221D150484B0222DA64BA
:1017A00007E0464AB0230221D150444B0222DA64BA
:1017B000C046424B01225A66404B11221A66404BEA
:1017C0003F4A526801210A435A603D4A3C498023FE
:1017D000CB588021090119438023D150384A9423E2
:1017E0000121D150BB1D1B78072B2CD89A00354BFB
:1017F000D3181B689F46324A94230121D15027E019
:101800002F4A94230221D15022E02D4A942304210F
:10181000D1501DE02A4A94230821D15018E0284ACB
:1018200094231021D15013E0254A94232021D15034
:101830000EE0234A94234021D15009E0204A94230A
:101840008021D15004E01E4A94230421D150C04687
:101850007B1D1B78012B0BD002DC002B05D010E088
:10186000022B08D0032B09D00BE00023FB6008E01B
:101870000123FB6005E00223FB6002E00323FB6021
:10188000C046114BFA6892011A600F4B0E4A12685B
:10189000111C3A68013A0A431A600B4B02221A6182
:1018A0001420FFF73DFE14200321FFF74FFE064BE7
:1018B00002225A60BD4604B080BDC04600400440CC
:1018C00000800440485F00000000044080B584B000
:1018D00000AF7860144BDB681A1C12231340023BE4
:1018E0005A1E9341DBB2002BF4D10F4B7A689A60F9
:1018F0000D4BDB681A1C102313405A1E9341DBB2B8
:10190000002BF5D1084BDB681A1C042313405A4204
:101910005341DBB2002BF5D1034B9B68FB60FB68A6
:10192000181CBD4604B080BD0000044080B582B0E4
:1019300000AF786039607B68012B0FD13A68094BA2
:101940009A420BD1084B181CFFF770FE074A064954
:10195000074B081C111C1A1C00F026FABD4602B0E9
:1019600080BDC046FFFF00005C0C00108D1600001B
:101970004808001080B500AF034B0120191CFFF789
:10198000D5FFBD4680BDC046FFFF000080B582B0D8
:1019900000AF021CFB1D1A70064BFA1D1278111CB9
:1019A0001F220A400121081C9040021C1A60BD46FB
:1019B00002B080BD00E100E0B0B582B000AF021C13
:1019C0003960FB1D1A70FB1D1B787F2B32D9304903
:1019D000FB1D1B781A1C0F231340083B98082C4A48
:1019E000FB1D1B781C1C0F232340083B9B08063360
:1019F0009B00D3185B68FA1D1278141C0322224046
:101A0000D200FF24251C95402A1CD2431A403B6873
:101A10009C01FF231C40FB1D1B781D1C03232B4036
:101A2000DB00251C9D402B1C1A43831D9B00CB18FB
:101A30005A6029E0174BFA1D127852B292081549E4
:101A4000F81D007840B28008C03080004158F81D71
:101A50000078041C03202040C000FF24251C854082
:101A6000281CC043084039688C01FF210C40F91D37
:101A700009780D1C03212940C900251C8D40291C13
:101A80000143C0329200D150BD4602B0B0BDC04645
:101A900000ED00E000E100E080B582B000AF7860CA
:101AA0007B6802221A707B6800225A707B680222CF
:101AB0009A707B680022DA707B6808225A607B6823
:101AC0009B787A68101C191C00F04CF87B685B68E6
:101AD0007A68101C191C00F02BF87B68181C002178
:101AE00000F032F87B68181C00F010F87B68181CB6
:101AF000BD4602B080BDC04680B582B000AF786000
:101B00007B68181CBD4602B080BDC04680B582B05F
:101B100000AF78607B6818787B6899787B68DA78A2
:101B20007B685B6800F03AF8BD4602B080BDC046F5
:101B300080B582B000AF786039607B683A685A60DF
:101B4000BD4602B080BDC04680B582B000AF7860AF
:101B50000A1CFB1C1A707B68FA1C12785A70BD466E
:101B600002B080BD80B582B000AF78600A1CFB1C5B
:101B70001A707B68FA1C12789A70BD4602B080BD5C
:101B800080B582B000AF786039603B68181C00F007
:101B9000ABF8031C181CBD4602B080BD80B584B0F4
:101BA00000AF3B60FB1D1870BB1D19707B1D1A70C8
:101BB0006B20012100F06EFA474B00229A606B20E7
:101BC000012100F00BFB444B02229A62424A8C2313
:101BD0000221D150404B1222DA65404B3F4A5268F5
:101BE00004210A435A603D4A3C498023CB58802156
:101BF000C90219438023D150384A9C230121D15076
:101C0000BB1D1B78072B2CD89A00354BD3181B68AB
:101C10009F46324A9C230121D15027E02F4A9C2322
:101C20000221D15022E02D4A9C230421D1501DE0F5
:101C30002A4A9C230821D15018E0284A9C231021CD
:101C4000D15013E0254A9C232021D1500EE0234A95
:101C50009C234021D15009E0204A9C238021D1506F
:101C600004E01E4A9C230421D150C0467B1D1B78F2
:101C7000012B0BD002DC002B05D010E0022B08D08A
:101C8000032B09D00BE00023FB6008E00123FB607D
:101C900005E00223FB6002E00323FB60C046114B1A
:101CA000FA6892011A600F4B0E4A1268111C3A68CA
:101CB000013A0A431A600B4B02221A610E20FFF709
:101CC00065FE0E200321FFF777FE064B02225A60C5
:101CD000BD4604B080BDC0460040044000800440C2
:101CE000685F00000080054080B584B000AF786078
:101CF000144BDB681A1C12231340023B5A1E9341FB
:101D0000DBB2002BF4D10F4B7A689A600D4BDB6885
:101D10001A1C102313405A1E9341DBB2002BF5D13D
:101D2000084BDB681A1C042313405A425341DBB2B0
:101D3000002BF5D1034B9B68FB60FB68181CBD466C
:101D400004B080BD0080054080B582B000AF7860EF
:101D500039607B68012B0FD13A68094B9A420BD14D
:101D6000084B181CFFF798FE074A0649074B081C4A
:101D7000111C1A1C00F018F8BD4602B080BDC04608
:101D8000FFFF0000640C0010F91A00004808001062
:101D900080B500AF034B0120191CFFF7D5FFBD46EE
:101DA00080BDC046FFFF000080B584B000AFF86082
:101DB000B9607A600023181CBD4604B080BDC046DF
:101DC00080B582B000AF021CFB1D1A70064BFA1DD5
:101DD0001278111C1F220A400121081C9040021C8D
:101DE0001A60BD4602B080BD00E100E080B582B05F
:101DF00000AF021CFB1D1A70074AFB1D1B78191C43
:101E00001F230B400121081C9840031C191C802330
:101E1000D150BD4602B080BD00E100E0B0B582B057
:101E200000AF021C3960FB1D1A70FB1D1B787F2B55
:101E300032D93049FB1D1B781A1C0F231340083B75
:101E400098082C4AFB1D1B781C1C0F232340083BC1
:101E50009B0806339B00D3185B68FA1D1278141C8C
:101E600003222240D200FF24251C95402A1CD24385
:101E70001A403B689C01FF231C40FB1D1B781D1C66
:101E800003232B40DB00251C9D402B1C1A43831D84
:101E90009B00CB185A6029E0174BFA1D127852B2FA
:101EA00092081549F81D007840B28008C0308000C3
:101EB0004158F81D0078041C03202040C000FF2476
:101EC000251C8540281CC043084039688C01FF212F
:101ED0000C40F91D09780D1C03212940C900251C5F
:101EE0008D40291C0143C0329200D150BD4602B042
:101EF000B0BDC04600ED00E000E100E080B582B07A
:101F000000AF78607A680E4B9A4201D9012312E043
:101F10000C4B7A681202120A013A5A6001235B42A2
:101F2000181C0321FFF77AFF064B00229A60054B2D
:101F300007221A600023181CBD4602B080BDC046AF
:101F4000FFFFFF0010E000E080B500AF01235B421F
:101F50000020191C00F006F81320FFF747FFBD46CC
:101F600080BDC04680B582B000AF78603960154A48
:101F700014498023CB588021C90019438023D150B4
:101F80003B68012B01DC002317E00F4B3022DA60A5
:101F90000D4B3A68013A1A620B4BC0225A6113206A
:101FA000FFF70EFF13200021FFF738FF064B012239
:101FB0005A60064B7A681A600023181CBD4602B0AE
:101FC00080BDC0460080044000800140700C0010BD
:101FD00080B500AF044B012252421A621320FFF772
:101FE00005FFBD4680BDC0460080014080B500AF02
:101FF0000C4B1B681A1C042313405A1E9341DBB27E
:10200000002B0CD0084B1B685A1E9341DBB2002BEF
:1020100002D0054B1B689847024B04221A60BD464C
:1020200080BDC04600800140700C001080B500AF3C
:10203000034B1B685A1C024B1A60BD4680BDC0464C
:102040006C0C001080B582B000AF0F4B1B68181CE1
:10205000FA23990002F076F8031C7B607B68181C59
:10206000FFF74CFF094B1B681A1C042313405A420C
:102070005341DBB2002B03D0054AB0230821D150D5
:10208000BD4602B080BDC0460000001010E000E078
:102090000080044080B582B000AF78600A1CFB1C51
:1020A0001A707B68132B41DCFB1C1B78012B1ED1A3
:1020B0007B685A00464B9200D258464B9200D25849
:1020C0007B685900424B8900C958424B8900C95866
:1020D00080231B02CB58191C7B685B00581C3C4BAF
:1020E0008000C358194380231B02D1506CE07B68E9
:1020F0005A00374B9200D258364B9200D2587B6828
:102100005900334B8900C958324B8900C958802384
:102110001B02CB5879684900481C2D498000415862
:10212000C943194080231B02D1504DE07B68632BCB
:1021300047DD7B68C72B46DC7B68643B7B60FB1C10
:102140001B78012B1ED17B685A00234B9200D2587A
:10215000204B9200D2587B6859001F4B8900C95808
:102160001C4B8900C95880231B02CB58191C7B6863
:102170005B00581C184B8000C358194380231B0276
:10218000D15021E07B685A00134B9200D258114B7A
:102190009200D2587B6859000F4B8900C9580D4BEB
:1021A0008900C95880231B02CB5879684900481C14
:1021B000094980004158C943194080231B02D1506E
:1021C00002E0C04600E0C046BD4602B080BDC04649
:1021D00078600000885F0000985F000090B583B0D1
:1021E00000AF78600A1CFB1C1A707B68132B43DC61
:1021F000FB1C1B78012B16D17B685A00484B9200C0
:10220000D258484B9200D3587A685200511C444A25
:1022100089008A5879684900481C41498000415822
:102220009200D15078E07B685A003D4B9200D25822
:102230003C4B9200D3587A685200511C384A8900AE
:102240008A587968480036498000405835498000EE
:10225000415878684000441C3148A4002058800050
:10226000415878684000441C2D48A4002058C043C1
:1022700001409200D1504FE07B68632B49DD7B68C1
:10228000C72B48DC7B68643B7B60FB1C1B78012B05
:1022900016D17B685A00244B9200D258214B9200F1
:1022A000D3587A685200511C1F4A89008A587968AD
:1022B0004900481C1C49800041589200D1502BE035
:1022C0007B685A00184B9200D258164B9200D35894
:1022D0007A685200511C144A89008A58796848006B
:1022E0001149800040580F498000415878684000EB
:1022F000441C0D48A40020588000415878684000D4
:10230000441C0948A4002058C04301409200D15009
:1023100002E0C04600E0C046BD4603B090BDC046E6
:1023200078600000885F0000985F000080B584B08E
:1023300000AF78607B68132B17DC7B685A001F4B5B
:102340009200D2581E4B9200D3587A685200511C0A
:102350001A4A89008A589200D358002B01D00123D1
:1023600000E00023FB60FB6823E07B68632B01DC5B
:1023700000231EE07B68C72B1ADC7B68643B7B6014
:102380007B685A000F4B9200D2580D4B9200D358E5
:102390007A685200511C0B4A89008A589200D3581F
:1023A000002B01D0012300E00023FB60FB6800E06C
:1023B0000023181CBD4604B080BDC04678600000F4
:1023C000885F0000985F000080B582B000AF786041
:1023D0007B6866225A607B6870229A607B686E22F6
:1023E000DA607B6800225A707B6800221A707B6872
:1023F00000221A617B6800225A617B68044A9A6154
:102400007B680022DA617B68181CBD4602B080BD83
:10241000FFFFFF0080B582B000AF78607B68181CBA
:10242000BD4602B080BDC04680B582B000AF7860C6
:1024300039607B68012B0FD13A68094B9A420BD166
:10244000084B181CFFF7C0FF074A0649074B081C3A
:10245000111C1A1CFFF7A8FCBD4602B080BDC04687
:10246000FFFF0000740C0010152400004808001045
:1024700080B500AF034B0120191CFFF7D5FFBD4607
:1024800080BDC046FFFF000080B500AFFFF7DAFD5A
:10249000FFF75AFDFEF7B6FFFFF712F8FCE7C0465C
:1024A00080B500AFC046BD4680BDC04680B582B095
:1024B00000AF404A3F498E239B00CB582021181C77
:1024C0008843011C8E239B00D1503A4B00221A6294
:1024D00000237B6004E0FFF7E3FF7B6801337B6050
:1024E0007A68C721002391425B41DBB2002BF2D115
:1024F000304B00221A642F4B01225A642D4B0022CC
:102500005A642C4B01225A64C0462A4B5B6C1A1C3D
:1025100001231340DBB201225340DBB2002BF4D184
:10252000244B23229A60234A22498E239B00CB58B6
:102530008021181C8843011C8E239B00D150C0466B
:102540001C4BDB681A1C01231340DBB201225340F1
:10255000DBB2002BF4D1174B03221A67154B012273
:102560005A67144B00225A67124B01225A67C04621
:10257000104B5B6F1A1C01231340DBB20122534046
:10258000DBB2002BF4D10B4B01229A67094A80235E
:102590000949D150074A94230121D150054A982373
:1025A0000121D150034A9C230121D150BD4602B0E4
:1025B00080BDC04600800440FFFF010080B582B0AE
:1025C00000AF78607B6800221A707B6808225A701E
:1025D0007B68962292015A607B68181CBD4602B047
:1025E00080BDC04680B582B000AF78607B68181CA3
:1025F000BD4602B080BDC04680B584B000AF7860F3
:1026000039607B683A685A60304A3049A823CB5811
:102610000721181C8843011CA823D1502B4A2B49A1
:10262000A823CB5801211943A823D150274A274971
:10263000A423CB580721181C8843011CA423D15084
:10264000224A2249A423CB5801211943A423D15063
:102650001F4A1F498023CB588021490119438023F9
:10266000D1501B4A98230121D150194B9B6F1A1C42
:10267000184B1B685A4316499823CB5839684B436B
:102680001B01101C191C01F05DFD031CFB60124BAB
:10269000114AD26880210A43DA600F4BFA68120AA5
:1026A0005A600D4BF968FF220A401A600A4B0A4A29
:1026B000D26880218A43DA60074B0322DA60064B36
:1026C00007229A60BD4604B080BDC0460040044069
:1026D00000800440000000100080004080B582B0FF
:1026E00000AF78600A1CFB1C1A70C046084B5B697F
:1026F0001A1C202313405A425341DBB2002BF5D160
:10270000034BFA1C12781A60BD4602B080BDC04669
:102710000080004080B584B000AF7860396000234D
:10272000FB600CE03B681B787A68101C191CFFF7F3
:10273000D5FF3B6801333B60FB680133FB603B68BE
:102740001B785A1E9341DBB2002BEBD1BD4604B07F
:1027500080BDC04680B590B000AFF860B960FB1D89
:102760001A70FB1D1B78012B07D1BB68DBB2FA681E
:10277000101C191CFFF7B2FFE6E00023BB63BB6B24
:10278000FB63BB68002B0EDA3A1C1432FB6BD318C8
:102790002D221A70BB685B42BB60FB6B0133FB638D
:1027A000BB6B0133BB63FB1D1B78082B45D002DCE0
:1027B000022B20D08DE00A2B61D0102B00D180E0BD
:1027C00087E0FB1D1B78BA68101C191C01F05EFD28
:1027D0000B1C5F4AD25C391C1431FB6BCB181A708E
:1027E000FB6B0133FB63FB1D1B78B868191C01F000
:1027F000F7FC031CBB60BB68DA17D31ADB0FDBB234
:10280000002BDED165E0FB1D1B78BA68101C191C7B
:1028100001F03CFD0B1C4F4AD25C391C1431FB6BA0
:10282000CB181A70FB6B0133FB63FB1D1B78B86878
:10283000191C01F0D5FC031CBB60BB68DA17D31A66
:10284000DB0FDBB2002BDED143E0FB1D1B78BA6847
:10285000101C191C01F01AFD0B1C3F4AD25C391CDC
:102860001431FB6BCB181A70FB6B0133FB63FB1D40
:102870001B78B868191C01F0B3FC031CBB60BB6873
:10288000DA17D31ADB0FDBB2002BDED121E0FB1D00
:102890001B78BA68101C191C01F0F8FC0B1C2F4A9D
:1028A000D25C391C1431FB6BCB181A70FB6B0133F3
:1028B000FB63FB1D1B78B868191C01F091FC031C1D
:1028C000BB60BB68DA17D31ADB0FDBB2002BDED19B
:1028D000C0463A1C1432FB6BD31800221A70FB6BF3
:1028E000013BFB631FE03B1C3733391C1431BA6BCF
:1028F0008A1812781A703A1C1432FB6BD3181A78A3
:10290000391C1431BB6BCB181A703A1C1432FB6B98
:10291000D3183A1C373212781A70BB6B0133BB6381
:10292000FB6B013BFB630123B96BFA6B914200DB4C
:102930000023DBB2002BD6D1FA683B1C1433101CE9
:10294000191CFFF7E7FEC046BD4610B080BDC0466B
:10295000E8600000EC600000F86000000461000026
:1029600080B582B000AF786039607A683B68101C2F
:10297000191CFFF7CFFE7B68181C0D21FFF7AEFE78
:102980007B68181C0A21FFF7A9FEBD4602B080BD76
:1029900080B584B000AFF860B960FB1D1A70F968AB
:1029A000BA68FB1D1B78081C111C1A1CFFF7D2FE0D
:1029B000FB68181C0D21FFF791FEFB68181C0A210B
:1029C000FFF78CFEBD4604B080BDC04680B582B026
:1029D00000AF786039607B68012B0FD13A68094BF2
:1029E0009A420BD1084B181CFFF7E8FD074A06492D
:1029F000074B081C111C1A1CFFF7D6F9BD4602B084
:102A000080BDC046FFFF00009C0C0010E5250000C3
:102A10004808001080B500AF034B0120191CFFF7D8
:102A2000D5FFBD4680BDC046FFFF000080B582B027
:102A300000AF78607B68181CBD4602B080BDC04600
:102A400080B584B000AFF860B9607A60FB68181C8C
:102A5000FFF7ECFFFB68BA681A60FB687A685A6097
:102A6000FB68181CBD4604B080BDC04680B582B06E
:102A700000AF786039607B68012B0AD13A68064B59
:102A80009A4206D1054A044B101C00211A1CFFF77C
:102A9000D7FFBD4602B080BDFFFF0000A40C0010B0
:102AA00080B500AF034B0120191CFFF7DFFFBD46C7
:102AB00080BDC046FFFF000080B582B000AF7860E7
:102AC0007A68A4237021D1507B68181CBD4602B0DF
:102AD00080BDC04680B582B000AF78607B68181CAE
:102AE000BD4602B080BDC04680B582B000AF786000
:102AF0007B68181C00F09CFC031C191C7A68A2233C
:102B0000D1547A68A223D35C002B01D1012300E0C9
:102B10000023181CBD4602B080BDC04680B582B0FF
:102B200000AF786039603B68181C00F0FDFD031CA5
:102B3000191C7A68A223D1547A68A223D35C181C8A
:102B4000BD4602B080BDC04680B582B000AF78609F
:102B5000BD4602B080BDC04680B582B000AF78608F
:102B600039607B68012B0FD13A68094B9A420BD12F
:102B7000084B181CFFF7A0FF074A0649074B081C23
:102B8000111C1A1CFFF710F9BD4602B080BDC046EB
:102B9000FFFF0000AC0C0010D52A00004808001010
:102BA00080B500AF034B0120191CFFF7D5FFBD46D0
:102BB00080BDC046FFFF000080B586B000AFF86062
:102BC000B9607A60FB687B6106E0BB68DAB27B695A
:102BD0001A707B6901337B617B685A1E9341DBB2BB
:102BE0007A68013A7A60002BEFD1BD4606B080BD0D
:102BF00080B588B000AFF860B9607A60FB68FB61AF
:102C0000BB68BB6100237B617B685A1E9341DBB2CA
:102C10007A68013A7A60002B14D0FB691B781A1C81
:102C2000BB691B78D31A7B617B695A425341DBB283
:102C3000FA690132FA61BA690132BA61002B01D036
:102C4000012300E00023002BDED17B69181CBD4668
:102C500008B080BD80B586B000AF7860824B1B683D
:102C60007B617B68012B04D97B69DA687B689A42B7
:102C700001D80123F4E07B691B78022B00D18EE0A0
:102C8000032B00D1B2E0012B00D0E8E03B1C123353
:102C90007A681A803B1C12331B885B0899B23B1C74
:102CA00012333A1C123212888A181A803B1C1033D5
:102CB0003A1C12321288D205D20D1A803B1C1233F4
:102CC0003A1C12321288520A1A803B1C10331A889E
:102CD000664B9A4217D07B691A693B1C12331B88DA
:102CE000D218391C08313B1C10331B88081C111CDE
:102CF0001A1C022301F0B0F8031C5A1E9341DBB2E8
:102D0000002B2DD0ABE07B691A693B1C12331B886A
:102D1000D218391C0831554B081C111C1A1C0123F0
:102D200001F09AF8031C5A1E9341DBB2002B00D02D
:102D30008EE07B691A693B1C12331B88D318013360
:102D40003A1C08320132101C191C0022012301F028
:102D500083F8031C5A1E9341DBB2002B00D079E0AC
:102D60003B1C083301331B781B029AB23B1C08330F
:102D70001B7813439AB23B1C0E331A807A680123E6
:102D80001340DBB2002B04D03B1C0E331B881B11FD
:102D900004E03B1C0E331B881B051B0D60E07B69A8
:102DA0001A697B681B0AD2187B6899B2FF230B4013
:102DB0009BB25B009BB2391C0831081C111C1A1C09
:102DC000022301F049F8031C5A1E9341DBB2002B89
:102DD00042D13B1C083301331B781B029AB23B1CC7
:102DE00008331B7813439BB29BB239E07B691A69A5
:102DF0007B68DB09D2187B6899B27F230B409BB2BA
:102E00009B009BB2391C0831081C111C1A1C04239E
:102E100001F022F8031C5A1E9341DBB2002B1DD196
:102E20003B1C083303331B781A063B1C0833023360
:102E30001B781B041A433B1C083301331B781B020D
:102E40001A433B1C08331B7813431B011B0907E083
:102E5000C04604E0C04602E0C04600E0C046012390
:102E6000181CBD4606B080BD540D0010FF010000C7
:102E700080B584B000AF78600C4B1B68FB607B684A
:102E8000023B7B60FB68DB689A1E7B689A4201D834
:102E9000002306E0FB685B787A685A43FB689B690D
:102EA000D318181CBD4604B080BDC046540D001098
:102EB00080B584B000AF7860184B1B68BB607B683E
:102EC00000221A807B689B68FB60FB68012B04D0A2
:102ED000BB68DA68FB689A4201D801231AE0FB68F4
:102EE000002B06D1BB681B78032B02D1BB685B6942
:102EF000FB607B68FA68DA60FB68002B05D0FB6832
:102F0000181CFFF7B5FF021C01E0BB685A697B681B
:102F10001A610023181CBD4604B080BD540D00107A
:102F200080B586B000AF78602F4B1B687B617B68F3
:102F30001A883B1C123301321A803B1C12331B8847
:102F4000002B03D07B681B69002B01D1032346E0D3
:102F50003B1C12331A880F231340002B39D17B6896
:102F60001B695A1C7B681A617B68DB68002B08D1DF
:102F70007B699B883A1C123212889A4229D3032318
:102F80002DE03B1C12331B881B099BB27A695278D7
:102F9000013A1340002B1CD17B68DB68181CFFF73B
:102FA00059FE031CFB60FB68012B01D8012316E0CE
:102FB0007B69DA68FB689A4201D803230FE07B68DB
:102FC000FA68DA60FB68181CFFF752FF021C7B6886
:102FD0001A617B683A1C123212881A800023181C6E
:102FE000BD4606B080BDC046540D001090B587B0F8
:102FF00000AF78603C1C17347B68181CFFF758FF43
:10300000031C23703B1C17331B78002B03D03B1C85
:1030100017331B7860E0324B1B689B683B617B6811
:103020001A697B6819880F230B409BB25B019BB226
:103030003969081C111C1A1C202300F00DFF031C09
:10304000002B01D0012300E000233A1C173213703B
:103050003B1C17331B78002B38D13B1C0F333A69CC
:1030600012781A703B1C0F331B78002B04D13B1CC9
:10307000173303221A702CE03B690B331B781A1CA0
:1030800008231340002B0CD17B685B683A69101C45
:10309000191C0B22FFF7ACFD031C002B01D10123EF
:1030A00000E00023002B13D17B68181CFFF738FFCA
:1030B000031C1A1C3B1C17331A703B1C17331B785C
:1030C0005A425341DBB2002BA9D102E0C04600E0D6
:1030D000C0463B1C17331B78181CBD4607B090BD7B
:1030E000540D001080B586B000AF786039607B6801
:1030F0005B683B613B69181C20210B22FFF75CFDDC
:103100003B1C143300221A703B1C15333A1C14323A
:1031100012781A703B1C163308221A703B681B6821
:10312000FB603B1C15331B78FA68D2183B1C173325
:1031300012781A703B1C15333A1C15321278013282
:103140001A703B1C17331B78202B47D93B1C1733B5
:103150001B782F2B44D03B1C17331B782E2B07D00A
:103160003A1C14323B1C163312781B789A4213D344
:103170003B1C16331B78082B34D13B1C17331B78B0
:103180002E2B31D13B1C143308221A703B1C1633F2
:103190000B221A70C046C4E73B1C17331B78602B08
:1031A0000BD93B1C17331B787A2B06D83B1C1733E3
:1031B0003A1C17321278203A1A703B1C14331B78D1
:1031C0003A69D3183A1C173212781A703B1C143320
:1031D0003A1C1432127801321A70A2E7C04604E099
:1031E000C04602E0C04600E0C0463B1C15331B78D9
:1031F000FA68D2183B681A603B691A1C0B323B1CF8
:1032000017331B78202B01D8012300E00023137013
:103210000023181CBD4606B080BDC04690B585B0E1
:1032200000AF7860396002E03B6801333B603B6887
:103230001B78203B5A425341DBB2002BF4D13B6850
:103240001B782F2B02D13B6801333B607B68002247
:103250009A603B681B78202B0DD83C1C0F347B6890
:10326000181CFFF725FE031C2370394B1B689B6855
:1032700000221A7065E03C1C0F347A683B1C101C5D
:10328000191CFFF72FFF031C23703B1C0F331B7807
:10329000002B4FD17B68181CFFF7A8FE031C1A1CDB
:1032A0003B1C0F331A703B1C0F331B78002B0FD0C5
:1032B0003B1C0F331B78032B3ED17B685B680B33C1
:1032C0001B78002B3AD13B1C0F3304221A7038E0D4
:1032D0007B685B680B331B78002B31D11C4B1B6860
:1032E0009B68BB60BB680B331B781A1C1023134010
:1032F000002B04D13B1C0F3304221A7021E0BB6861
:1033000015331B781B029AB2BB6814331B78134326
:103310009BB29BB21A04BB681B331B781B0299B289
:10332000BB681A331B780B439BB29BB21A437B6872
:103330009A60A0E7C04604E0C04602E0C04600E054
:10334000C0463B1C0F331B78181CBD4605B090BD12
:10335000540D001080B582B000AF78603960796894
:103360003A68FF235B00081C111C1A1C022300F0A2
:1033700073FD031C5A1E9341DBB2002B01D00323C3
:103380004DE07B6801331B781B029AB27B681B7887
:1033900013439BB21AB2244B9A4201D002233EE05F
:1033A0007A683B68101C191C3622022300F054FD79
:1033B000031C002B0ED17B6801331B781B029AB2D1
:1033C0007B681B7813439BB21AB2184B9A4201D107
:1033D000012300E00023002B01D000231FE07A68C6
:1033E0003B68101C191C5222022300F035FD031CFF
:1033F000002B0ED17B6801331B781B029AB27B68CD
:103400001B7813439BB21AB2084B9A4201D1012395
:1034100000E00023002B01D0002300E00123181C52
:10342000BD4602B080BDC04655AAFFFF4641000020
:1034300080B590B000AF7860B84B00221A607B680E
:10344000002B01D1002364E100F0A0FB031C1A1C37
:1034500001231340DBB2002B01D0022359E10023EA
:10346000BB633A1C0832BB6B101C191CFFF772FFC0
:10347000031C1A1C3B1C3F331A703B1C3F331B7848
:10348000012B39D1391C0831BA6BDF235B00081CD2
:10349000111C1A1C102300F0DFFC031C5A1E934160
:1034A000DBB2002B04D03B1C3F3303221A7023E015
:1034B0003B1C08331B79002B1ED03B1C0833DB7AE6
:1034C0001A063B1C08339B7A1B041A433B1C083327
:1034D0005B7A1B021A433B1C08331B7A1343BB6302
:1034E0003A1C0832BB6B101C191CFFF733FF031C7E
:1034F0001A1C3B1C3F331A703B1C3F331B78032BB9
:1035000001D1012305E13B1C3F331B78002B01D087
:103510000723FEE03A1C0832BB6B101C191C0D225D
:10352000242300F099FC031C5A1E9341DBB2002BAC
:1035300001D00123EDE03B1C08330A331B781B024A
:103540009AB23B1C083309331B7813439BB29BB2DE
:103550007B637B6B002B16D13B1C08331A331B7823
:103560001A063B1C083319331B781B041A433B1CF7
:10357000083318331B781B021A433B1C08331733DC
:103580001B7813437B633B1C0833DB781A1C7B6B73
:1035900053437B633B1C083302331B781B029AB2F4
:1035A0003B1C083301331B7813439BB29BB21A1C9C
:1035B000BB6BD2187B681A613B1C08331A787B6896
:1035C0005A703B1C083305331B781B029AB23B1C14
:1035D000083304331B7813439BB29AB27B689A80FA
:1035E0003B1C083307331B781B029AB23B1C083381
:1035F00006331B7813439BB29BB23B633B6B002BA0
:1036000016D13B1C083316331B781A063B1C0833B3
:1036100015331B781B041A433B1C083314331B78E7
:103620001B021A433B1C083313331B7813433B63C1
:103630003B1C083302331B781B029AB23B1C083335
:1036400001331B7813439BB29BB23A6BD21A7B6B4C
:10365000D21A7B689B881B099BB2D21A7B685B7865
:10366000101C191C00F06EFD031C0233FB627B680A
:10367000FA6ADA603B1C3F3301221A70FA6A284B5F
:103680009A4203D93B1C3F3302221A70FA6A254B37
:103690009A4203D93B1C3F3303221A707B683A1CC1
:1036A0003F3212781A703B1C3F331B78032B18D122
:1036B0003B1C083322331B781A063B1C083321338A
:1036C0001B781B041A433B1C083320331B781B0256
:1036D0001A433B1C08331F331B781A437B685A611B
:1036E00005E07B681A697B6BD2187B685A617B683E
:1036F0001A697B6BD2187B689B881B099BB2D21816
:103700007B689A617B6800229A70044B7A681A6021
:103710000023181CBD4610B080BDC046540D0010DB
:10372000F60F0000F6FF000080B594B000AF78609F
:103730003C4B1B68FB64FB6C002B01D106236CE047
:10374000FB6C00229A70FB6C3A1C08329A603B1C9E
:1037500034333A1C28325A603A1C34327B68101CCD
:10376000191CFFF75BFD031C1A1C3B1C4B331A7022
:103770003B1C4B331B78002B03D03B1C4B331B787B
:103780004BE03B1C08331B78002B07D03B1C083355
:10379000DB7A1A1C10231340002B01D003233CE0DA
:1037A0003B1C083315331B781B029AB23B1C0833B1
:1037B00014331B7813439BB29BB21A043B1C08338F
:1037C0001B331B781B0299B23B1C08331A331B783E
:1037D0000B439BB29BB21A43FB6C5A623B1C0833EF
:1037E0001F331B781A063B1C08331E331B781B043F
:1037F0001A433B1C08331D331B781B021A433B1C26
:1038000008331C331B781A43FB6C1A62FB6C0022D2
:10381000DA61FB6C01229A700023181CBD4614B0BB
:1038200080BDC046540D001090B58DB000AFF8605B
:103830007A603B1C0A330A1C1A80FB68FB626E4BE1
:103840001B687B627B6800221A807B6A002B01D197
:103850000623CCE07B6A9B781A1C01231340DBB261
:1038600001225340DBB2002B01D00523BFE07B6A6D
:103870001A6A7B6ADB69D31A3B623B1C0A331A88DB
:103880003B6A9A4200D89EE03B1C0A333A6A1A808F
:1038900099E07B6ADB69DB05DB0D002B39D17B6AA4
:1038A000DB695A0A7B6A5B78101C191C00F08EFCDD
:1038B0000B1C002B17D17B6ADB69002B02D17B6AC2
:1038C0005B6A05E07B6A9B6A181CFFF7C3F9031C5F
:1038D000FB61FB69012B00D880E07B6AFA699A6280
:1038E0007B6A0022DA707B6A9B6A181CFFF7C0FAB9
:1038F000031CBB61BB69002B00D171E07B6ADB78E4
:10390000191CBA6989187A6AD1620133DAB27B6A02
:10391000DA707B6ADB699BB2DB05DB0D9AB23B1C7C
:103920002A33802189008A1A1A803A1C2A323B1CC9
:103930000A3312881B889A4205D93B1C2A333A1C49
:103940000A3212881A80FB68002B01D0FB6A00E063
:1039500000237A6AD16A7A6AD26992B2D205D20D0C
:1039600092B2381C2A300488181C231C00F074FA08
:10397000031C1A1C3B1C17331A703B1C17331B7893
:10398000002B2FD17B6ADA693B1C2A331B88D218A3
:103990007B6ADA613B1C2A331B88FA6AD318FB6204
:1039A0003B1C0A33391C0A313A1C2A320988128816
:1039B0008A1A1A807B681A883B1C2A331B88D31802
:1039C0009AB27B681A803B1C0A331B885A1E9341AB
:1039D000DBB2002B00D05CE7002308E0C04602E029
:1039E000C04600E0C0467B6A00229A700123181C82
:1039F000BD460DB090BDC046540D001080B582B0DC
:103A000000AF021CFB1D1A70FB1D1B78034A101C23
:103A1000191CFDF78DFEBD4602B080BD5C0C001088
:103A200080B500AF044B181CFF21FDF781FE031C7D
:103A3000181CBD4680BDC0465C0C001080B500AFB0
:103A4000054AA423D358181C0121FEF7C7FBFFF732
:103A5000E7FFBD4680BDC046AC0C001080B584B009
:103A600000AF021C3960FB1D1A70FB1D1B785BB296
:103A7000002B17DAFB1DFA1D11787F220A401A70FD
:103A800077200021FFF7EAFF031C1A1C3B1C0E33B2
:103A90001A703B1C0E331B78012B03D93B1C0E33D1
:103AA0001B786CE0384AA423D358181C0121FEF778
:103AB00095FBFFF7B5FF344AA423D358181C002107
:103AC000FEF78CFBFFF7ACFFFB1D1B78181CFFF704
:103AD00095FF3B681B0EDBB2181CFFF78FFF3B689E
:103AE0001B0CDBB2181CFFF789FF3B681B0ADBB21B
:103AF000181CFFF783FF3B68DBB2181CFFF77EFF43
:103B00003B1C0F3301221A70FB1D1B78402B03D185
:103B10003B1C0F3395221A70FB1D1B78482B03D1D9
:103B20003B1C0F3387221A703B1C0F331B78181C69
:103B3000FFF764FF3B1C0F330A221A70FFF770FF78
:103B4000031C1A1C3B1C0E331A703B1C0E331B78D3
:103B50005BB2002B0DDA3B1C0F333A1C0F3212788C
:103B6000013A1A703B1C0F331B78002B01D0012344
:103B700000E00023002BE1D13B1C0E331B78181C06
:103B8000BD4604B080BDC046AC0C001090B585B0F9
:103B900000AFAC4AA423D358181C0121FEF77AFACF
:103BA000A94B181C0821FDF78DFDA74B181C0021FF
:103BB000FDF7B0FDA44B181C0521FDF79DFDA24BA0
:103BC000181CFDF76DFD9F4AA423D358181CFEF75F
:103BD000ADFB031C5A425341DBB2002B03D0002043
:103BE000002100F0F7F93B1C0F3364221A7008E043
:103BF000FFF716FF3B1C0F333A1C0F321278013AC5
:103C00001A703B1C0F331B785A1E9341DBB2002BFA
:103C1000EED13B1C0D3300221A7040200021FFF72B
:103C20001DFF031C013B5A425341DBB2002B00D164
:103C3000E9E0D5235B004820191CFFF70FFF031CA8
:103C4000013B5A425341DBB2002B00D186E03B1CC2
:103C50000F3300221A700FE03B1C0F331C78FFF764
:103C6000DFFE031CDAB23B1D1A553B1C0F333A1C16
:103C70000F32127801321A703B1C0F331A7803216D
:103C8000002391425B41DBB2002BE5D13B1D9B78C9
:103C9000012B00D0B7E03B1DDB78AA2B00D0B2E0AF
:103CA0003B1C0A33694A1A8006E03B1C0A333A1C63
:103CB0000A321288013A1A803B1C0A331B88002BF7
:103CC0000AD08023DB05E920191CFFF7C7FE031C7F
:103CD000002B01D0012300E00023002BE5D13B1C89
:103CE0000A331B88002B08D07A200021FFF7B6FE8C
:103CF000031C002B01D1012300E00023002B00D185
:103D000081E03B1C0F3300221A700FE03B1C0F3385
:103D10001C78FFF785FE031CDAB23B1D1A553B1CCD
:103D20000F333A1C0F32127801321A703B1C0F33DA
:103D30001A780321002391425B41DBB2002BE5D1CD
:103D40003B1D1B781A1C40231340002B01D00C2371
:103D500000E004233A1C0D32137054E0E9200021E6
:103D6000FFF77CFE031C1A1C0121002391425B41DA
:103D7000DBB2002B08D03B1C0D3302221A703B1C17
:103D80000E33E9221A7007E03B1C0D3301221A7032
:103D90003B1C0E3341221A703B1C0A332C4A1A80FA
:103DA00006E03B1C0A333A1C0A321288013A1A8098
:103DB0003B1C0A331B88002B0BD03B1C0E331B789B
:103DC000181C0021FFF74AFE031C002B01D0012321
:103DD00000E00023002BE4D13B1C0A331B88002B9E
:103DE00008D080239B005020191CFFF737FE031CCE
:103DF000002B01D0012300E00023002B03D03B1C4B
:103E00000D3300221A70134B3A1C0D3212781A70BF
:103E1000FFF714FE3B1C0D331B78002B08D00A4B18
:103E2000181C0021FDF768FC074B181CFDF738FC37
:103E30003B1C0D331B785A425341DBB2181CBD4664
:103E400005B090BDAC0C00105C0C0010E02E000022
:103E5000A8610000580D001080B586B000AFF86072
:103E6000B960111C1A1CBB1D19803B1D1A80554BD3
:103E70001B781A1C08231340002B02D1BB685B027D
:103E8000BB603B1C173301221A70BB685120191C00
:103E9000FFF7E4FD031C5A425341DBB2002B00D173
:103EA00087E03B1C1433484A1A80FFF7B9FD031C16
:103EB0001A1C3B1C13331A703B1C13331B78FF2B4B
:103EC0000DD13B1C14333A1C14321288013A1A806B
:103ED0003B1C14331B88002B01D0012300E000237E
:103EE000002BE2D13B1C13331B78FE2B61D1BB1D91
:103EF0001B885B429AB23B1D1B88D31A9AB23B1CAB
:103F00001433324952181A80BB1D1B88002B0DD068
:103F1000FFF786FDBB1DBA1D1288013A1A80BB1D32
:103F20001B885A1E9341DBB2002BF1D1FB68002B9A
:103F300015D0FFF775FD031CDAB2FB681A70FB6839
:103F40000133FB603B1D3A1D1288013A1A803B1D6C
:103F50001B885A1E9341DBB2002BEAD114E0FFF715
:103F60005FFD031C1A4A101C191C0A22FEF710FDE3
:103F70003B1D3A1D1288013A1A803B1D1B885A1EB0
:103F80009341DBB2002BEAD1FFF74AFD3B1C14330F
:103F90003A1C14321288013A1A803B1C14331B88D5
:103FA0005A1E9341DBB2002BEED13B1C173300228B
:103FB0001A70FFF743FD3B1C17331B78181CBD46D6
:103FC00006B080BD580D00103075000002020000E0
:103FD0009C0C001080B584B000AF786039603B1C49
:103FE0000F3301221A707B68002B2CD03B1C0C3342
:103FF0003A681A8014E07B681B787A6801327A602C
:10400000181CFFF7FBFC4C4B1B88013B9AB24A4B38
:104010001A803B1C0C333A1C0C321288013A1A806D
:104020003B1C0C331B88002B05D0434B1B88002BFB
:1040300001D0012300E00023002BDCD13B1C0F3317
:1040400000221A7071E03B68002B23D03B4B1B7899
:104050001A1C08231340002B02D13B685B023B6013
:104060003B685820191CFFF7F9FC031C5A425341C6
:10407000DBB2002B59D0FF20FFF7C0FCFE20FFF77A
:10408000BDFC2D4B802292001A803B1C0F33002276
:104090001A704AE0284B1A883B1C0C3302321A80F3
:1040A00009E00020FFF7AAFC3B1C0C333A1C0C3241
:1040B0001288013A1A803B1C0C331B885A1E93410C
:1040C000DBB2002BEDD1FFF7ABFC031C1A1C1F2346
:1040D0001340053B5A425341DBB2002B23D03B1C1B
:1040E0000C33174A1A8006E03B1C0C333A1C0C3286
:1040F0001288013A1A80FFF793FC031CFF2B06D0AD
:104100003B1C0C331B88002B01D0012300E0002353
:10411000002BE9D13B1C0C331B88002B03D03B1C2C
:104120000F3300221A70FFF789FC3B1C0F331B78FA
:10413000181CBD4604B080BD5A0D0010580D00106B
:10414000E8FDFFFF002934D00123002210B488428B
:104150002CD301242407A14204D2814202D20901B6
:104160001B01F8E7E400A14204D2814202D24900D7
:104170005B00F8E7884201D3401A1A434C08A0427A
:1041800002D3001B5C0822438C08A04202D3001B10
:104190009C082243CC08A04202D3001BDC08224327
:1041A000002803D01B0901D00909E3E7101C10BC4B
:1041B0007047002801D00020C04307B4024802A184
:1041C0004018029003BDC046D90000000029F0D07D
:1041D00003B5FFF7B9FF0EBC4243891A1847C04622
:1041E000002941D010B4041C4C40A44601230022F5
:1041F000002900D54942002800D5404288422CD3EE
:1042000001242407A14204D2814202D209011B01E8
:10421000F8E7E400A14204D2814202D249005B00E7
:10422000F8E7884201D3401A1A434C08A04202D34F
:10423000001B5C0822438C08A04202D3001B9C0890
:104240002243CC08A04202D3001BDC0822430028F2
:1042500003D01B0901D00909E3E7101C6446002CB8
:1042600000D5404210BC7047002806D003DB002078
:10427000C043400801E08020000607B4024802A1C4
:104280004018029003BDC046190000000029EBD081
:1042900003B5FFF7A7FF0EBC4243891A1847C04673
:1042A0007047C04600B50368002B00D01B18181CCF
:1042B00000BDC04600B503685A0003D45B005B082C
:1042C000C01800BD80210A061343F9E7F8B55F4620
:1042D00056464D464446F0B4814690460D1E26D0C3
:1042E00001398B468A4600260AE0611CC800484412
:1042F000FFF7E0FF0138474513D8404517D2661C49
:10430000331C5344D80FC4186410E5004D44281CD6
:10431000FFF7D0FF071CA345E7D1012250424745D4
:10432000EBD9B44202D0013CA246E9E70025281CA3
:104330003CBC90469946A246AB46F8BD30B52B4BE7
:1043400083B0041C8D1E002B4AD0281C01A900E05C
:1043500000BF031E22D02A1C181C0199FFF7B6FFCC
:10436000051E1ED0281CFFF7A5FF6B68A064012B5B
:1043700010D0002B24DB281DFFF79CFF0023E064F6
:1043800023650368002B0FDBFFF794FF20610020FB
:1043900003B030BD013B23610520F9E720610930FE
:1043A000F6E725610920F3E71A01100F00280CD069
:1043B00001280DD002280FD0002020610920E7E756
:1043C000281D0125E0642565DBE709492161DFE758
:1043D000084D01382561DBE7074B02382361D7E739
:1043E000064B0749C81AC2100192B4E7000000004A
:1043F00085490000794900006D49000020630000F4
:104400004865000010B50368041CDA0705D49A0754
:104410000FD5483000F05CFD23685A070FD51A0706
:1044200014D5DA0604D48C208300E01800F05CFD7B
:1044300010BD483000F048FD23685A07EFD4201C17
:10444000D03000F049FD23681A07EAD4201CB130AF
:10445000FF3000F045FD2368E3E7C046F0B55F4656
:1044600056464D464446F0B4C3682F4C9946A54481
:104470008369051C161C0431402292AC93A89A460D
:1044800001F046FA0023216C281C98469293FFF70E
:1044900055FF731E9E411023071C09369B461EE0E4
:1044A000A06B5B461E436064534601930094012059
:1044B000311C2A1C2B1CC847002823D1002F22D1D5
:1044C0009026201C02A9B20001F022FA0823984588
:1044D00022D1216C281CFFF731FF0926071C002F71
:1044E000DED1216C902269619200211C02A801F0AA
:1044F0000FFA2B69301C291C02AA98478046109895
:104500006064D1E70927094D381CAD443CBC904696
:104510009946A246AB46F0BD013B09379845F2D11A
:1045200093A800F0BBFCC04674FBFFFF8C040000A6
:1045300038B5041C0D1C296C201CFFF7FFFE002859
:104540000AD1286C23696061211C01202A1C98472C
:104550000828F0D0072801D000F02AFF281D00F01D
:104560009DFCC04600B500290ED1002B12D10F23AF
:1045700093428941494200290CD19200831858681E
:10458000019A1060081C04E004228A4280414042E3
:10459000013000BD0220FCE700B585B003AB0A1C6A
:1045A000002100930B1CFFF7DDFF039805B000BD51
:1045B00000B500290ED1002B12D10F23934289415F
:1045C000494200290CD1019B920080181A68426070
:1045D000081C04E004228A4280414042013000BDB0
:1045E0000220FCE700B585B00B1C0392002103AA52
:1045F00000921A1C0B1CFFF7DBFF05B000BDC04684
:10460000F0B55F4656464D464446F0B4CF6C9A46E8
:1046100008238BB0034093460393032208CF0C1C5E
:1046200010400021009007978A4500D0D5E008A8E7
:1046300021260270009A190255466E440691357083
:10464000022A00D1D9E0206D0123034000D0DAE036
:10465000009D02936B1E9D4104955D463E68002EB1
:104660002FD002239A4500D18FE03B887E88043703
:104670009B46B946A06C0127311CB9430A18281C77
:104680000F219046FFF788FF0023804505D85B4641
:10469000BB4343449842BF417B4201273E405A46B8
:1046A000BE403A401643BE4200D173E0002E0AD10C
:1046B000002B00D029E104210F1C4F443E68002E3E
:1046C000CFD1AB46A1E0022E07D009200BB03CBCF5
:1046D00090469946A246AB46F0BD49460A68009806
:1046E000560071088B46002800D0ACE0002B44D067
:1046F00000239B4502D0039F9F423ED10026B34535
:1047000000D1F7E0582004220319171C59460193E1
:104710004F440026C90700D4BCE049460591A9468C
:1047200013E00437AB4500D8CBE02E1C019D381CAC
:104730000995FFF7B7FD4246011C09AB201C00E0BC
:1047400000BF002811D104370136019B381C0993A2
:10475000FFF7A8FD0022011C09AB201C00E000BFF0
:1047600000228046751C9045DBD0059B4D4699463E
:104770005E4500D1BEE04B461A68002A6EDB01227E
:10478000101C584487004F4468E7B3467E680837DA
:10479000B9466FE70098002863D1002B19D04A462C
:1047A0005368484640C8991C00D18EE7221C5832F5
:1047B000099201330AD0FFF775FDF20F011C09AB16
:1047C000201C00E000BF002878D0099A002A00D001
:1047D00090E008210F1C4F4440E7190C2126CAB273
:1047E0001D046E44022332709A40BF18009A08A834
:1047F00006950370022A00D025E7206D0123A76BE0
:10480000034000D124E70024029406A9584600F092
:104810000FFC011C0920002900D057E7029D013838
:10482000002D00D152E70F215846FFF7B5FE0E21AB
:10483000021C5846FFF7D6FE58460F214A4AFFF79A
:10484000D1FE072042E7281C0D21266AFFF7A4FEAF
:1048500086423CD049460A68002A90DA04239944EB
:104860008DE7281C0D21266AFFF796FE8642B0D1FF
:10487000A76AB945ADD14846FFF71CFD0F21021CC0
:10488000281CFFF7AFFE281C0021221CFFF7AAFE00
:1048900007201BE7019B381C0993FFF703FD321C1F
:1048A000011C09AB201C00E000BF002800D05FE71E
:1048B0004A46043701260592A94646E7009B09931C
:1048C00087E7059AA84646464D46914650E7A36AB3
:1048D000994500D04FE70420002220635946484400
:1048E000E262A162904660634A461268424527DB55
:1048F000029744E7281C0D21FFF74EFE206209981D
:104900004F466062A7620620E0E6049E002E00D1BA
:10491000D1E64846FFF7CEFC4F460437A763AB46C7
:10492000051C201C00E000BF041C0920002C00D145
:10493000CCE658460F212A1CFFF754FE0720C5E697
:104940005E460136AA464F46B5007819FFF7B2FC1D
:104950000F21021C5046FFF745FE50464146221CDF
:10496000FFF740FE0720B1E60000000008B5022373
:10497000FFF746FE08BDC04608B50123FFF740FE1D
:1049800008BDC04608B50023FFF73AFE08BDC04683
:10499000F0B55F4656464D464446F0B4041CE7B0B9
:1049A000161C0220042951D881405C484258974681
:1049B0000220002B4AD13604360CA36BF00701D538
:1049C00002CB6160B10701D520CBA560720701D58C
:1049D00080CBE760370701D504CB2261F00601D513
:1049E00001CB6061B10601D502CBA161720601D590
:1049F00020CBE561370601D580CB2762F00501D5D4
:104A000004CB6262B10501D501CBA062720501D56C
:104A100002CBE162370501D520CB2563F00401D537
:104A200080CB676380229201324001D001CBA0632A
:104A3000710401D502CBE16380273D022E4201D0F3
:104A400040CB26640020824200D1A36367B03CBC07
:104A500090469946A246AB46F0BD0220032BF5D105
:104A60003304350C1E0C71191029EFD82368082265
:104A7000134200D03CE122A800F034FAA06B76008B
:104A80008446031C002E1DD0ED0004CB22AFED198F
:104A9000701E04C5002812D00122002A04D001CBC8
:104AA00001C5B01E00280AD0191C80C92A1C80C26A
:104AB0005F6802386F600B1D151D0028F4D1B60029
:104AC000331C634422A8A36300F00AFA0020BDE768
:104AD000002B00D0E5E01033B34200D2E1E02268C1
:104AE0001A4200D0F7E062A800F000FAA36BF707C3
:104AF00001D520CB6295B00701D504CB6392710735
:104B000001D502CB6491320701D580CB659762A8AD
:104B1000A36300F0E9F9002098E7C046186100009F
:104B20005A1F511E8A41002A00D0BCE03004350CC7
:104B3000060CB146291C49442027012B00D1C8E0AE
:104B400002208F4200D281E75E1E774277410F2616
:104B5000B846AE42BF417F42002F00D0C3E0BB4603
:104B6000102900D9A4E00F2D0FD8226801210A4294
:104B70000BD08A432260052B00D1DCE002239A434C
:104B8000201C2260483000F0A1F90022934504D097
:104B900023680422134200D0BFE00020804500D0EB
:104BA000C2E00F2D00D8B4E00026B34500D08AE063
:104BB0004E46A36B9A469946002E2ADD76000227C0
:104BC000B146EB0000AE524678429B1902CA061C61
:104BD0004E4402C3701C18D00120002806D00321C7
:104BE00080CA4E424E4480C3771C0ED0101C02C8AF
:104BF000023E8C466746191C80C152689446021DCD
:104C0000604658600B1D711CF0D14A4693009946CE
:104C1000D1440026B3452FD05846400082462B1C75
:104C2000102D00D21023103B022142AEDB004A4679
:104C30004F429B1901CA3E1C564401C3701C18D038
:104C40000120002806D0032180CA4E42564480C36A
:104C5000701C0ED0101C02C8023E8C466746191C00
:104C600080C152689446021D604658600B1D711C3D
:104C7000F0D15246930099440026B04540D14F46AA
:104C8000A7630F2D02D8684600F022F95846002885
:104C900000D1DBE642A800F01FF90020D6E6012093
:104CA000D4E60220D2E60220012B00D13EE7CDE679
:104CB00010398B460026B34500D154E70220B2429A
:104CC00000D0C3E64FE742A800F008F910214E1BC0
:104CD0006FE7103F34E78C209A4383002260E0188E
:104CE00000F004F9FFE60021CB468845E2D0ADE6AE
:104CF000201C9343B1302360FF3000F0F3F8BAE694
:104D00000420051C4D446846A56300F0DDF8002032
:104D10009CE6684600F0DEF846E79343201C2360DB
:104D2000D03000F0DBF838E76846002700F0CEF816
:104D3000BB45CBD13CE7033B1A43201C22604830E3
:104D400000F0C8F821E7C046406C704770B5154CBC
:104D5000CD6BA5440D64041C0E1C01A80431402237
:104D600000F0D6FD01204342009300E0109D201C7E
:104D7000291CFFF7E3FA00280BD12569211C6A469C
:104D8000A847051C0828F1D06846FFF73BFB062D15
:104D900004D0902189008D44092070BD201C311C55
:104DA000FFF7C6FBC0FDFFFF08B58261DA6BC1608B
:104DB0001A64191C0022FFF751FB08BD38B5041C0A
:104DC000E36840690D1C0864002B05D00122201CFB
:104DD000FFF744FB00F0ECFA23690220211C2A1C97
:104DE0009847072803D0082804D000F0E1FA281DCE
:104DF00000F054F8201C291CFFF79AFB08B5C36883
:104E0000002B05D0CA6B0A640022FFF727FB08BD00
:104E1000FFF79CFFFBE7C0467047C04608B58368B4
:104E2000011C002B01D00120984708BD70B51A4C19
:104E3000061CA544D46B0D1C1464111D01A840224E
:104E400000F066FD01204342009302E0052818D0DF
:104E5000109C90A8211CFFF771FA002819D1684610
:104E60000C2190AAFFF7BEFB6846291CB04700281A
:104E70000FD1949B083090A96A469847041C0928D2
:104E8000E4D16846FFF7BEFAA62189008D44201CB4
:104E900070BD0924F5E7C04668FDFFFF011C3431F1
:104EA00038C9043B9C461D60A646011C20313CC904
:104EB00090469946A246AB46011C0831FCC94168A0
:104EC0000068E54600BDC0467047C0467047C04612
:104ED0007047C0467047C0467047C0467047C046DE
:104EE0007047C0467047C0467047C0467047C046CE
:104EF00001B401A801B585B0FFB408A841464A46EF
:104F000053465C4665463EC001A83EC80F980090D7
:104F100000230CB401A9FFF719FF109B12B018472A
:104F200001B401A801B585B0FFB408A841464A46BE
:104F300053465C4665463EC001A83EC80F980090A7
:104F400000230CB401A9FFF739FF109B12B01847DA
:104F500001B401A801B585B0FFB408A841464A468E
:104F600053465C4665463EC001A83EC80F98009077
:104F700000230CB401A9FFF741FF109B12B01847A2
:104F800001B401A801B585B0FFB408A841464A465E
:104F900053465C4665463EC001A83EC80F98009047
:104FA00000230CB401ABFFF7FFFE109B12B01847B3
:104FB00001B401A801B585B0FFB408A841464A462E
:104FC00053465C4665463EC001A83EC80F98009017
:104FD00000230CB401AAFFF729FF109B12B0184759
:104FE00000B5027A031C002A0ED1427AB020002AB2
:104FF00009D0013A58685A7204C8032158601972DE
:10500000100E12021A6000BD013A02720268F7E740
:1050100000B585B003AB002100930C220B1CFFF7F9
:10502000A1FA039805B000BD08B5FFF7F1FF08BD70
:10503000F0B55F4656464D464446F0B487B00D1C69
:10504000002103918022F023F831061C90469946F6
:105050008B46281CFFF7C4FF041CB02800D1ADE02C
:10506000434603409C4628D04B460340802B00D14A
:1050700071E0902B3CD0A02B57D0B02B00D183E017
:10508000C02B00D1AFE05B460340D02B0CD10720F2
:1050900004407930020301342243301C0121CB3B10
:1050A000FFF776FC0028D4D0092407B0201C3CBCB4
:1050B00090469946A246AB46F0BD8700FF233B4091
:1050C00004339A4605AF6146301C0D2263460097B3
:1050D000FFF748FA610624D5059952468C1A0594C3
:1050E00000970021301C0D220B1CFFF761FAB0E77E
:1050F0000F2202400F2AD7D0141C0D3C63425C41A2
:10510000002CD1D105AF211C231C301C0097FFF7C8
:1051100029FA301C211C0D22231C0097FFF748FAA6
:1051200097E7059850440590DAE707225F338243FA
:105130001801011C11410A1C0240230702D58024DA
:10514000E3011A430021301C0B1CFFF721FC00284F
:1051500000D17EE7A8E70402281CFFF741FF802367
:1051600004431F02BC429FD02405240C0021301CA4
:10517000221C0B1CFFF70CFC002895D13C4200D1EF
:1051800067E70127039764E7B12871D0B22800D1FF
:105190008BE0B3287ED0FC202040B42846D00727DF
:1051A0003C40793701343A0322430121301C0B1C67
:1051B000FFF7EEFB002800D14BE775E70398B03C02
:1051C000A04200D071E705AD211C231C301C0E222B
:1051D0000095FFF7C7F9301C211C0F22231C0095F6
:1051E000FFF7E6F961E7C6282FD0C72800D185E090
:1051F0005B460340C02B00D192E0C82800D196E066
:10520000C92800D050E7281CFFF7EAFE0F214B46C3
:10521000034008401F03421C3A43301C0121052370
:10522000FFF7B6FB002800D113E73DE70322144047
:105230007D320134D20202212243301C0B1CFFF7C5
:10524000A7FB002800D104E72EE7281CFFF7C8FEC3
:105250000F244B46034020401903421C0A430321FC
:10526000301C0B1CFFF794FB002800D1F1E61BE774
:10527000281CFFF7B5FE021E00D115E74B46134070
:1052800000D011E7301C191CFFF782FB002800D169
:10529000DFE609E7281CFFF7A3FE4B4603401C038B
:1052A0000F231840421C22437FE705A900918A463C
:1052B00000210D220B1C301CFFF754F9281CFFF7AE
:1052C0008FFE4246B03C10420CD07F27059A3840F2
:1052D000A04010180590281CFFF782FE43460734B3
:1052E0001842F3D1059A81217F238F001840D119EC
:1052F000A0400F18524605970092F2E6281CFFF7CF
:105300006FFE021E00D1CFE64B46134000D0CBE625
:10531000301C0421FFF73CFB002800D199E6C3E6CE
:10532000B13B1C40A02001340203224397E7281C14
:10533000FFF756FE4A4602400F2318401032013054
:10534000120302430121301C0A3BFFF721FB002816
:1053500000D17EE6A8E6C04600B5C26C85B05068B4
:1053600001AB00020190101C08300290032018725B
:10537000D279081C5A72191CFFF75AFE05B000BDFD
:1053800008B5FFF751FE806C08BDC04608B5FFF7B1
:105390004BFEC36CD9791A1D01318800101808BD65
:1053A00008B500F005F8C04608B500F001F8C046A1
:1053B00008B5062000F0CAFB012000F049FDC046F8
:1053C00070B50D4D0D4E761BB610002E05D0002485
:1053D00008CD01349847A642FAD800F0A9FE084D3E
:1053E000084E761BB610002E05D0002408CD0134DF
:1053F0009847A642FAD870BD3C6100003C610000AD
:105400003C61000058610000F0B55F4656464D46CD
:105410004446F0B40D1C0B3583B0071C162D2CD957
:1054200007239D43EB0F8D422BD3002B29D1381C32
:1054300000F0EAFA8B4B9D4227D8EA088A4ED30047
:10544000F318DC689C4200D1B6E163680322A168CE
:105450009343E268E318CA6091605A6801210A43E5
:10546000381C5A6000F0D2FA201C083003B03CBC53
:1054700090469946A246AB46F0BD102500238D42CA
:10548000D3D20C233B600020F0E76B0A002B2BD01B
:10549000042B00D979E1AB0938339946D900724E13
:1054A0007118CC68A14226D0626803208243531B46
:1054B0000F2B08DD1CE0E468A1421CD06268824327
:1054C000531B0F2B14DC002BF5DBE368A168A2183B
:1054D000CB609960536801210B43381C536000F086
:1054E00095FA201C0830C1E7E8088146C100D6E7DC
:1054F00001235B4299440124A144311C08318C688A
:10550000A14200D185E0626803239A43531B93466E
:105510000F2B00DD42E1C9608960002B00DB9DE0BC
:10552000524B9B4551D8D208931001209840D2008D
:105530007368B21803439068E260A060C46094602E
:105540004C46A210012090407360984268D81842DF
:105550000CD103229443221C04324000914618428D
:1055600004D10422400091440342FAD00323984618
:105570004C46E3009B199B469C46CA466246D4684B
:10558000A44507D10FE1002B00DB1EE1E468A44530
:1055900000D108E1626843469A43531B0F2BF2DDAA
:1055A000012062190543A6686560E568F560AE6094
:1055B0001843CA608A605060D1609160381CD35033
:1055C00000F024FA201C083050E7530A042B00D9BD
:1055D0000EE19009383080464046C3009B199C4636
:1055E0009B68634500D117E15A68032082438046D7
:1055F000934506D308E05868021C40468243934511
:1056000002D29B689C45F6D1DA68E260A360DC6058
:1056100094604C46A210012073689040984296D93D
:10562000B468032263680F2193439A465B1BD80F2B
:10563000033A99424241D2B2002A19D1AA4517D35E
:105640000122111C2943134365196160381CB560A0
:105650006B6000F0DBF9201C083007E7221C5A447D
:1056600038E7C046F701000004000010FF01000009
:10567000A348A4490368804610335B199B468B6896
:105680008946013305D0A04A131C5B441B0B1B0346
:105690009B46381C594600F0BBF90190431C5CD076
:1056A000221C5244824200D9A7E041464B685B4429
:1056B0004B60824200D1F4E049468968013100D153
:1056C000FAE0C3189A1A43465A600723034000D1F0
:1056D0009FE00822D21A8018019080204001121801
:1056E0000199381C0B1C5B441B051B0DD31A191C9C
:1056F000994600F08DF9421C00D1E8E0019BC01AE8
:105700004844012318434246536801994B4453606F
:10571000B1604860B44215D00F22924500D894E0A1
:105720000C204042021C0721606852448A4306391B
:105730000140114361600520A118486088600F2A6C
:1057400000D9BCE04446E26A934200D9E362404695
:10575000026B934201D941460B63B468032362682C
:105760009A4392465246531B0021D80F0F22884677
:105770009A424141C9B2414502D1AA4500D35FE7EF
:10578000381C00F043F9002070E6142B2CD9542B60
:1057900036D82B0B6E339946D90080E6012062196A
:1057A0000543656004E70124A244524643461A4279
:1057B00051D00824A444E1E6231C64690232083372
:1057C0009146A34200D198E63FE6A2185368012112
:1057D0000B435360E368A268381CD3609A6000F002
:1057E00015F9201C083041E65B339946D90056E68E
:1057F000142B23D85B339846EEE6B442ADD154E780
:10580000AA225200934211D8EB0B77339946D90064
:1058100045E68022520163E7424690100122824011
:10582000101C7268024372601A1CEEE6374A9342FB
:1058300029D8AB0C7C339946D90030E6542B27D8B5
:105840005B46180B6E308046C6E601234B60013B79
:105850000C1C9A4686E75B464C4600E0013C4246FB
:10586000144244D01A1C1B68083A9342F6D073685D
:105870004000984200D9D3E6002800D1D0E6034288
:1058800039D0D14674E6FC217E228900914606E695
:10589000AA20400083421ED85A46D00B773080465B
:1058A0009AE61105002900D006E75946B26851442E
:1058B00001200143516045E74A46906005E7211CFD
:1058C0000831381C00F0D2F941464B683AE7002114
:1058D0000120894617E70D4A7E209446804663459D
:1058E00000D979E65B46980C7C30804674E6736894
:1058F00083437360BBE70424A2444000BFE7C04673
:105900005C0D001004040010FF0F0000540500009F
:10591000F0B54F464646C0B4032A0BD8002A05D03E
:105920000023CC5CC45401339342FAD10CBC9046A2
:105930009946F0BD8218031C032503E00C78013161
:105940001C70013303242B42F8D10C4041D0E700F6
:10595000BC46042766423C1BE4008D59A1460BE07F
:1059600004318F596446E540A8464C463D1CA5408D
:105970004446254320C33D1CD71A032FF0DC03E027
:105980000C7801311C7001339342F9D3CEE70C68D7
:105990001C604C685C608C689C60CC68DC600C6946
:1059A0001C614C695C618C699C61CC69DC610C6A2E
:1059B0001C624C6A5C628C6A9C62CC6ADC620C6B16
:1059C0001C634C6B5C638C6B9C63CC6B4031DC6305
:1059D0004033D41A3F2CDADC0AE00C681C604C68B7
:1059E0005C608C689C60CC681031DC601033D41A29
:1059F0000F2CF2DC0D1C03E00968043502C3D41A35
:105A0000291C032CF8DCBFE77047C0467047C0462E
:105A100038B5074C0023051C2360081C00F0F8F97A
:105A2000431C00D038BD2368002BFBD02B60F9E766
:105A3000940D001070B5B725AD004659041C002028
:105A4000864200D070BD201C8021FFF7DDFC605134
:105A5000002807D0021C031C8032301C01C3934273
:105A6000FCD1EFE701204042ECE7C046F8B5051C49
:105A70000C1C161C1F2909D8B727BF00C359002BBF
:105A800009D0A4001B1918681E60F8BD1623036016
:105A900001204042F9E7FFF7CDFF002801D1EB5983
:105AA000EFE701204042F0E770B5061C0C1C1F29EF
:105AB00021D8B7239B00C358002B12D08A009A1814
:105AC0001368002B0DD00025012B04D0591C04D0E5
:105AD0001560201C9847281C70BD173303600135E2
:105AE000F9E7301C00F06EF8221C011C301C00F09D
:105AF00055F8051CEFE71623012503606D42EAE720
:105B000070B5051C0C1C1F2916D8B726B600835982
:105B1000002B14D0A2009A1813680120002B0AD081
:105B20000018591C07D00130012B04D00025201C7F
:105B300015609847281C70BD01204042FBE7FFF725
:105B400079FF0028F8D1AB59E4E7C04608B5034B0C
:105B5000011C1868FFF7A8FF08BDC0461804001014
:105B600008B50A1C0349031C0868191CFFF77EFFCF
:105B700008BDC0461804001008B5024B1868FFF7AE
:105B800059FF08BD1804001008B5034B011C186824
:105B9000FFF7B6FF08BDC0461804001038B5084C22
:105BA0000023051C2360081C111C00F05BF9431C3A
:105BB00000D038BD2368002BFBD02B60F9E7C0462E
:105BC000940D001008B500F045F908BDF8B50F1C9C
:105BD000041CFFF719FF204D204AAB685E680323C1
:105BE0009E43B318DF1B3F0B013F1D4B3F039F42FA
:105BF00007DD201C0021FFF70BFFAB689B199842C3
:105C000004D0201CFFF702FF0020F8BD7942201CC1
:105C1000FFF7FEFE01300DD0AB68F61B01252E43C9
:105C20005E60104B201C1A68D71B1F60FFF7EEFE4A
:105C3000281CEAE7201C0021FFF7EAFEAB68C21A25
:105C40000F2ADEDD08490968401A0649086001216B
:105C50000A435A60D5E7C04604000010EF0F000069
:105C6000FF0F0000600D00100C040010F0B5574647
:105C70004E464546E0B4051C0C1E5DD0083CFFF7BF
:105C8000C3FE60680121031C8B43E218576803269A
:105C9000B7435A4E8046B068844694456CD0002085
:105CA000844640465760084080460ED120688C46A6
:105CB000241A1B18A068824608208019824504D047
:105CC000E1685046C1608860C446D1194868012126
:105CD000084207D10020DB19844532D09068D26891
:105CE000C26090600122111C194361600021E350E1
:105CF0008C451ED142498B4230D95A0A042A54D8C5
:105D000099093831C80030188268824253D05168EE
:105D10000326B1438B4204D306E05168B1438B4262
:105D200002D292689042F8D1D368E360A260D46056
:105D30009C60281CFFF76AFE1CBC90469946A24650
:105D4000F0BD371C90680837B842C8D11943C46009
:105D50008460E060A0606160E350EAE7DB089910CE
:105D60008A407168DB000A437260F618B368E66027
:105D7000A360DC60B460DCE74246FB180A4206D14F
:105D80002268A41AA1689B18E268CA609160012287
:105D90001A4362601B4AB46012689342C9D31A4B1B
:105DA000281C1968FFF712FFC3E7142A0CD8111C2E
:105DB0005B31C800A7E7891001238B40191C736869
:105DC00019437160131CB0E7542A03D8190B6E31C4
:105DD000C80098E7AA2149008A4203D8D90B773135
:105DE000C80090E709498A4203D8990C7C31C80061
:105DF00089E7FC2080007E2185E7C0460400001072
:105E0000FF010000100400105C0D0010540500009C
:105E100070B50D4B1A68002A01D10C4A1A600A4D60
:105E2000C61C2C6803239E43A619301C00F022F8E0
:105E3000002801D12E6005E000F04CF801240C236D
:105E400003606442201C70BD980D00109C0D001072
:105E500000B5FEE7024B5822012040421A6070470D
:105E6000940D0010024B5822012040421A607047E6
:105E7000940D001000B5094A6B46934203D998422D
:105E800001D3012008E0064B002B01D1002003E0E4
:105E9000002298425241101C00BDC0469C0D0010CB
:105EA0000000000000B5034B1A78002A01D101322E
:105EB0001A7000BD900D001008B504480368002B4F
:105EC00003D0034B002B00D0984708BD4C080010AE
:105ED00000000000014B18687047C046180400100D
:105EE00043616E6E6F7420646574656374205344FF
:105EF00043617264000000006361726420696E692E
:105F00007469616C697A65642E000000746573744D
:105F10002E776176000000004661696C656420742C
:105F20006F206F70656E2E2E2E000000706C6179F0
:105F3000207374617274000000000000706C61795D
:105F400020656E642E000000F617000000180000A7
:105F50000A180000141800001E180000281800007D
:105F6000321800003C180000121C00001C1C00002D
:105F7000261C0000301C00003A1C0000441C0000DD
:105F80004E1C0000581C0000000000500000015092
:105F90000000025000000350010000000400000057
:105FA00001000000020000000100000010000000DD
:105FB0000100000000080000010000008000000057
:105FC00001000000200000000300000004000000A9
:105FD000020000000100000001000000400000007D
:105FE00000000000020000000100000000010000AD
:105FF0000000000008000000000000000400000095
:10600000030000001000000000000000100000006D
:10601000030000002000000000000000200000003D
:1060200001000000800000000100000000020000EC
:10603000010000000004000000000000400000001B
:106040000000000000080000000000000001000047
:10605000010000000100000000000000000200003C
:10606000000000008000000001000000200000008F
:1060700002000000010000000100000040000000DC
:106080000100000080000000000000000800000087
:1060900001000000000200000300000010000000EA
:1060A00002000000100000000200000001000000DB
:1060B00002000000080000000200000004000000D0
:1060C00002000000020000000000000004000000C8
:1060D00000000000000200000000000000010000BD
:1060E0000000000040000000303100003031323349
:1060F000343536370000000030313233343536372E
:10610000383900003031323334353637383941428E
:106110004344454600000000B0490000204B000009
:106120009E4C00005A4A0000D04A00004300000084
:10613000F8B5C046F8BC08BC9E467047751900000B
:10614000911D000071240000152A0000A12A000002
:10615000A12B0000B95E0000F8B5C046F8BC08BC31
:046160009E467047A0
:1061640002970181B0B00984000000000297018108
:10617400B0B009840000000001970181B0B0088428
:106184000000000001970181B0B008840000000005
:1061940003970181B0B008840000000001970181D9
:1061A400B0B008840000000001970181B0B00884F9
:1061B4000000000003970181B0B0088400000000D3
:1061C40003970181B0B008840000000001970181A9
:1061D400B0B008840000000001970181B0B00884C9
:1061E4000000000005970181B0B0088400000000A1
:1061F40005970181B0B00884000000000697018172
:10620400B0B009840000000004970181B0B0098493
:106214000000000001970181B0B008840000000074
:106224000F970181B0B0088400000000139701812A
:10623400B0B00884000000000C970181B0B009845C
:106244000000000001970181B0B008840000000044
:1062540003970181B0B00884000000000497018115
:10626400B0B009840000000005970181B0B0088433
:106274000000000003970181B0B008840000000012
:10628400A2B20181ABF0800100000000800A01810C
:10629400B0B0ABF00000000008B10181B0B00084E0
:1062A4000000000008B10181B0B0008400000000CB
:1062B40008B10181B0B00084000000003F260181D4
:1062C400B0ABF0800000000008B10181B0B00084E0
:1062D4000000000008B10181B0B00084000000009B
:1062E40008B10181B0B000840000000008B1018150
:1062F400B0B000840000000080060181B0B0ABF0B3
:106304000000000008B10181B0B00084000000006A
:0C63140008B10181B0B00084000000005E
:10632000B4ADFF7F0100000034AEFF7F98FEFF7F19
:10633000CCAEFF7F01000000F4AEFF7F28FEFF7FA0
:10634000E8AFFF7F2CFEFF7FBCB0FF7F0884978003
:10635000D0B1FF7F01000000D4B2FF7F20FEFF7F9D
:106360002CB3FF7F0100000038B3FF7F1CFEFF7FCE
:1063700054B3FF7F01000000D4B3FF7F18FEFF7FFE
:106380004CB5FF7F0100000010B7FF7F14FEFF7FB8
:1063900068B7FF7F0100000074B7FF7F10FEFF7F2A
:1063A00090B7FF7F01000000F4B7FF7F0CFEFF7F76
:1063B00038B9FF7F0100000034BCFF7F088497805C
:1063C0006CBCFF7F01000000C0C0FF7F0884978085
:1063D000D0C0FF7F0100000010C7FF7FF4FDFF7FEA
:1063E0003CC7FF7FF8FDFF7F60C7FF7F0100000013
:1063F00064C8FF7FF4FDFF7F78CAFF7F01000000C3
:1064000020CBFF7FF0FDFF7FE4CBFF7FF4FDFF7F1C
:10641000D4CCFF7F0100000004CEFF7FF0FDFF7FA2
:1064200034CFFF7FF4FDFF7F08D0FF7FF8FDFF7FB3
:10643000F8D2FF7FFCFDFF7FF0D3FF7F00FEFF7FE0
:10644000BCD5FF7F04FEFF7FD8D5FF7F08849780EF
:106450000CD6FF7F00FEFF7F34D7FF7F04FEFF7F57
:10646000F8D9FF7F08FEFF7F6CDBFF7F0CFEFF7F0C
:10647000D4DCFF7F01000000C4DEFF7FB0A90280F2
:1064800084DFFF7FB0B0A880D4DFFF7FF8FDFF7FFF
:10649000A0E0FF7FA908B180CCE0FF7F01000000F1
:1064A00060E1FF7FECFDFF7FC4E4FF7FF0FDFF7F35
:1064B000C8E4FF7FF4FDFF7FCCE4FF7FF8FDFF7FA2
:1064C000D0E4FF7FFCFDFF7F80E8FF7F010000003C
:1064D0007CE8FF7FAA0FB280D0E8FF7FF0FDFF7F4E
:1064E000DCE8FF7FA908B18014E9FF7FECFDFF7FA6
:1064F00028E9FF7F0100000024E9FF7FE8FDFF7F1E
:106500002CE9FF7FAA25B28094E9FF7F01000000FB
:1065100000EBFF7F0084048010EBFF7FD4FDFF7F42
:1065200010EBFF7FD8FDFF7F30EEFF7F00840480FB
:1065300050EEFF7FD4FDFF7F54EEFF7FD8FDFF7F3D
:0865400060EEFF7F0100000086
:10654800006CDC02000000000000000004000010E5
:10655800040000100C0000100C00001014000010C3
:10656800140000101C0000101C0000102400001073
:10657800240000102C0000102C0000103400001023
:10658800340000103C0000103C00001044000010D3
:10659800440000104C0000104C0000105400001083
:1065A800540000105C0000105C0000106400001033
:1065B800640000106C0000106C00001074000010E3
:1065C800740000107C0000107C0000108400001093
:1065D800840000108C0000108C0000109400001043
:1065E800940000109C0000109C000010A4000010F3
:1065F800A4000010AC000010AC000010B4000010A3
:10660800B4000010BC000010BC000010C400001052
:10661800C4000010CC000010CC000010D400001002
:10662800D4000010DC000010DC000010E4000010B2
:10663800E4000010EC000010EC000010F400001062
:10664800F4000010FC000010FC0000100401001011
:10665800040100100C0100100C01001014010010BE
:10666800140100101C0100101C010010240100106E
:10667800240100102C0100102C010010340100101E
:10668800340100103C0100103C01001044010010CE
:10669800440100104C0100104C010010540100107E
:1066A800540100105C0100105C010010640100102E
:1066B800640100106C0100106C01001074010010DE
:1066C800740100107C0100107C010010840100108E
:1066D800840100108C0100108C010010940100103E
:1066E800940100109C0100109C010010A4010010EE
:1066F800A4010010AC010010AC010010B40100109E
:10670800B4010010BC010010BC010010C40100104D
:10671800C4010010CC010010CC010010D4010010FD
:10672800D4010010DC010010DC010010E4010010AD
:10673800E4010010EC010010EC010010F40100105D
:10674800F4010010FC010010FC010010040200100C
:10675800040200100C0200100C02001014020010B9
:10676800140200101C0200101C0200102402001069
:10677800240200102C0200102C0200103402001019
:10678800340200103C0200103C02001044020010C9
:10679800440200104C0200104C0200105402001079
:1067A800540200105C0200105C0200106402001029
:1067B800640200106C0200106C02001074020010D9
:1067C800740200107C0200107C0200108402001089
:1067D800840200108C0200108C0200109402001039
:1067E800940200109C0200109C020010A4020010E9
:1067F800A4020010AC020010AC020010B402001099
:10680800B4020010BC020010BC020010C402001048
:10681800C4020010CC020010CC020010D4020010F8
:10682800D4020010DC020010DC020010E4020010A8
:10683800E4020010EC020010EC020010F402001058
:10684800F4020010FC020010FC0200100403001007
:10685800040300100C0300100C03001014030010B4
:10686800140300101C0300101C0300102403001064
:10687800240300102C0300102C0300103403001014
:10688800340300103C0300103C03001044030010C4
:10689800440300104C0300104C0300105403001074
:1068A800540300105C0300105C0300106403001024
:1068B800640300106C0300106C03001074030010D4
:1068C800740300107C0300107C0300108403001084
:1068D800840300108C0300108C0300109403001034
:1068E800940300109C0300109C030010A4030010E4
:1068F800A4030010AC030010AC030010B403001094
:10690800B4030010BC030010BC030010C403001043
:10691800C4030010CC030010CC030010D4030010F3
:10692800D4030010DC030010DC030010E4030010A3
:10693800E4030010EC030010EC030010F403001053
:10694800F4030010FC030010FC030010FFFFFFFF1E
:1069580000000200000000002004001000000000F9
:10696800000000000C07001074070010DC0700107E
:10697800000000000000000000000000000000000F
:1069880000000000000000000000000000000000FF
:10699800000000002C610000000000000000000062
:1069A80000000000000000000000000000000000DF
:1069B80000000000000000000000000000000000CF
:1069C80000000000000000000000000000000000BF
:1069D80000000000000000000000000000000000AF
:1069E800000000000000000000000000000000009F
:1069F800000000000000000000000000000000008F
:106A0800000000000000000001000000000000007D
:106A18000E33CDAB34126DE6ECDE05000B00000042
:106A2800000000000000000000000000000000005E
:106A3800000000000000000000000000000000004E
:106A4800000000000000000000000000000000003E
:106A5800000000000000000000000000000000002E
:040000030000115D8B
:00000001FF
