:10000000D01F001085010000110400001D04000035
:1000100000000000000000000000000000000000E0
:1000200000000000000000000000000029040000A3
:100030000000000000000000350400004104000042
:100040004D0400004D0400004D0400004D0400006C
:100050004D0400004D0400004D0400004D0400005C
:100060004D0400004D0400004D0400004D0400004C
:100070004D0400004D0400004D0400005904000030
:1000800065040000710400007D0400008904000084
:1000900095040000A1040000AD040000B9040000B4
:1000A000C5040000D1040000DD040000E9040000E4
:1000B000F5040000010500000D0500001905000011
:1000C00000B5031C89B00C20994208D33222019359
:1000D00002916846009205A9024B9847059809B01D
:1000E00000BDC046F11FFF1F00B589B03323009348
:1000F000084B0291FA21019089001868039200F0E0
:10010000C3FA05A90490044B68469847059809B0BE
:1001100000BDC04604000010F11FFF1F00B5031C06
:1001200089B00C2099420FD30193084B0291FA2118
:10013000342218688900009200F0A6FA05A90390FD
:10014000034B68469847059809B000BD04000010AD
:10015000F11FFF1F10B588B01C1C382300930190BD
:1001600002916846039205A9054B984705980A280D
:1001700003D1002C01D0069B236008B010BDC046FF
:10018000F11FFF1F08B50B4A0B4B03E0117801323A
:100190001970013309498B42F8D3094B02E0002260
:1001A0001A700133074A9342F9D300F027FA00F09E
:1001B00063FAFEE7A307000000000010080000102B
:1001C000080000100800001010B5031C00200FE00C
:1001D0001A78013312025040082204B24000002C69
:1001E00001DA064C6040013AD2B280B2002AF4D162
:1001F000013909B20029EBDA10BDC0462110000018
:1002000000B5034A034BDA60BFF34F8FFEE7C046E9
:100210000400FA0500ED00E070B5051C061E1DD0B7
:1002200001200721FFF74CFF0025A84216D10C4CF6
:1002300080222068311C5200FFF756FFA8420DD1E2
:1002400080222068311C52002B1CFFF783FFA8423C
:1002500004D1236801350133FF332360281C70BDAE
:100260000000001070B5454C4549A5445E228CA89D
:1002700000F006FA7822ADAB1A80ACAB093A1A80CE
:100280004049523AA4A800F0FBF99620800100F002
:1002900049F901200721FFF713FF002869D1013038
:1002A0000721FFF73BFF002863D18CA85E2100F0F7
:1002B00095F9354C6C44201C00F082F90028F8D0E8
:1002C000227801AB1A70012400251CE0337801A8C4
:1002D0000355802301345B0000259C4213D1FFF7B6
:1002E0009BFFA84201D1ADA800E0ACA8022100F01C
:1002F00075F9002301AA0024D4548022013352004E
:100300009342F7D1251C204E6E44301C00F058F962
:100310000028DBD11D4B01359D42F4DD01A8FFF71C
:100320007BFF002801D1ADA800E0ACA8022100F0BD
:1003300055F9802040011649FFF746FFFE234CAADD
:10034000DB0102CB02C2802109028B42F9D18B90E2
:100350000720011CFFF7B4FE002806D1FE308022E2
:10036000C0014CA95200FFF7BFFEA4A81D2100F058
:1003700035F9AE239B009D4470BDC04648FDFFFF8C
:100380002807000086070000B7020000FEFF0F00EC
:10039000FC6F000070B5A02480231B02E405E25826
:1003A00002218A43E250E2580826134DB243E2503C
:1003B0002A88124B9A4207D0802040011049FFF74B
:1003C00003FF2B88834211D0FFF74CFFFFF718FF84
:1003D0000AE0FFF747FFFFF713FF00E00A48006855
:1003E00085460A4800688746002070BD054BE358E3
:1003F0003342F3D1EDE7C046FC7F0000FFFF000071
:10040000FC6F0000FC3F0000001000000410000022
:100410000148006887460000081000000148006895
:10042000874600000C100000014800688746000065
:100430002C100000014800688746000038100000BA
:1004400001480068874600003C1000000148006831
:100450008746000040100000014800688746000001
:100460007C100000014800688746000080100000F2
:1004700001480068874600008410000001480068B9
:100480008746000088100000014800688746000089
:100490008C100000014800688746000090100000A2
:1004A0000148006887460000941000000148006879
:1004B0008746000098100000014800688746000049
:1004C0009C1000000148006887460000A010000052
:1004D0000148006887460000A41000000148006839
:1004E00087460000A8100000014800688746000009
:1004F000AC1000000148006887460000B010000002
:100500000148006887460000B410000001480068F8
:1005100087460000B81000000148006887460000C8
:10052000BC100000F8B5214B80229203DA67204B03
:1005300007251A68071CAA431A601968012211438B
:10054000196059681B4CA943596059681143596097
:10055000194B8021D86F49010143D96794331A6040
:100560008232E2601E68983B996F144B186800F065
:100570008BF8311C00F088F8391C000900F084F871
:10058000030A6360FF231840FC3B2060E360A56022
:100590006369626960231340602BFAD101E0054B67
:1005A0001B686369DA07FAD4F8BDC04604E100E0CD
:1005B000A440044000800040048004400400001077
:1005C00010B5054A041C51690123081C184002D0CB
:1005D0001268181C227010BD0080004010B507E0A2
:1005E0000278054B1A605A695406FCD5013001396E
:1005F0000029F5D110BDC0460080004010B51C4B4D
:100600008E229200995820208143995000221A622C
:10061000C0460132C82AFBD1C73A00211A645A6485
:1006200059645A64596C124AC807FBD5232191605A
:100630006B31890050588024A0435050D868012164
:100640000B4A0842FAD003201067033851675067FD
:100650005167596F01221142FBD0054B05499A673A
:100660000433D96790331A605A609A6010BDC0464F
:10067000008004405F00010008B5FFF78BFE08BD55
:1006800008B500F03BF808BD002931D00122D2079F
:10069000030901E0090112099942FBD9430801E06D
:1006A000490052089942FBD900E04908401A07D393
:1006B0005241FAD301461046704749084018F7D214
:1006C0009218FAD34018014610467047CB0F00D05D
:1006D0004942021000D54042534008B5FFF7D4FF0D
:1006E0000CBC521000D34042002A00D549421847A2
:1006F000F446002000F001F8604770478446830705
:1007000008D18B0706D1131F04D304C904C0043BCE
:10071000FBD21A1D524205D0891A801A8B5C835471
:100720000132FBD16046704757656C636F6D652081
:10073000746F2065586F647573696E6F210D0A6858
:100740007474703A2F2F656372616674732E672E0E
:10075000686174656E612E6E652E6A702F4C796EBD
:10076000782D457945442F0D0A4C796E58626565A0
:1007700020426F6F746C6F61646572205374617294
:10078000742E2E2E2E000D0A50726F6772616D202E
:10079000656E642E205265626F6F74696E672E2ECF
:0307A0002E2E00FA
:0807A30000100000006CDC02F4
:040000030000018573
:00000001FF
