:10000000D01F0010850100002D04000039040000FD
:1000100000000000000000000000000000000000E0
:100020000000000000000000000000004504000087
:100030000000000000000000510400005D0400000A
:1000400069040000690400006904000069040000FC
:1000500069040000690400006904000069040000EC
:1000600069040000690400006904000069040000DC
:1000700069040000690400006904000075040000C0
:10008000810400008D04000099040000A504000014
:10009000B1040000BD040000C9040000D504000044
:1000A000E1040000ED040000F90400000505000073
:1000B000110500001D0500002905000035050000A0
:1000C00000B5031C89B00C20994208D33222019359
:1000D00002916846009205A9024B9847059809B01D
:1000E00000BDC046F11FFF1F00B589B03323009348
:1000F000084B0291FA21019089001868039200F0E0
:10010000D1FA05A90490044B68469847059809B0B0
:1001100000BDC04604000010F11FFF1F00B5031C06
:1001200089B00C2099420FD30193084B0291FA2118
:10013000342218688900009200F0B4FA05A90390EF
:10014000034B68469847059809B000BD04000010AD
:10015000F11FFF1F10B588B01C1C382300930190BD
:1001600002916846039205A9054B984705980A280D
:1001700003D1002C01D0069B236008B010BDC046FF
:10018000F11FFF1F08B50B4A0B4B03E0117801323A
:100190001970013309498B42F8D3094B02E0002260
:1001A0001A700133074A9342F9D300F035FA00F090
:1001B00071FAFEE7B7070000000000100800001009
:1001C000080000100800001010B5031C00200FE00C
:1001D0001A78013312025040082204B24000002C69
:1001E00001DA064C6040013AD2B280B2002AF4D162
:1001F000013909B20029EBDA10BDC0462110000018
:1002000000B5034A034BDA60BFF34F8FFEE7C046E9
:100210000400FA0500ED00E070B5051C061E1DD0B7
:1002200001200721FFF74CFF0025A84216D10C4CF6
:1002300080222068311C5200FFF756FFA8420DD1E2
:1002400080222068311C52002B1CFFF783FFA8423C
:1002500004D1236801350133FF332360281C70BDAE
:100260000000001010B54B4C4B49A54456228BA8FA
:1002700000F014FA7822ADAB1A80ACAB093A1A80C0
:100280004649523AA1A800F009FA9620800100F0F0
:1002900057F901200721FFF713FF002876D101301D
:1002A0000721FFF73BFF002870D18BA8562100F0F3
:1002B000A3F93B4C6C44201C00F090F90028F8D0C6
:1002C000237869460B700123AA9325E0AA9B227824
:1002D0006946CA54AA9B0133AA93AA9A80235B0059
:1002E0009A4217D16846FFF797FF002801D1ADA8C1
:1002F00000E0ACA8022100F07FF90023AA9305E0FA
:10030000A99B00226946CA54A99B0133A993A99BC2
:10031000FF2BF5DD0023AB93214C6C44201C00F037
:100320005DF90028D2D1AB9B0133AB93C0461D4B86
:10033000AB9A9A42F0DD6846FFF76EFF002801D1C4
:10034000ADA800E0ACA8022100F056F980204001E1
:100350001549FFF739FFFE234BAADB0102CB02C28E
:10036000802109028B42F9D18A900720011CFFF7F6
:10037000A7FE002806D1FE308022C0014BA9520002
:10038000FFF7B2FEA1A81D2100F036F9AE239B00B5
:100390009D4410BD48FDFFFF440700009A07000080
:1003A000B7020000FFFF0F00FC6F000013B5194CEF
:1003B000194B22889A421BD0802040011749FFF731
:1003C00003FF2388834213D11FE0009B0133009376
:1003D000C046134B009A9A4205DC6846073000F08D
:1003E000FDF80028F1D06B4607331B787A2B04D137
:1003F000FFF738FFFFF704FF05E00A48006885466D
:10040000094800688746002016BD9620800100F04C
:1004100097F8E2E7FC7F0000FFFF0000FC6F0000A0
:10042000FFFF0F00001000000410000001480068EA
:100430008746000008100000014800688746000059
:100440000C10000001480068874600002C100000D6
:100450000148006887460000381000000148006825
:10046000874600003C1000000148006887460000F5
:100470004010000001480068874600007C10000022
:1004800001480068874600008010000001480068AD
:10049000874600008410000001480068874600007D
:1004A0008810000001480068874600008C1000009A
:1004B000014800688746000090100000014800686D
:1004C000874600009410000001480068874600003D
:1004D0009810000001480068874600009C1000004A
:1004E0000148006887460000A0100000014800682D
:1004F00087460000A41000000148006887460000FD
:10050000A81000000148006887460000AC100000F9
:100510000148006887460000B010000001480068EC
:1005200087460000B41000000148006887460000BC
:10053000B81000000148006887460000BC100000A9
:10054000F8B5214B80229203DA67204B07251A6801
:10055000071CAA431A6019680122114319605968DF
:100560001B4CA9435960596811435960194B8021AC
:10057000D86F49010143D96794331A608232E2602F
:100580001E68983B996F144B186800F08BF8311C6B
:1005900000F088F8391C000900F084F8030A636051
:1005A000FF231840FC3B2060E360A560636962693B
:1005B00060231340602BFAD101E0054B1B6863698F
:1005C000DA07FAD4F8BDC04604E100E0A4400440D4
:1005D00000800040048004400400001010B5054A6B
:1005E000041C51690123081C184002D01268181C11
:1005F000227010BD0080004010B507E00278054B66
:100600001A605A695406FCD5013001390029F5D128
:1006100010BDC0460080004010B51C4B8E229200D9
:10062000995820208143995000221A62C046013215
:10063000C82AFBD1C73A00211A645A6459645A6423
:10064000596C124AC807FBD5232191606B31890090
:1006500050588024A0435050D86801210B4A0842CA
:10066000FAD0032010670338516750675167596FFC
:1006700001221142FBD0054B05499A670433D96723
:1006800090331A605A609A6010BDC04600800440E2
:100690005F00010008B5FFF789FE08BD08B500F04E
:1006A0003BF808BD002931D00122D207030901E03F
:1006B000090112099942FBD9430801E04900520897
:1006C0009942FBD900E04908401A07D35241FAD3B6
:1006D00001461046704749084018F7D29218FAD3DD
:1006E0004018014610467047CB0F00D04942021017
:1006F00000D54042534008B5FFF7D4FF0CBC521060
:1007000000D34042002A00D549421847F446002051
:1007100000F001F8604770478446830708D18B07D3
:1007200006D1131F04D304C904C0043BFBD21A1D15
:10073000524205D0891A801A8B5C83540132FBD156
:100740006046704757656C636F6D6520746F2065F8
:10075000586F647573696E6F210D0A687474703A0E
:100760002F2F6C796E78657965642E686174656E7B
:1007700061626C6F672E636F6D2F0D0A65586F6431
:10078000757320426F6F746C6F616465722053746F
:100790006172742E2E2E2E0D0A000D0A50726F6794
:1007A00072616D20656E642E205265626F6F746990
:0707B0006E672E2E2E2E00B5
:0807B70000100000006CDC02E0
:040000030000018573
:00000001FF
