:10100000E01F0010E9100000D5100000D91000000A
:1010100000000000000000000000000000000000D0
:10102000000000000000000000000000DD100000D3
:101030000000000000000000E11000000D1800009A
:10104000ED110000ED110000ED110000ED110000A8
:10105000ED110000ED110000ED110000ED11000098
:10106000ED110000ED110000ED110000ED11000088
:10107000ED110000ED110000ED110000ED11000078
:10108000ED110000ED110000ED110000E51700006A
:10109000ED110000ED110000000000000000000054
:1010A000ED110000ED110000ED1100000000000046
:1010B000ED110000ED110000ED110000ED11000038
:1010C000FC4E0000000000104C0800004C0800100E
:1010D0004C05000000B5FEE700B5FEE700B5FEE7F1
:1010E00000B5FEE700B5FEE770B51449144B05E006
:1010F0009C681D6858680C33002C12D18B42F7D3C2
:101100001049002504E05C6818680833002C0FD1F2
:101110008B42F8D300F068FC02F0B2FE00F05AFCFB
:10112000FEE700225659043240C09442E6D9F9E75E
:101130000022043220C09442EAD9FAE7CC10000021
:10114000C0100000D410000070B5002A29D0036838
:10115000551E2C0708C10423A40F9A4221D9002C44
:101160000ED0012C07D0022C02D0436808C10823FE
:101170001C58043310C11E58043340C19A4210D980
:101180001D580C1C20C41D1D2E5804354E602D58B2
:1011900065601C1C0C3426581033CE6010319A4206
:1011A000EED870BD10B500291ED04A1E14070023CA
:1011B0000422A40F08C0914216D9002C0BD0012C98
:1011C00005D0022C01D008C0082208C00432043225
:1011D00008C0914208D9041C08C4103243606360FF
:1011E000C36010309142F6D810BDC04600B5FEE78E
:1011F000F0B5474680B41F4C2388FE2B35D91E49D5
:101200000B78002B2ED01D4D1D4E2A88013A501E02
:1012100082412A802A88013A531E9A4100230B708A
:10122000328001211202D018164D47007B5B062048
:1012300021800121984600F059FB134F4146381C8C
:1012400000F0C8F9368820883202131859004E5B26
:10125000013020800021062000F048FB381C311CA2
:1012600000F0B8F904BC9046F0BD054E591C328818
:1012700089B2D7E752080010510800104C0800103E
:101280005408001058080010600C001038B51B4CB2
:101290009621201C890100F0F1FB0620012100F0BD
:1012A000F1FA174D1021281C00F090F9281C01219B
:1012B00000F08EF9281C00F02BFA124D281C00F0CB
:1012C0000DFD00280CD0201C0F4900F0B1FC281C9B
:1012D0000E4900F00DFD0E4B1870002805D138BDE9
:1012E000201C0C4900F0A4FCF9E7201C0A4900F07E
:1012F0009FFC281C00F004FDFEE7C046980C00107F
:10130000600C0010A80C0010B8490000CC49000087
:1013100050080010A0490000D8490000F0B55F4611
:1013200056464D464446F0B42F4A83B0101C2F4910
:10133000924600F07DFC2E482D2100F01DFA01ACF4
:1013400000236A462380994613802A4A2A4B2B4D54
:101350002B4F2C4E90469B4621882B8808B29842F2
:1013600009D06A46108802B2FE2A04DD2888494660
:101370006B46208019806A4611880AB2FE2A15DC65
:10138000238880211AB2500238188900321C01F0DB
:1013900041F843461870002811D1318800290ED039
:1013A0006A4613880133FF3398B210806A46128868
:1013B00011B2FE29D0DD01205A461070CCE7124848
:1013C00000F09EFC00F000FA5046104900F030FC9E
:1013D00050460F4900F02CFC03B03CBC90469946A7
:1013E000A246AB46F0BDC046980C0010EC49000088
:1013F000F111000050080010510800104C080010B6
:10140000580800104E080010A80C0010B449000045
:10141000F84900007047C0464160704781707047CE
:10142000C170704710B50C4C82B01220E3680A4AB4
:101430000340022BFAD191601021D0680842FCD100
:1014400005490422CC681442FCD0034A91680191FA
:10145000019802B010BDC04600000440F0B54746F8
:1014600080B4061C82B070200F1C404D01219846AC
:10147000141C00F007FA0023EB617020012100F03A
:1014800035FA002E01D0012E43D00221B022A950FE
:10149000E964364B012611205E661866344B5968A4
:1014A0003143596080215D58080128435850143158
:1014B0005E50072F24D904275F50012C01D0002C47
:1014C00022D10194019B01229C012A4B57421C60AE
:1014D0001E68391C4144284A0E4381371E60780338
:1014E0000226C5211E61B14010605458FF25AC434F
:1014F0003F3D2C4302B054505E6004BC9046F0BDAA
:101500001E4EBD007759BF46022CDAD0032CD9D12C
:10151000D7E7B0202E502E67BBE7154D402694210B
:101520006E50CAE7124A80209423D050C5E7104A73
:10153000012194201150C0E70D4E02279423F7504B
:10154000BBE70B49042594228D50B6E7084F0820CD
:101550009426B851B1E7064910259423CD50ACE745
:10156000034A20209427D051A7E7C04600400440FA
:10157000008004400000044000E100E0044A000054
:1015800008B5031C9978DA7800785B68FFF766FF86
:1015900008BDC04610B5094C002208230221227064
:1015A0006270A170E2706360101CFFF757FF201C8F
:1015B0000349044A00F0D0F810BDC046580C001092
:1015C00015140000480800107047C046416070477D
:1015D0008170704710B50C4C82B01220E3680A4A43
:1015E0000340022BFAD191601021D0680842FCD14F
:1015F00005490422CC681442FCD0034A9168019149
:10160000019802B010BDC04600800540F0B53A4CCC
:1016100083B06B200E1C0121151C1F1C00F032F939
:101620000020A06001216B2000F060F902238C21D2
:10163000A36263501033E365304B04215A680A43B8
:101640005A6080229C58D002204398501C320120BE
:101650009850072E1FD99950012D01D0002D1ED171
:1016600001950199013F8D01254980240D600E6887
:10167000E0013743234E0F6002270F613060C32023
:10168000B8403358204CC02215041C402C4303B0F2
:1016900034504F60F0BD1D4AB300D658B746022DF6
:1016A000DED0032DDDD1DBE7144940249C200C5013
:1016B000D2E7124A80269C23D650CDE70F49012459
:1016C0009C200C50C8E70D4A02269C23D650C3E745
:1016D0000A4904249C200C50BEE7084A08269C2393
:1016E000D650B9E7054910249C200C50B4E7034AB2
:1016F00020269C23D650AFE70040044000800440E1
:101700000080054000E100E0FFFF00FF244A0000E8
:1017100008B5031C9978DA7800785B68FFF776FFE4
:1017200008BDC04610B5094C0221002208232170D3
:101730006270A170E2706360081CFFF767FF201CF5
:101740000349044A00F008F810BDC046600C0010C0
:10175000C91500004808001000207047044A802383
:10176000D058D9000143D150024A1903D1507047D3
:101770000080044000E100E030B50F4A8023D558D6
:10178000DC002C43D450012914DD0C4B3022DA60EC
:1017900001399032196280245A61094A2103C42513
:1017A0001160AD00545921020C0A0649545101221E
:1017B0005A600860002030BD008004400080014075
:1017C00000E100E0680C00100123044A5942116254
:1017D0008020034A01038023D150704700800140DC
:1017E00000E100E008B5074803685A0708D5064B32
:1017F0001A68002A01D019688847024B0420186033
:1018000008BDC04600800140680C0010024B1A68F9
:1018100001321A607047C0466C0C001000B5144BC2
:10182000FA2183B01868890001F0ECF90190019B5E
:10183000104A934209D910490868420703D40F4A55
:101840000820B023D05003B000BD1A02130A0A4A80
:10185000013B53600A4B196A0802C021000A0906BD
:10186000014300201962906007301060E3E7C04632
:1018700000000010FFFFFF0010E000E000800440C7
:1018800000ED00E010B5132810DC012917D0144931
:10189000C2005358134C9A0012598023C0001B02F7
:1018A0000430D45840588443D45010BD6328FCDD24
:1018B000C728FADC6438012910D00B49E8E7084949
:1018C000C2005358074C9A0012598023C0001B02D3
:1018D0000430D45841582143D150E6E70249EFE79C
:1018E000344B0000444A0000544A000000B513285D
:1018F0000FDC012916D0124AC1008B58C000990094
:10190000104B0430CB5881588A00D0588843D050AF
:1019100000BD6328FCDDC728FADC643801290DD03E
:10192000094AE9E7064BC100CA58C00091000430DB
:10193000044AC3588A5899008B50E9E7024BF2E7F2
:10194000344B0000444A0000544A000000B583B004
:10195000132811DC0C4BC100CA58C00091000B4A7F
:1019600004308A58C158880083585A1E9341019305
:10197000019B03B0181C00BD00236328F9DDC728B4
:10198000F7DC6438024BE6E7344B0000444A0000C1
:10199000544A00007047C04608B50A4866234360B1
:1019A0000A338360084A023BC3606E3B8261437026
:1019B000037003614361C3610449054AFFF7CCFE2C
:1019C00008BDC046700C0010FFFFFF009519000015
:1019D0004808001008B5FFF721FFFFF7BFFEFFF72B
:1019E00055FCFFF79BFCFCE710B5214B8E229400C1
:1019F000195920208143002219511A62C823C04678
:101A0000C046C046C046043B002BF8D1184801210F
:101A10000364416443644164436C154A0B42FBD048
:101A2000232090606B308400115980208143115134
:101A30007F38141CE3680E4A01210342FAD00324C4
:101A40001467033C5167081C54675167141C636F8B
:101A5000074A01210342FAD00648802491671051B9
:101A600014341151043411510434115110BDC046C5
:101A700000800440FFFF01007047C04670B5194B5D
:101A80004160A82698590725A84398519C590120E0
:101A900004439C51043E9A59AA439A519C590443C9
:101AA0009C51114B80241E596201324398261A51D1
:101AB0009851986F9E590D4B1A6833015943504302
:101AC00001F0A0F80A4BFF21DA68060A2243084019
:101AD000DA605E601860D8680322A043D860DA60DC
:101AE0009D6070BD00400440008004400000001074
:101AF00000800040F0B5474680B488B00D1C012A34
:101B000040D0002900DA6DE0002398466C46082A90
:101B100000D170E0082A21D90A2A3FD0102A4FD0DC
:101B200046460020A055013EB04508DA4346E55C34
:101B3000A15DE154A5550133013EB342F7DB2078A6
:101B4000002827D0354A6C46202156690E42FCD029
:101B50001060013420780028F7D11BE0022ADFD181
:101B60004646002DDDD02E480121EF0FEA190A402C
:101B7000D31BEA0FC75C55196D10A7550136002D10
:101B8000F3D1CEE7CDB225491F324B691342FCD0C9
:101B90002248056008B004BC9046F0BD002DBFD0BF
:101BA000204F4646281C0A2101F0D0F8795C281CF9
:101BB000A1550A21013601F073F8051EF2D1B0E7F4
:101BC000002DADD0184846460F21EA17170FED1922
:101BD0002B1C0B40DA1B835C2D11A3550136002D05
:101BE000F3D19EE72D236C4623702C3B4D42984643
:101BF000082A00D08EE7002D00D191E70B48464619
:101C00000721EF177B0FED182A1C0A40D71AC35D76
:101C1000ED10A3550136002DF3D182E7008000407E
:101C2000D04B0000B84B0000A44B0000C44B000098
:101C300010B50C78002C09D00C4A202053690342BF
:101C4000FCD0146001310C78002CF7D1074820211A
:101C50004469064A0C42FBD00D20106020215369D4
:101C60000B42FCD001490A220A6010BD00800040EE
:101C700008B5FFF73FFF084820214369064A0B4299
:101C8000FBD00D201060202153690B42FCD002498B
:101C90000A220A6008BDC0460080004008B5064818
:101CA00000210170083141708E318B01436003497E
:101CB000034AFFF751FD08BD980C0010791A000087
:101CC00048080010024B034A002018605A60704711
:101CD000A00C0010FFFF00007047C04610B5041CA8
:101CE00000F03CFAA223E0544342584110BDC046E4
:101CF00010B5041C081C00F053FBA223E05410BDD7
:101D00007047C04608B504487022A423C250034956
:101D1000034AFFF721FD08BDA80C0010D91C0000E4
:101D200048080010F0B5474680B43A4B012682B00F
:101D3000041C1D68B04209D9EB68984206D22B7882
:101D4000022B3ED0032B22D0B34204D002B0301C71
:101D500004BC9046F0BD87B27B08D91988B2430A0B
:101D6000C20598462C4BD20D9A423ED0296901AF4C
:101D70004144381C022300F0DFFD0028E6D17E78C4
:101D80003D7836022E43E2072CD53611DEE7C10935
:101D90002A697F20044001AF8918381CA20004235F
:101DA00000F0CAFD0028D1D1FA78B9783D78140640
:101DB00008047B7804432C431F023C432601360968
:101DC000C4E7010A2A69FF200440891801A86200BB
:101DD00000F0B2FD0028B9D16B465D791F792E0263
:101DE0003E43B3E73405260DB0E7296901AF41440E
:101DF000381C331C00F0A0FD021EA7D129696846DB
:101E0000013141440530331C00F096FD0028B6D066
:101E10009CE7C046500D0010FF010000F0B55F4682
:101E200056464D464446F0B40B7889B0041C202B2E
:101E300003D101310B78202BFBD02F3B5A42534169
:101E4000CA1800210592A1601378202B00D855E113
:101E5000C14A636816689146B4465A1C2025511C35
:101E60001D70CF1C55701570957003328D70002653
:101E7000557008207D70023202375570311C7D701C
:101E8000BD70FD7080460694059A525C0131141CA9
:101E90002F3C67427C41C9B2002C00D00AE1202AC5
:101EA00000D807E1171C2E3F784278418346002472
:101EB000A34506D14446A6424041824600208245C1
:101EC00008D0002F10D1082290450DD10B24161CEC
:101ED000A046D9E7171C613F192F01D8203AD2B28A
:101EE0009A550136F6B2CFE70598069C421805923E
:101EF0000B3300211970A06800232380012800D132
:101F0000C4E06146CB68984200D3BEE0002800D010
:101F1000C3E00A78032A00D1D8E062465169E06044
:101F200063469F682688B81C80467B1C079001206A
:101F30002161069380440F2216407201381C202331
:101F400000F0FAFC002800D09FE03A78002A00D187
:101F5000E8E0F97A0826314207D160680121037868
:101F600082468B46D3449A421AD04B461B689A4607
:101F7000238801339EB2002E00D1D3E021690029CD
:101F800000D1CFE0300709D1E0680131216100289C
:101F90006ED152469088B04200D8C3E02680CAE78E
:101FA000069E4378327859449A42DED107985E46BD
:101FB000007873784A1C9842D7D101201318061C68
:101FC000039340460378497846448B42CDD143463B
:101FD0005B78039952789C46701C01319445C4D1BA
:101FE000B21C7678039B01965B78019E94464A1C4E
:101FF0009E42BAD10126331C634403938E1C407861
:1020000049788842B1D1181C63465B78911C52789C
:102010009C4601309445A8D1421C9446039BB21CB7
:1020200001925A787678B2429FD1407849788842B6
:102030009BD1019E63465A7873789A4295D1534654
:10204000DF7A5A46002F3FD14E463668B168B44613
:10205000CE7AF60650D54F7D0E7D3802CF7E3043C6
:10206000897E3E02371C00040F430743A760F6E653
:1020700033099B4653465A785B46013A13409B46C8
:102080008CD1FFF74FFE012826D8012009B03CBCB7
:1020900090469946A246AB46F0BDE0600238023B4E
:1020A0000021984200D33BE762465178976941434B
:1020B000C91935E70598069C461805960B3301218A
:1020C000202A00D816E714E70020DFE74869E0601F
:1020D000011E00D124E7E1E75146CB68984221D2A6
:1020E0004A461368E060DA680238023A594690427C
:1020F0001ED3216126801EE70420C7E7164D2180EC
:102100002B680120DE688E4208D01F78032F15D07F
:102110005A69E160111C2B68216100209D68002430
:102120002C70B3E76568E87A434258410330ADE765
:1021300059784143986909182161DBE75A69E260DF
:102140008A42E7D0023A023EB242E4D25E7899690E
:1021500072435118DFE7C046500D0010F0B55746E6
:102160004E464546E0B4894E00238AB0051C3360D4
:10217000041C984206D000F06BFA0123011C0224D3
:10218000194006D00AB0201C1CBC90469946A246B5
:10219000F0BD01AFFF229A40381C231C00F0CCFB9D
:1021A000011E00D0E5E07B783A7818021043784BA6
:1021B00002B29A4208D000208046032C00D1E0E011
:1021C000002C6DD00724DDE7381C3622231C00F0DC
:1021D000B3FB002808D179783A780C0214436D4B90
:1021E00021B2994200D1CEE0381C002152220223B4
:1021F00000F0A2FB002808D17C78397822020A433B
:10220000644B14B29C4200D1BDE0DF246200381C54
:102210000021102300F090FB01240028B2D13B796B
:102220000724002BAED0B97AFA7A0B04387A12065A
:102230007C7A1A43024321020A439046111CFF2272
:10224000381C5200022300F077FB002800D098E0F1
:102250007A783978100208434D4B04B29C42B1D1D0
:10226000381C41463622022300F066FB002807D1C5
:102270007A78397810020843464B04B29C420FD05A
:10228000381C41465222022300F056FB002899D107
:102290007A783978100208433E4B04B29C4291D1BF
:1022A000381C41460D22242300F046FB012400285F
:1022B00000D067E7BB7A1C027B7A234309D1B87E42
:1022C0007B7E04061B04FA7D397E234313430802F8
:1022D0000343BC78FA7879785A4323020B431C1CD9
:1022E00044442C613978914669707A799A463B79F1
:1022F00012021A43AA80F879BB79000203439C4674
:102300000CD1BB7D18067B7D8446180463460343CD
:10231000F87C0343387D0002184384461209904636
:1023200053466246D01A4A46821A4346D01A00F0F3
:1023300069FC194B0230E860012298421CD9174B06
:10234000984218D903232B701F33F85C013BF95CCA
:10235000020609042023F87F1143FA5C01431002AE
:102360000143696144444C44AC610024AC70356065
:1023700008E703241FE79218271C4F442A706F6157
:10238000F0E70124FEE6041C15E7C046500D0010DE
:1023900055AAFFFF46410000F60F0000F6FF0000BF
:1023A00030B51B4B011C1C6891B00620002C2AD0B4
:1023B0000DA8002500AAA570A260099008A8FFF743
:1023C0002DFD00281FD16D46297800291DD0EB7AFC
:1023D000D9061AD46B7D297D1A02EB7E0A43A97EA9
:1023E0001B0212040B4313436362EB7FA97F1A069F
:1023F00009046B7F11432A7F1D02114329430122E7
:102400002162E061A27011B030BD0320FBE7C0463D
:10241000500D0010F8B55F4656464D464446F0B4A0
:1024200091463C4A0023156892464A4683460E1C54
:10243000138006209D4240D0A9780138CA073CD5B8
:10244000EF69286AC31BB34260D3301E35D0D8462B
:102450001FE0E96A80208300D70DDC1BA4B2331C87
:102460009C4200D9341C00274046BB4548D0D20DC1
:10247000231C00F061FA00281CD14A46E869138841
:10248000361B2718E118B6B2EF611180002E3FD03D
:10249000A044FA05002ADCD1780A697800F0F6FB3E
:1024A000002910D052461368A86ADA680238023A46
:1024B000904217D30024AC7001203CBC9046994652
:1024C000A246AB46F8BD002F1CD1686A0128F1D99D
:1024D00000245246EC701368A862DA680238023AA7
:1024E0009042E7D259789F694843C1190029E1D049
:1024F000E878EB6909180130E962E870DA05A9E7C4
:102500005846B4E7A86AFFF70DFCDFE79EB29CE7E8
:10251000301CD2E7500D0010F0B5474680B443B2EE
:10252000051C0E1C002B3FDB474FA422B85801218D
:102530009046FFF7DBF9454CFF21201CFEF772FFA8
:102540004346F8580021FFF7D1F9FF21201CFEF780
:1025500069FF291C201CFEF765FF310E201CFEF7C9
:1025600061FF320CD1B2201CFEF75CFF310AC9B208
:10257000201CFEF757FFF1B2201CFEF753FF9521F8
:10258000402D03D00E39482D00D08639201CFEF78F
:1025900049FF201CFF21FEF745FF051CC0B22A069B
:1025A0000BD404BC9046F0BD77200021FFF7B4FFA8
:1025B0000128F6D87F200540B6E7201CFF21FEF752
:1025C00031FF061CC0B23206EBD5FF21201CFEF7FE
:1025D00029FF011CC0B20A06E3D5201CFF21FEF72B
:1025E00021FF031CC0B21A06DBD5201CFF21FEF719
:1025F00019FF071CC0B23A06D3D5201CFF21FEF7F5
:1026000011FF021CC0B21206CBD5201CFF21FEF721
:1026100009FF051CC0B22A06C3D5201CFF21FEF706
:1026200001FF061CC0B23206BBD5FF21201CFEF7FD
:10263000F9FE011CC0B20A06B3D5201CFF21FEF72B
:10264000F1FEC0B2ADE7C046A80C0010580C001057
:10265000F0B5474680B4B14DA42682B0A8590121F7
:10266000FFF710F9AE4C0821201CFEF7D5FE201C08
:102670000021FEF7D5FE201C0521FEF7CFFE201C11
:10268000FEF77EFFA859FFF761F9071E33D06426D5
:10269000013EF6B2013EF7B2FF21201C013FFEF7DA
:1026A000C1FEFEB2FF21201CFEF7BCFE013EFF2151
:1026B000201CFEF7B7FEF6B2201CFF21FEF7B2FE8B
:1026C000002EE5D14020311CFFF726FF071C012812
:1026D00000D186E093480021A4260170A859012169
:1026E000FFF704F9201CFF21FEF79CFE012002B039
:1026F00004BC9046F0BD8C4B1888023086B2002E88
:1027000033D0013E03233340201C391CB6B2984617
:10271000FEF788FE002E28D041460BB2002B0AD0CF
:10272000012B1AD0022B12D0201C391C013EFEF7BF
:1027300079FEB6B20BE00021201CFEF773FE201CD0
:102740000021FEF76FFE013EB7B2013FBEB2201C72
:102750000021FEF767FE013EB6B2013E201C0021BB
:10276000B6B2FEF75FFE002EE5D1FF21201CFEF77A
:1027700059FE1F210840052809D0A422A85801218C
:10278000FFF7B4F8201CFF21FEF74CFE7FE7201C6A
:10279000FF21FEF747FEFF28EFD0644E201CFF21EB
:1027A000FEF740FEFF28E8D0013E201CFF21B6B214
:1027B000FEF738FEFF28E0D0013E201CFF21B6B214
:1027C000FEF730FEFF28D8D0013E201CFF21B6B214
:1027D000FEF728FEFF28D0D0013EB6B2002EDDD194
:1027E000CBE7D52348205900FFF796FE01282AD1D0
:1027F000FF21201CFEF716FE01AE3070FF21201CC9
:10280000FEF710FEFF217070201CFEF70BFEFF216B
:10281000B070201CFEF706FEB178C0B2F07001293E
:1028200000D057E7AA2800D054E7414F8022D105B5
:10283000E920FFF771FE011E56D0013FBFB2002F05
:1028400000D147E7F2E7E920311CFFF765FE0128D8
:1028500046D9B8464127374E381C0021FFF75CFEA9
:1028600000281DD0013E381C0021B6B2FFF754FEEF
:10287000002815D0013E381C0021B6B2FFF74CFEEF
:1028800000280DD0013E381C0021B6B2FFF744FEEF
:10289000002805D0013EB6B2002E00D11AE7DBE7D2
:1028A000002E00D116E780275020B900FFF734FE34
:1028B000002800D00EE71B4BA4224746A8581F70E3
:1028C0000121FFF713F8FF21201CFEF7ABFD201CB0
:1028D0000021FEF7A3FD201CFEF752FE002006E7B4
:1028E00002239846E927B6E7002F00D1F2E67A20C6
:1028F000FFF712FE002800D0ECE6071C201CFF2189
:10290000FEF790FDF0550137042FF7D130780C22F7
:1029100090464206CFD4B846CDE7C046A80C00107A
:10292000580C0010540D0010560D0010E8FD00006A
:10293000E02E0000A8610000F8B54F464646C0B43E
:10294000061CAA4898460378171C1A0700D44902A7
:102950005120FFF7E1FD002800D0FBE0A44DA54C7D
:10296000FF21201CFEF75EFDC1B2FF293DD00125ED
:10297000FE2957D1A0487B4218184246821A93B2CA
:102980009946002F5DD0013F02353D40201C0131AA
:10299000BFB2FEF747FD002F53D02DB2002D17D048
:1029A000012D0DD0022D05D0201CFF21FEF73AFD90
:1029B000013FBFB2201CFF21FEF734FD013FBFB233
:1029C000013F201CFF21BFB2FEF72CFD002F38D0A5
:1029D000013FFF21201CBFB2FEF724FD013F201C58
:1029E000FF21FEF71FFDBFB2E4E7201CFEF71AFD32
:1029F000013DC1B2ADB2FF29B9D1201CFEF712FDD5
:102A0000013DC1B2ADB2FF29B1D1201CFEF70AFDD4
:102A1000013DC1B2ADB2FF29A9D1013DADB2002D3A
:102A20009ED101257549A42288580121FEF75EFF39
:102A3000201CFF21FEF7F6FC281C0CBC9046994692
:102A4000F8BD002E00D188E001235A42201CFF214E
:102A5000151CFEF7E7FC454403272F40ADB230704C
:102A60000136002D3FD03FB2002F1DD0012F11D0D5
:102A7000022F07D0201CFF21FEF7D4FC013D30704F
:102A8000ADB20136201CFF21FEF7CCFC013D3070B9
:102A9000ADB20136201CFF21FEF7C4FC013DADB2F2
:102AA00030700136002D1ED0FF21201CFEF7BAFC2D
:102AB000FF213070201CFEF7B5FCFF217070201C38
:102AC000FEF7B0FCFF21B070201CFEF7ABFC013D0F
:102AD000AFB2013FBDB2013DAFB2013FBDB2F07038
:102AE0000436002DE0D101267042051C4D4403261A
:102AF0002E40201CFF21ADB2FEF794FC002D00D12A
:102B000090E736B2002E18D0012E0DD0022E05D03F
:102B1000201CFF21FEF786FC013DADB2201CFF21E9
:102B2000FEF780FC013DADB2013D201CFF21ADB29E
:102B3000FEF778FC002D00D174E7013DFF21201C39
:102B4000ADB2FEF76FFC013D201CFF21FEF76AFCD1
:102B5000ADB2E3E70125274C64E7012779420E1C5B
:102B6000201CFF21264DFEF75DFC46440327011C77
:102B70003740281C0A22B6B2FFF77AF8002EB2D0EE
:102B80003FB2002F26D0012F17D0022F0AD0FF21ED
:102B9000201CFEF747FC0A22011C281CFFF768F8DE
:102BA000013EB6B2FF21201CFEF73CFC0A22011CAC
:102BB000281CFFF75DF8013EB6B2FF21201CFEF78E
:102BC00031FC013E011C0A22281CB6B2FFF750F866
:102BD000002E88D0FF21201CFEF724FC013E011CA2
:102BE0000A22281CFFF744F8B6B2D0E7540D0010B3
:102BF00030750000580C001002020000A80C0010F4
:102C0000980C0010002934D00123002210B488420F
:102C10002CD301242407A14204D2814202D209010B
:102C20001B01F8E7E400A14204D2814202D249002C
:102C30005B00F8E7884201D3401A1A434C08A042CF
:102C400002D3001B5C0822438C08A04202D3001B65
:102C50009C082243CC08A04202D3001BDC0822437C
:102C6000002803D01B0901D00909E3E7101C10BCA0
:102C70007047002801D00020C04307B4024802A1D9
:102C80004018029003BDC046D90000000029F0D0D2
:102C900003B5FFF7B9FF0EBC4243891A1847C04677
:102CA000002941D010B4041C4C40A446012300224A
:102CB000002900D54942002800D5404288422CD343
:102CC00001242407A14204D2814202D209011B013E
:102CD000F8E7E400A14204D2814202D249005B003D
:102CE000F8E7884201D3401A1A434C08A04202D3A5
:102CF000001B5C0822438C08A04202D3001B9C08E6
:102D00002243CC08A04202D3001BDC082243002847
:102D100003D01B0901D00909E3E7101C6446002C0D
:102D200000D5404210BC7047002806D003DB0020CD
:102D3000C043400801E08020000607B4024802A119
:102D40004018029003BDC046190000000029EBD0D6
:102D500003B5FFF7A7FF0EBC4243891A1847C046C8
:102D60007047C04600B50368002B00D01B18181C24
:102D700000BDC04600B503685A0003D45B005B0881
:102D8000C01800BD80210A061343F9E7F8B55F4675
:102D900056464D464446F0B4814690460D1E26D018
:102DA00001398B468A4600260AE0611CC800484467
:102DB000FFF7E0FF0138474513D8404517D2661C9E
:102DC000331C5344D80FC4186410E5004D44281C2C
:102DD000FFF7D0FF071CA345E7D10122504247452A
:102DE000EBD9B44202D0013CA246E9E70025281CF9
:102DF0003CBC90469946A246AB46F8BD30B52B4B3D
:102E000083B0041C8D1E002B4AD0281C01A900E0B1
:102E100000BF031E22D02A1C181C0199FFF7B6FF21
:102E2000051E1ED0281CFFF7A5FF6B68A064012BB0
:102E300010D0002B24DB281DFFF79CFF0023E0644B
:102E400023650368002B0FDBFFF794FF2061002050
:102E500003B030BD013B23610520F9E72061093053
:102E6000F6E725610920F3E71A01100F00280CD0BE
:102E700001280DD002280FD0002020610920E7E7AB
:102E8000281D0125E0642565DBE709492161DFE7AD
:102E9000084D01382561DBE7074B02382361D7E78E
:102EA000064B0749C81AC2100192B4E7000000009F
:102EB00045340000393400002D3400004C4D000032
:102EC000FC4E000010B50368041CDA0705D49A070D
:102ED0000FD5483000F05CFD23685A070FD51A075C
:102EE00014D5DA0604D48C208300E01800F05CFDD1
:102EF00010BD483000F048FD23685A07EFD4201C6D
:102F0000D03000F049FD23681A07EAD4201CB13004
:102F1000FF3000F045FD2368E3E7C046F0B55F46AB
:102F200056464D464446F0B4C3682F4C9946A544D6
:102F30008369051C161C0431402292AC93A89A4662
:102F400001F046FA0023216C281C98469293FFF763
:102F500055FF731E9E411023071C09369B461EE039
:102F6000A06B5B461E4360645346019300940120AE
:102F7000311C2A1C2B1CC847002823D1002F22D12A
:102F80009026201C02A9B20001F022FA08239845DD
:102F900022D1216C281CFFF731FF0926071C002FC6
:102FA000DED1216C902269619200211C02A801F0FF
:102FB0000FFA2B69301C291C02AA984780461098EA
:102FC0006064D1E70927094D381CAD443CBC9046EC
:102FD0009946A246AB46F0BD013B09379845F2D170
:102FE00093A800F0BBFCC04674FBFFFF8C040000FC
:102FF00038B5041C0D1C296C201CFFF7FFFE0028AF
:103000000AD1286C23696061211C01202A1C984781
:103010000828F0D0072801D000F02AFF281D00F072
:103020009DFCC04600B500290ED1002B12D10F2304
:1030300093428941494200290CD192008318586873
:10304000019A1060081C04E004228A428041404238
:10305000013000BD0220FCE700B585B003AB0A1CBF
:10306000002100930B1CFFF7DDFF039805B000BDA6
:1030700000B500290ED1002B12D10F2393428941B4
:10308000494200290CD1019B920080181A684260C5
:10309000081C04E004228A4280414042013000BD05
:1030A0000220FCE700B585B00B1C0392002103AAA7
:1030B00000921A1C0B1CFFF7DBFF05B000BDC046D9
:1030C000F0B55F4656464D464446F0B4CF6C9A463E
:1030D00008238BB0034093460393032208CF0C1CB4
:1030E00010400021009007978A4500D0D5E008A83D
:1030F00021260270009A190255466E4406913570D9
:10310000022A00D1D9E0206D0123034000D0DAE08B
:10311000009D02936B1E9D4104955D463E68002E06
:103120002FD002239A4500D18FE03B887E88043758
:103130009B46B946A06C0127311CB9430A18281CCC
:103140000F219046FFF788FF0023804505D85B4696
:10315000BB4343449842BF417B4201273E405A460D
:10316000BE403A401643BE4200D173E0002E0AD161
:10317000002B00D029E104210F1C4F443E68002E93
:10318000CFD1AB46A1E0022E07D009200BB03CBC4A
:1031900090469946A246AB46F0BD49460A6800985B
:1031A000560071088B46002800D0ACE0002B44D0BC
:1031B00000239B4502D0039F9F423ED10026B3458A
:1031C00000D1F7E0582004220319171C5946019337
:1031D0004F440026C90700D4BCE049460591A946E2
:1031E00013E00437AB4500D8CBE02E1C019D381C02
:1031F0000995FFF7B7FD4246011C09AB201C00E012
:1032000000BF002811D104370136019B381C0993F7
:10321000FFF7A8FD0022011C09AB201C00E000BF45
:1032200000228046751C9045DBD0059B4D46994693
:103230005E4500D1BEE04B461A68002A6EDB0122D3
:10324000101C584487004F4468E7B3467E6808372F
:10325000B9466FE70098002863D1002B19D04A4681
:103260005368484640C8991C00D18EE7221C58324A
:10327000099201330AD0FFF775FDF20F011C09AB6B
:10328000201C00E000BF002878D0099A002A00D056
:1032900090E008210F1C4F4440E7190C2126CAB2C8
:1032A0001D046E44022332709A40BF18009A08A889
:1032B00006950370022A00D025E7206D0123A76B35
:1032C000034000D124E70024029406A9584600F0E8
:1032D0000FFC011C0920002900D057E7029D01388E
:1032E000002D00D152E70F215846FFF7B5FE0E2101
:1032F000021C5846FFF7D6FE58460F214A4AFFF7F0
:10330000D1FE072042E7281C0D21266AFFF7A4FE04
:1033100086423CD049460A68002A90DA0423994440
:103320008DE7281C0D21266AFFF796FE8642B0D154
:10333000A76AB945ADD14846FFF71CFD0F21021C15
:10334000281CFFF7AFFE281C0021221CFFF7AAFE55
:1033500007201BE7019B381C0993FFF703FD321C74
:10336000011C09AB201C00E000BF002800D05FE773
:103370004A46043701260592A94646E7009B099371
:1033800087E7059AA84646464D46914650E7A36A08
:10339000994500D04FE70420002220635946484455
:1033A000E262A162904660634A461268424527DBAA
:1033B000029744E7281C0D21FFF74EFE2062099872
:1033C0004F466062A7620620E0E6049E002E00D110
:1033D000D1E64846FFF7CEFC4F460437A763AB461D
:1033E000051C201C00E000BF041C0920002C00D19B
:1033F000CCE658460F212A1CFFF754FE0720C5E6ED
:103400005E460136AA464F46B5007819FFF7B2FC72
:103410000F21021C5046FFF745FE50464146221C34
:10342000FFF740FE0720B1E60000000008B50223C8
:10343000FFF746FE08BDC04608B50123FFF740FE72
:1034400008BDC04608B50023FFF73AFE08BDC046D8
:10345000F0B55F4656464D464446F0B4041CE7B00E
:10346000161C0220042951D881405C4842589746D6
:103470000220002B4AD13604360CA36BF00701D58D
:1034800002CB6160B10701D520CBA560720701D5E1
:1034900080CBE760370701D504CB2261F00601D568
:1034A00001CB6061B10601D502CBA161720601D5E5
:1034B00020CBE561370601D580CB2762F00501D529
:1034C00004CB6262B10501D501CBA062720501D5C2
:1034D00002CBE162370501D520CB2563F00401D58D
:1034E00080CB676380229201324001D001CBA06380
:1034F000710401D502CBE16380273D022E4201D049
:1035000040CB26640020824200D1A36367B03CBC5C
:1035100090469946A246AB46F0BD0220032BF5D15A
:103520003304350C1E0C71191029EFD823680822BA
:10353000134200D03CE122A800F034FAA06B7600E0
:103540008446031C002E1DD0ED0004CB22AFED19E4
:10355000701E04C5002812D00122002A04D001CB1D
:1035600001C5B01E00280AD0191C80C92A1C80C2BF
:103570005F6802386F600B1D151D0028F4D1B6007E
:10358000331C634422A8A36300F00AFA0020BDE7BD
:10359000002B00D0E5E01033B34200D2E1E0226816
:1035A0001A4200D0F7E062A800F000FAA36BF70718
:1035B00001D520CB6295B00701D504CB639271078A
:1035C00001D502CB6491320701D580CB659762A803
:1035D000A36300F0E9F9002098E7C046D44B00004F
:1035E0005A1F511E8A41002A00D0BCE03004350C1D
:1035F000060CB146291C49442027012B00D1C8E004
:1036000002208F4200D281E75E1E774277410F266B
:10361000B846AE42BF417F42002F00D0C3E0BB4658
:10362000102900D9A4E00F2D0FD8226801210A42E9
:103630000BD08A432260052B00D1DCE002239A43A1
:10364000201C2260483000F0A1F90022934504D0EC
:1036500023680422134200D0BFE00020804500D040
:10366000C2E00F2D00D8B4E00026B34500D08AE0B8
:103670004E46A36B9A469946002E2ADD7600022715
:10368000B146EB0000AE524678429B1902CA061CB6
:103690004E4402C3701C18D00120002806D003211C
:1036A00080CA4E424E4480C3771C0ED0101C02C804
:1036B000023E8C466746191C80C152689446021D22
:1036C000604658600B1D711CF0D14A469300994624
:1036D000D1440026B3452FD05846400082462B1CCB
:1036E000102D00D21023103B022142AEDB004A46CF
:1036F0004F429B1901CA3E1C564401C3701C18D08E
:103700000120002806D0032180CA4E42564480C3BF
:10371000701C0ED0101C02C8023E8C466746191C55
:1037200080C152689446021D604658600B1D711C92
:10373000F0D15246930099440026B04540D14F46FF
:10374000A7630F2D02D8684600F022F958460028DA
:1037500000D1DBE642A800F01FF90020D6E60120E8
:10376000D4E60220D2E60220012B00D13EE7CDE6CE
:1037700010398B460026B34500D154E70220B242EF
:1037800000D0C3E64FE742A800F008F910214E1B15
:103790006FE7103F34E78C209A4383002260E018E3
:1037A00000F004F9FFE60021CB468845E2D0ADE603
:1037B000201C9343B1302360FF3000F0F3F8BAE6E9
:1037C0000420051C4D446846A56300F0DDF8002088
:1037D0009CE6684600F0DEF846E79343201C236031
:1037E000D03000F0DBF838E76846002700F0CEF86C
:1037F000BB45CBD13CE7033B1A43201C2260483039
:1038000000F0C8F821E7C046406C704770B5154C11
:10381000CD6BA5440D64041C0E1C01A8043140228C
:1038200000F0D6FD01204342009300E0109D201CD3
:10383000291CFFF7E3FA00280BD12569211C6A46F1
:10384000A847051C0828F1D06846FFF73BFB062D6A
:1038500004D0902189008D44092070BD201C311CAA
:10386000FFF7C6FBC0FDFFFF08B58261DA6BC160E0
:103870001A64191C0022FFF751FB08BD38B5041C5F
:10388000E36840690D1C0864002B05D00122201C50
:10389000FFF744FB00F0ECFA23690220211C2A1CEC
:1038A0009847072803D0082804D000F0E1FA281D23
:1038B00000F054F8201C291CFFF79AFB08B5C368D8
:1038C000002B05D0CA6B0A640022FFF727FB08BD56
:1038D000FFF79CFFFBE7C0467047C04608B583680A
:1038E000011C002B01D00120984708BD70B51A4C6F
:1038F000061CA544D46B0D1C1464111D01A84022A4
:1039000000F066FD01204342009302E0052818D034
:10391000109C90A8211CFFF771FA002819D1684665
:103920000C2190AAFFF7BEFB6846291CB04700286F
:103930000FD1949B083090A96A469847041C092827
:10394000E4D16846FFF7BEFAA62189008D44201C09
:1039500070BD0924F5E7C04668FDFFFF011C343146
:1039600038C9043B9C461D60A646011C20313CC959
:1039700090469946A246AB46011C0831FCC94168F5
:103980000068E54600BDC0467047C0467047C04667
:103990007047C0467047C0467047C0467047C04633
:1039A0007047C0467047C0467047C0467047C04623
:1039B00001B401A801B585B0FFB408A841464A4644
:1039C00053465C4665463EC001A83EC80F9800902D
:1039D00000230CB401A9FFF719FF109B12B0184780
:1039E00001B401A801B585B0FFB408A841464A4614
:1039F00053465C4665463EC001A83EC80F980090FD
:103A000000230CB401A9FFF739FF109B12B018472F
:103A100001B401A801B585B0FFB408A841464A46E3
:103A200053465C4665463EC001A83EC80F980090CC
:103A300000230CB401A9FFF741FF109B12B01847F7
:103A400001B401A801B585B0FFB408A841464A46B3
:103A500053465C4665463EC001A83EC80F9800909C
:103A600000230CB401ABFFF7FFFE109B12B0184708
:103A700001B401A801B585B0FFB408A841464A4683
:103A800053465C4665463EC001A83EC80F9800906C
:103A900000230CB401AAFFF729FF109B12B01847AE
:103AA00000B5027A031C002A0ED1427AB020002A07
:103AB00009D0013A58685A7204C803215860197233
:103AC000100E12021A6000BD013A02720268F7E796
:103AD00000B585B003AB002100930C220B1CFFF74F
:103AE000A1FA039805B000BD08B5FFF7F1FF08BDC6
:103AF000F0B55F4656464D464446F0B487B00D1CBF
:103B0000002103918022F023F831061C904699464B
:103B10008B46281CFFF7C4FF041CB02800D1ADE081
:103B2000434603409C4628D04B460340802B00D19F
:103B300071E0902B3CD0A02B57D0B02B00D183E06C
:103B4000C02B00D1AFE05B460340D02B0CD1072047
:103B500004407930020301342243301C0121CB3B65
:103B6000FFF776FC0028D4D0092407B0201C3CBC09
:103B700090469946A246AB46F0BD8700FF233B40E6
:103B800004339A4605AF6146301C0D226346009708
:103B9000FFF748FA610624D5059952468C1A059418
:103BA00000970021301C0D220B1CFFF761FAB0E7D3
:103BB0000F2202400F2AD7D0141C0D3C63425C41F7
:103BC000002CD1D105AF211C231C301C0097FFF71E
:103BD00029FA301C211C0D22231C0097FFF748FAFC
:103BE00097E7059850440590DAE707225F33824350
:103BF0001801011C11410A1C0240230702D5802430
:103C0000E3011A430021301C0B1CFFF721FC0028A4
:103C100000D17EE7A8E70402281CFFF741FF8023BC
:103C200004431F02BC429FD02405240C0021301CF9
:103C3000221C0B1CFFF70CFC002895D13C4200D144
:103C400067E70127039764E7B12871D0B22800D154
:103C50008BE0B3287ED0FC202040B42846D0072734
:103C60003C40793701343A0322430121301C0B1CBC
:103C7000FFF7EEFB002800D14BE775E70398B03C57
:103C8000A04200D071E705AD211C231C301C0E2280
:103C90000095FFF7C7F9301C211C0F22231C00954B
:103CA000FFF7E6F961E7C6282FD0C72800D185E0E5
:103CB0005B460340C02B00D192E0C82800D196E0BB
:103CC000C92800D050E7281CFFF7EAFE0F214B4619
:103CD000034008401F03421C3A43301C01210523C6
:103CE000FFF7B6FB002800D113E73DE7032214409D
:103CF0007D320134D20202212243301C0B1CFFF71B
:103D0000A7FB002800D104E72EE7281CFFF7C8FE18
:103D10000F244B46034020401903421C0A43032151
:103D2000301C0B1CFFF794FB002800D1F1E61BE7C9
:103D3000281CFFF7B5FE021E00D115E74B461340C5
:103D400000D011E7301C191CFFF782FB002800D1BE
:103D5000DFE609E7281CFFF7A3FE4B4603401C03E0
:103D60000F231840421C22437FE705A900918A4691
:103D700000210D220B1C301CFFF754F9281CFFF703
:103D80008FFE4246B03C10420CD07F27059A384047
:103D9000A04010180590281CFFF782FE4346073408
:103DA0001842F3D1059A81217F238F001840D11941
:103DB000A0400F18524605970092F2E6281CFFF724
:103DC0006FFE021E00D1CFE64B46134000D0CBE67B
:103DD000301C0421FFF73CFB002800D199E6C3E624
:103DE000B13B1C40A02001340203224397E7281C6A
:103DF000FFF756FE4A4602400F23184010320130AA
:103E0000120302430121301C0A3BFFF721FB00286B
:103E100000D17EE6A8E6C04600B5C26C85B0506809
:103E200001AB00020190101C0830029003201872B0
:103E3000D279081C5A72191CFFF75AFE05B000BD52
:103E400008B5FFF751FE806C08BDC04608B5FFF706
:103E50004BFEC36CD9791A1D01318800101808BDBA
:103E600008B500F005F8C04608B500F001F8C046F6
:103E700008B5062000F0CAFB012000F049FDC0464D
:103E800070B50D4D0D4E761BB610002E05D00024DA
:103E900008CD01349847A642FAD800F0A7FE084D95
:103EA000084E761BB610002E05D0002408CD013434
:103EB0009847A642FAD870BDF84B0000F84B0000B6
:103EC000F84B0000144C0000F0B55F4656464D46D6
:103ED0004446F0B40D1C0B3583B0071C162D2CD9AD
:103EE00007239D43EB0F8D422BD3002B29D1381C88
:103EF00000F0EAFA8B4B9D4227D8EA088A4ED3009D
:103F0000F318DC689C4200D1B6E163680322A16823
:103F10009343E268E318CA6091605A6801210A433A
:103F2000381C5A6000F0D2FA201C083003B03CBCA8
:103F300090469946A246AB46F0BD102500238D421F
:103F4000D3D20C233B600020F0E76B0A002B2BD070
:103F5000042B00D979E1AB0938339946D900724E68
:103F60007118CC68A14226D0626803208243531B9B
:103F70000F2B08DD1CE0E468A1421CD0626882437C
:103F8000531B0F2B14DC002BF5DBE368A168A21890
:103F9000CB609960536801210B43381C536000F0DB
:103FA00095FA201C0830C1E7E8088146C100D6E731
:103FB00001235B4299440124A144311C08318C68DF
:103FC000A14200D185E0626803239A43531B9346C4
:103FD0000F2B00DD42E1C9608960002B00DB9DE012
:103FE000524B9B4551D8D208931001209840D200E3
:103FF0007368B21803439068E260A060C460946084
:104000004C46A210012090407360984268D8184234
:104010000CD103229443221C0432400091461842E2
:1040200004D10422400091440342FAD0032398466D
:104030004C46E3009B199B469C46CA466246D468A0
:10404000A44507D10FE1002B00DB1EE1E468A44585
:1040500000D108E1626843469A43531B0F2BF2DDFF
:10406000012062190543A6686560E568F560AE60E9
:104070001843CA608A605060D1609160381CD35088
:1040800000F024FA201C083050E7530A042B00D912
:104090000EE19009383080464046C3009B199C468B
:1040A0009B68634500D117E15A680320824380462C
:1040B000934506D308E05868021C40468243934566
:1040C00002D29B689C45F6D1DA68E260A360DC60AE
:1040D00094604C46A210012073689040984296D993
:1040E000B468032263680F2193439A465B1BD80F81
:1040F000033A99424241D2B2002A19D1AA4517D3B4
:104100000122111C2943134365196160381CB560F5
:104110006B6000F0DBF9201C083007E7221C5A44D2
:1041200038E7C046F701000004000010FF0100005E
:10413000A348A4490368804610335B199B468B68EB
:104140008946013305D0A04A131C5B441B0B1B039B
:104150009B46381C594600F0BBF90190431C5CD0CB
:10416000221C5244824200D9A7E041464B685B447E
:104170004B60824200D1F4E049468968013100D1A8
:10418000FAE0C3189A1A43465A600723034000D145
:104190009FE00822D21A8018019080204001121856
:1041A0000199381C0B1C5B441B051B0DD31A191CF1
:1041B000994600F08DF9421C00D1E8E0019BC01A3D
:1041C0004844012318434246536801994B445360C5
:1041D000B1604860B44215D00F22924500D894E0F7
:1041E0000C204042021C0721606852448A43063971
:1041F0000140114361600520A118486088600F2AC2
:1042000000D9BCE04446E26A934200D9E3624046EA
:10421000026B934201D941460B63B4680323626881
:104220009A4392465246531B0021D80F0F228846CC
:104230009A424141C9B2414502D1AA4500D35FE744
:10424000381C00F043F9002070E6142B2CD9542BB5
:1042500036D82B0B6E339946D90080E601206219BF
:104260000543656004E70124A244524643461A42CE
:1042700051D00824A444E1E6231C646902320833C7
:104280009146A34200D198E63FE6A2185368012167
:104290000B435360E368A268381CD3609A6000F057
:1042A00015F9201C083041E65B339946D90056E6E3
:1042B000142B23D85B339846EEE6B442ADD154E7D5
:1042C000AA225200934211D8EB0B77339946D900BA
:1042D00045E68022520163E7424690100122824067
:1042E000101C7268024372601A1CEEE6374A934251
:1042F00029D8AB0C7C339946D90030E6542B27D80B
:104300005B46180B6E308046C6E601234B60013BCE
:104310000C1C9A4686E75B464C4600E0013C424650
:10432000144244D01A1C1B68083A9342F6D07368B2
:104330004000984200D9D3E6002800D1D0E60342DD
:1043400039D0D14674E6FC217E228900914606E6EA
:10435000AA20400083421ED85A46D00B77308046B0
:104360009AE61105002900D006E75946B268514483
:1043700001200143516045E74A46906005E7211C52
:104380000831381C00F0D2F941464B683AE7002169
:104390000120894617E70D4A7E20944680466345F2
:1043A00000D979E65B46980C7C30804674E67368E9
:1043B00083437360BBE70424A2444000BFE7C046C8
:1043C000580D001004040010FF0F000054050000F9
:1043D000F0B54F464646C0B4032A0BD8002A05D094
:1043E0000023CC5CC45401339342FAD10CBC9046F8
:1043F0009946F0BD8218031C032503E00C780131B7
:104400001C70013303242B42F8D10C4041D0E7004B
:10441000BC46042766423C1BE4008D59A1460BE0D4
:1044200004318F596446E540A8464C463D1CA540E2
:104430004446254320C33D1CD71A032FF0DC03E07C
:104440000C7801311C7001339342F9D3CEE70C682C
:104450001C604C685C608C689C60CC68DC600C699B
:104460001C614C695C618C699C61CC69DC610C6A83
:104470001C624C6A5C628C6A9C62CC6ADC620C6B6B
:104480001C634C6B5C638C6B9C63CC6B4031DC635A
:104490004033D41A3F2CDADC0AE00C681C604C680C
:1044A0005C608C689C60CC681031DC601033D41A7E
:1044B0000F2CF2DC0D1C03E00968043502C3D41A8A
:1044C000291C032CF8DCBFE77047C0467047C04684
:1044D00038B5074C0023051C2360081C00F0F8F9D0
:1044E000431C00D038BD2368002BFBD02B60F9E7BC
:1044F000900D001070B5B725AD004659041C002082
:10450000864200D070BD201C8021FFF7DDFC605189
:10451000002807D0021C031C8032301C01C39342C8
:10452000FCD1EFE701204042ECE7C046F8B5051C9E
:104530000C1C161C1F2909D8B727BF00C359002B14
:1045400009D0A4001B1918681E60F8BD162303606B
:1045500001204042F9E7FFF7CDFF002801D1EB59D8
:10456000EFE701204042F0E770B5061C0C1C1F2944
:1045700021D8B7239B00C358002B12D08A009A1869
:104580001368002B0DD00025012B04D0591C04D03A
:104590001560201C9847281C70BD17330360013537
:1045A000F9E7301C00F06EF8221C011C301C00F0F2
:1045B00055F8051CEFE71623012503606D42EAE775
:1045C00070B5051C0C1C1F2916D8B726B6008359D8
:1045D000002B14D0A2009A1813680120002B0AD0D7
:1045E0000018591C07D00130012B04D00025201CD5
:1045F00015609847281C70BD01204042FBE7FFF77B
:1046000079FF0028F8D1AB59E4E7C04608B5034B61
:10461000011C1868FFF7A8FF08BDC0461804001069
:1046200008B50A1C0349031C0868191CFFF77EFF24
:1046300008BDC0461804001008B5024B1868FFF703
:1046400059FF08BD1804001008B5034B011C186879
:10465000FFF7B6FF08BDC0461804001038B5084C77
:104660000023051C2360081C111C00F05BF9431C8F
:1046700000D038BD2368002BFBD02B60F9E7C04683
:10468000900D001008B500F045F908BDF8B50F1CF5
:10469000041CFFF719FF204D204AAB685E68032316
:1046A0009E43B318DF1B3F0B013F1D4B3F039F424F
:1046B00007DD201C0021FFF70BFFAB689B19984218
:1046C00004D0201CFFF702FF0020F8BD7942201C17
:1046D000FFF7FEFE01300DD0AB68F61B01252E431F
:1046E0005E60104B201C1A68D71B1F60FFF7EEFEA0
:1046F000281CEAE7201C0021FFF7EAFEAB68C21A7B
:104700000F2ADEDD08490968401A064908600121C0
:104710000A435A60D5E7C04604000010EF0F0000BE
:10472000FF0F00005C0D00100C040010F0B55746A0
:104730004E464546E0B4051C0C1E5DD0083CFFF714
:10474000C3FE60680121031C8B43E21857680326EF
:10475000B7435A4E8046B068844694456CD00020DA
:10476000844640465760084080460ED120688C46FB
:10477000241A1B18A068824608208019824504D09C
:10478000E1685046C1608860C446D119486801217B
:10479000084207D10020DB19844532D09068D268E6
:1047A000C26090600122111C194361600021E35036
:1047B0008C451ED142498B4230D95A0A042A54D81A
:1047C00099093831C80030188268824253D0516844
:1047D0000326B1438B4204D306E05168B1438B42B8
:1047E00002D292689042F8D1D368E360A260D460AC
:1047F0009C60281CFFF76AFE1CBC90469946A246A6
:10480000F0BD371C90680837B842C8D11943C4605E
:104810008460E060A0606160E350EAE7DB08991023
:104820008A407168DB000A437260F618B368E6607C
:10483000A360DC60B460DCE74246FB180A4206D1A4
:104840002268A41AA1689B18E268CA6091600122DC
:104850001A4362601B4AB46012689342C9D31A4B70
:10486000281C1968FFF712FFC3E7142A0CD8111C83
:104870005B31C800A7E7891001238B40191C7368BE
:1048800019437160131CB0E7542A03D8190B6E3119
:10489000C80098E7AA2149008A4203D8D90B77318A
:1048A000C80090E709498A4203D8990C7C31C800B6
:1048B00089E7FC2080007E2185E7C04604000010C7
:1048C000FF01000010040010580D001054050000F6
:1048D00070B50D4B1A68002A01D10C4A1A600A4DB6
:1048E000C61C2C6803239E43A619301C00F022F836
:1048F000002801D12E6005E000F04CF801240C23C3
:1049000003606442201C70BD940D0010980D0010CF
:1049100000B5FEE7024B5822012040421A60704762
:10492000900D0010024B5822012040421A6070473F
:10493000900D001000B5094A6B46934203D9984286
:1049400001D3012008E0064B002B01D1002003E039
:10495000002298425241101C00BDC046980D001024
:104960000000000000B5034B1A78002A01D1013283
:104970001A7000BD8C0D001008B504480368002BA8
:1049800003D0034B002B00D0984708BD4C08001003
:1049900000000000014B18687047C0461804001062
:1049A00043616E6E6F742064657465637420534454
:1049B00043617264000000006361726420696E6983
:1049C0007469616C697A65642E00000074657374A3
:1049D0002E776176000000004661696C6564207482
:1049E0006F206F70656E2E2E2E000000706C617946
:1049F0002073746172740000706C617920656E645C
:104A00002E0000002E150000381500004215000091
:104A10004C15000056150000601500001A15000026
:104A200024150000BC160000C6160000D0160000B9
:104A3000DA160000E4160000EE160000A8160000CA
:104A4000B2160000000000500000015000000250AB
:104A500000000350010000000400000001000000FD
:104A60000200000001000000100000000100000032
:104A700000080000010000008000000001000000AC
:104A800020000000030000000400000002000000FD
:104A900001000000010000004000000000000000D4
:104AA0000200000001000000000100000000000002
:104AB00008000000000000000400000003000000E7
:104AC00010000000000000001000000003000000C3
:104AD0002000000000000000200000000100000095
:104AE0008000000001000000000200000100000042
:104AF0000004000000000000400000000000000072
:104B0000000800000000000000010000010000009B
:104B10000100000000000000000200000000000092
:104B200080000000010000002000000002000000E2
:104B30000100000001000000400000000100000032
:104B400080000000000000000800000001000000DC
:104B5000000200000300000010000000020000003E
:104B60001000000002000000010000000200000030
:104B70000800000002000000040000000200000025
:104B8000020000000000000004000000000000001F
:104B90000002000000000000000100000000000012
:104BA0004000000030313233343536373839414235
:104BB0004344454600000000303132333435363747
:104BC00038390000303132333435363700000000D8
:104BD0003031000070340000E03500005E37000026
:104BE0001A3500009035000043000000F8B5C046BB
:104BF000F8BC08BC9E4670479515000025170000BC
:104C0000991900009D1C0000C51C0000051D000036
:104C100079490000F8B5C046F8BC08BC9E4670470C
:104C200080020181B0B0ABF0000000008001018182
:104C3000B0B0AB100000000008B10181B0B000843A
:104C40000000000008B10181B0B000840000000045
:104C500008B10181B0B000840000000008B10181FA
:104C6000B0B000840000000080010181B0B0AB1042
:104C70000000000080080181B0B0ABF0000000002F
:104C800080090181B0B0AB7000000000F0800181AC
:104C9000B0AB08B10000000080010181B0B0AB10E2
:104CA0000000000030800181B0AB08B100000000BE
:104CB000A2B20181ABF0800100000000800A0181F6
:104CC000B0B0ABF00000000008B10181B0B00084CA
:104CD0000000000008B10181B0B0008400000000B5
:104CE00008B10181B0B00084000000003F260181BE
:104CF000B0ABF0800000000008B10181B0B00084CA
:104D00000000000008B10181B0B000840000000084
:104D100008B10181B0B000840000000008B1018139
:104D2000B0B000840000000080060181B0B0ABF09C
:104D30000000000008B10181B0B000840000000054
:0C4D400008B10181B0B000840000000048
:104D4C0088C3FF7F0100000094C3FF7FB0B0AA802E
:104D5C00ECC3FF7F010000008CC4FF7FAB10808090
:104D6C0020C5FF7FA908B180A8C5FF7FA8FEFF7FE3
:104D7C0098C6FF7F01000000D8C6FF7FA4FEFF7F0E
:104D8C00F4C7FF7FA8FEFF7F00C8FF7F0100000073
:104D9C0070C8FF7FB0AB02806CC9FF7F9CFEFF7FA9
:104DAC0078C9FF7F0100000030CAFF7F98FEFF7FAB
:104DBC0050CAFF7F0100000010CCFF7F94FEFF7FE4
:104DCC001CCCFF7F0100000008CFFF7FB0B0A88093
:104DDC0024CFFF7F0100000040CFFF7F80FEFF7FCC
:104DEC0030D0FF7F84FEFF7F68D3FF7F88FEFF7F7C
:104DFC00A4D5FF7FB0A9108010D6FF7F84FEFF7F63
:104E0C000CD7FF7FAB1080803CD8FF7F80FEFF7FEC
:104E1C001CDBFF7F84FEFF7FE0DDFF7F01000000D5
:104E2C00D0DFFF7FB0A9028090E0FF7FB0B0A880F8
:104E3C00E0E0FF7F70FEFF7FACE1FF7FA908B1804F
:104E4C00D8E1FF7F010000006CE2FF7F64FEFF7F72
:104E5C00D0E5FF7F68FEFF7FD4E5FF7F6CFEFF7F10
:104E6C00D8E5FF7F70FEFF7FDCE5FF7F74FEFF7FE0
:104E7C008CE9FF7F0100000088E9FF7FAA0FB28058
:104E8C00DCE9FF7F68FEFF7FE8E9FF7FA908B180BE
:104E9C0020EAFF7F64FEFF7F34EAFF7F0100000001
:104EAC0030EAFF7F60FEFF7F38EAFF7FAA25B280E1
:104EBC00A0EAFF7F010000000CECFF7F008404805F
:104ECC001CECFF7F4CFEFF7F1CECFF7F50FEFF7F36
:104EDC003CEFFF7F008404805CEFFF7F4CFEFF7F84
:104EEC0060EFFF7F50FEFF7F6CEFFF7F0100000043
:104EFC00006CDC0200000000000000000400001048
:104F0C00040000100C0000100C0000101400001025
:104F1C00140000101C0000101C00001024000010D5
:104F2C00240000102C0000102C0000103400001085
:104F3C00340000103C0000103C0000104400001035
:104F4C00440000104C0000104C00001054000010E5
:104F5C00540000105C0000105C0000106400001095
:104F6C00640000106C0000106C0000107400001045
:104F7C00740000107C0000107C00001084000010F5
:104F8C00840000108C0000108C00001094000010A5
:104F9C00940000109C0000109C000010A400001055
:104FAC00A4000010AC000010AC000010B400001005
:104FBC00B4000010BC000010BC000010C4000010B5
:104FCC00C4000010CC000010CC000010D400001065
:104FDC00D4000010DC000010DC000010E400001015
:104FEC00E4000010EC000010EC000010F4000010C5
:104FFC00F4000010FC000010FC0000100401001074
:10500C00040100100C0100100C0100101401001020
:10501C00140100101C0100101C01001024010010D0
:10502C00240100102C0100102C0100103401001080
:10503C00340100103C0100103C0100104401001030
:10504C00440100104C0100104C01001054010010E0
:10505C00540100105C0100105C0100106401001090
:10506C00640100106C0100106C0100107401001040
:10507C00740100107C0100107C01001084010010F0
:10508C00840100108C0100108C01001094010010A0
:10509C00940100109C0100109C010010A401001050
:1050AC00A4010010AC010010AC010010B401001000
:1050BC00B4010010BC010010BC010010C4010010B0
:1050CC00C4010010CC010010CC010010D401001060
:1050DC00D4010010DC010010DC010010E401001010
:1050EC00E4010010EC010010EC010010F4010010C0
:1050FC00F4010010FC010010FC010010040200106F
:10510C00040200100C0200100C020010140200101B
:10511C00140200101C0200101C02001024020010CB
:10512C00240200102C0200102C020010340200107B
:10513C00340200103C0200103C020010440200102B
:10514C00440200104C0200104C02001054020010DB
:10515C00540200105C0200105C020010640200108B
:10516C00640200106C0200106C020010740200103B
:10517C00740200107C0200107C02001084020010EB
:10518C00840200108C0200108C020010940200109B
:10519C00940200109C0200109C020010A40200104B
:1051AC00A4020010AC020010AC020010B4020010FB
:1051BC00B4020010BC020010BC020010C4020010AB
:1051CC00C4020010CC020010CC020010D40200105B
:1051DC00D4020010DC020010DC020010E40200100B
:1051EC00E4020010EC020010EC020010F4020010BB
:1051FC00F4020010FC020010FC020010040300106A
:10520C00040300100C0300100C0300101403001016
:10521C00140300101C0300101C03001024030010C6
:10522C00240300102C0300102C0300103403001076
:10523C00340300103C0300103C0300104403001026
:10524C00440300104C0300104C03001054030010D6
:10525C00540300105C0300105C0300106403001086
:10526C00640300106C0300106C0300107403001036
:10527C00740300107C0300107C03001084030010E6
:10528C00840300108C0300108C0300109403001096
:10529C00940300109C0300109C030010A403001046
:1052AC00A4030010AC030010AC030010B4030010F6
:1052BC00B4030010BC030010BC030010C4030010A6
:1052CC00C4030010CC030010CC030010D403001056
:1052DC00D4030010DC030010DC030010E403001006
:1052EC00E4030010EC030010EC030010F4030010B6
:1052FC00F4030010FC030010FC030010FFFFFFFF81
:10530C00000002000000000020040010000000005B
:10531C00000000000C07001074070010DC070010E0
:10532C000000000000000000000000000000000071
:10533C000000000000000000000000000000000061
:10534C0000000000E84B000000000000000000001E
:10535C000000000000000000000000000000000041
:10536C000000000000000000000000000000000031
:10537C000000000000000000000000000000000021
:10538C000000000000000000000000000000000011
:10539C000000000000000000000000000000000001
:1053AC0000000000000000000000000000000000F1
:1053BC0000000000000000000100000000000000E0
:1053CC000E33CDAB34126DE6ECDE05000B000000A5
:1053DC0000000000000000000000000000000000C1
:1053EC0000000000000000000000000000000000B1
:1053FC0000000000000000000000000000000000A1
:10540C000000000000000000000000000000000090
:04000003000010E900
:00000001FF
