:10100000E01F00100D110000D5100000D9100000E5
:1010100000000000000000000000000000000000D0
:10102000000000000000000000000000DD100000D3
:101030000000000000000000E1100000952B0000FF
:101040005111000051110000511100005111000018
:101050005111000051110000511100005111000008
:1010600051110000511100005111000051110000F8
:1010700051110000511100005111000051110000E8
:10108000511100005111000051110000712B00009E
:10109000511100005111000000000000000000008C
:1010A000511100005111000051110000000000001A
:1010B000A52E00009D2E0000952E00008D2E000014
:1010C0005858000000000010340C0000340C0010D0
:1010D0000802000000B5FEE700B5FEE700B5FEE738
:1010E00000B5FEE700B5FEE710B5002302E01C588E
:1010F000043310C19342FAD310BD00B5002302E0BF
:10110000002204C004338B42FAD300BD10B50D4C4D
:1011100005E020686168A2680C34FFF7E5FF0A4B20
:101120009C42F6D304E0206861680834FFF7E5FFCD
:10113000064B9C42F7D301F0E9FE03F015F901F0EC
:10114000DBFEFEE7C0100000CC100000D410000051
:1011500000B5FEE700207047002070470818704770
:1011600000207047C317C0185840704700B5031CD3
:10117000994200DD011C081C00BD00B5031C99420A
:1011800000DA011C081C00BD08B501F0CDFC0020F0
:1011900008BD000010B5041C211C03480A2201F000
:1011A0000DFB201C10BDC046400D001008B5C9B293
:1011B00001F022FD002008BD08B501F0C1FC08BD0A
:1011C00008B5C9B201F0A8FD002008BD08B501F0BE
:1011D000D3FD08BD10B50D4C9621201C890101F0EE
:1011E000F3FE201C0A4901F0E0FA201C094901F035
:1011F000DCFA201C084901F0D8FA084A084B201CE8
:101200001A60084901F0D1FA10BDC046400D001027
:1012100058500000805000008E5000000000001068
:10122000340C0010BE50000008B5024801F00CFF5D
:1012300008BDC046400D001008B5024801F00CFF83
:1012400008BDC046400D001008B501F06DFC08BD9A
:10125000F7B5061C0191051C254F381C01F0F4FE62
:10126000002829DD381C01F0F7FEC4B20A2C08D191
:10127000B54206D11F4B1A780D2A15D10A3C1C70B5
:101280001AE0082C10D11A4F211C381C01F082FEE4
:10129000381C202101F07EFE013D381C211C01F08C
:1012A00079FEB54207D307E01148211C01F072FE18
:1012B0002C70013500E0351C0D2C07D00A2C05D010
:1012C000032C03D0019AAB1B9342C5D3094B1C706E
:1012D0000D2C04D16B1E0A211970054803E00A2C5D
:1012E00003D103480D2101F055FE00232B70F7BDFB
:1012F000400D0010AC0C001008B5011C014801F0B5
:10130000A1F908BD400D001008B5011C014801F00D
:101310004CFA08BD400D001008B5011C014801F051
:1013200039FE08BD400D001008B5031C0A1C024818
:10133000191C01F02BFA08BD400D001008B5024B36
:10134000186803F029FC08BD340C001008B5031C14
:1013500006485A1C03D00A2B03D0054902E0054970
:1013600000E0054901F021FA08BDC046400D00101B
:10137000CE500000C1500000DB500000F0B589B035
:10138000041C029246182578B4420BD2002D09D0D5
:10139000092D05D0202D03D00D2D01D00A2D01D10E
:1013A0000134F0E7B44201D0002D01D10123B8E1AE
:1013B000282D2CD101342378B44205D2002B03D040
:1013C000092BF7D0202BF5D0201C292B00D19FE32F
:1013D000002B00D19CE3012312E00134282A01D123
:1013E00001330DE0292A0BD1013B002B08D1C14369
:1013F000611807AAFFF7C2FF051E00D08CE37EE14B
:101400002278B44200D383E3002AE6D180E3212D81
:1014100003D163783D2B4DD005E07E2D03D02D2DDB
:1014200001D02B2D46D101342278B44205D2002AB6
:1014300003D0092AF7D0202AF5D0201CB44200D1CD
:1014400066E353425A41002A00D061E306E00132CC
:1014500003E0293B59424B41D21A01342378B4426C
:1014600010D2002B0ED0002A09DC2D2B0AD02B2BFA
:1014700008D03E2B06D03C2B04D03D2B02D0282B8D
:10148000E7D1E4E7211A07AAFFF778FF002800D088
:101490003EE3212D03D1079B5A42534158E07E2D54
:1014A00002D1079BDB4353E02D2D00D027E1079BA2
:1014B0005B424DE02A1C303A0023092A51D8302DD6
:1014C0003CD16278782A28D10793023409E01B01C5
:1014D000C31805E01B01573A01E01B01373AD31846
:1014E00001342278B44233D2002A31D0101C303873
:1014F000C5B200210927AF424941151C613D052DA8
:1015000008D90029E3D1111C41390529E5D90793F0
:10151000083FF5E00029DAD1DCE7622A0ED1079313
:1015200002342278B44213D2002A11D0303AD1B218
:1015300001290DD85B00D3180134F2E70793227814
:10154000B44205D2002A03D02F2A01D9392A01D961
:101550000793D4E09900CB185B00303AD3180134DC
:10156000EDE7291C6139C9B219228A425B41291C65
:101570004139C9B28A4201D2002B16D061781922B2
:101580000F1C413FFFB2601CBA420ED26139C9B292
:101590008A420AD22F1C413F002B00D0203FA34B90
:1015A000BA00D358041C0793ABE0A14D00270435C3
:1015B0002A68331B0192934200DAB0E22B1F1868AD
:1015C000211C032203F0F0FA002800D0A7E27B00E0
:1015D000DF19974BBF00DF19BB680793019BE41825
:1015E000944B1D1D2F68331BBB422BDB2B1F186830
:1015F000211C3A1C03F0D8FA002823D1E419201C3E
:10160000012306E0013303E0293A51424A419B1A83
:1016100001342278B44206D2002A04D0002B05D02F
:10162000282AF1D1EEE7002B00DD71E2C1436118F9
:1016300006AAFFF7A3FE002800D069E26B680698AF
:10164000984707907C490C358D42CBD17B4B1D1DB3
:101650002F68331BBB424EDB2B1F1868211C3A1C22
:1016600003F0A2FA002846D1E419271C021C06E068
:10167000013203E0293B59424B41D21A01373B78F2
:10168000B74208D2002B06D0002A01D12C2B05D05E
:10169000282BEFD1ECE72C2B00D039E2391B201C92
:1016A00006AAFFF76BFE002800D031E2781C041C6C
:1016B000012306E0013303E0293A51424A419B1AD3
:1016C00001342278B44206D2002A04D0002B05D07F
:1016D000282AF1D1EEE7002B00DD19E2C1436118A1
:1016E00005AAFFF74BFE002800D011E26B680698B0
:1016F000059998470790524A0C359542A8D1012781
:101700007F422378B44207D2002B05D0092B01D0A9
:10171000202B01D10134F4E7B44201D0002B04D1D5
:10172000079B029900250B60F6E13D2B00D0AEE04F
:101730006278631C3D2A00D1A9E01C1C2378B442C6
:1017400007D2002B05D0092B01D0202B01D1013469
:10175000F4E7201CB44200D1DAE15A425341002B95
:1017600007D0D5E1013303E0293A51424A419B1A9F
:1017700001342278B4420CD2002A0AD0002B05DCB6
:101780003D2A03D162783D2AF2D102E0282AEBD12A
:10179000E8E7211A05AAFFF7F1FD051E00D0BBE11D
:1017A000672F00D9B6E1059B204ABF00BB500793C5
:1017B0002278002A00D1A8E1B44268D1A5E1002A2C
:1017C00003D0092A6AD0202A68D0201CB44200D154
:1017D0009EE153425A41002A07D099E1013203E0C9
:1017E000293B59424B41D21A01342378B44229D2C1
:1017F000002B27D0002A15DC2F2B23D02A2B21D019
:10180000252B1FD02B2B1DD02D2B1BD03E2B19D0C1
:101810003C2B17D03D2B03D163783D2BE4D111E055
:10182000212B0FD0282BDBD1D8E7C046380C001075
:10183000BC4F0000045000005C500000744F0000DA
:10184000C04F0000211A05AAFFF798FD051E00D021
:1018500062E12A2F04D02F2F07D0252F10D10AE0C4
:10186000079B059A534307930AE00798059901F0EF
:101870008BFC079004E00798059901F0DBFC0791C9
:101880002378002B00D118E1B44200D115E127786C
:101890002F2F03D02A2F01D0252F04D101342278F5
:1018A000B44292D28BE7201C2D2F01D02B2F2FD1A9
:1018B000002206E0013203E0293B59424B41D21A93
:1018C00001342378B4420ED2002B0CD0002A07DC5E
:1018D0003C2B08D03E2B06D03D2B04D0212B02D030
:1018E000282BE9D1E6E7002A00D011E1211A05AA48
:1018F000FFF744FD051E00D00EE1079B059AD318A3
:1019000007932278002A00D1FFE0B44200D1FCE026
:10191000237801933C2B09D03E2B07D03D2B02D0DE
:10192000019921297AD163783D2B77D1601C6478A5
:101930000027231C03943C3B02223C1C9A427C411E
:101940000419201C06E0013703E0293B5A425341A9
:10195000FF1A01342378B4420CD2002B0AD0002F96
:1019600005DC5E2B06D0262B04D07C2B02D0282B46
:10197000EBD1E8E7002F00D0CAE0211A05AAFFF753
:10198000FDFC051E00D0C7E0019A3E2A12D1039942
:10199000079A059B3D2904D1D017D90F9A42484197
:1019A00014E003993E2901D11A4115E001219A4220
:1019B00018DC16E0019A3C2A16D10399079A059B78
:1019C0003D2905D1D00FD91793424841031C1FE090
:1019D00003993C2902D19A40131C19E001219A4233
:1019E00000DB391C079114E0039A3D2A11D1019BB9
:1019F0003D2B05D1079A059BD31A5A42534107E064
:101A00000199212905D1079A059BD31A5A1E9341A2
:101A100007932378002B77D0B44275D02778262FF0
:101A200003D16378262B4CD007E07C2F03D1637859
:101A30007C2B46D001E05E2F43D10134201C0023D3
:101A400006E0013303E0293A51424A419B1A01342E
:101A50002278B44212D2002A10D0002B0BDC262AA6
:101A600003D16278262AF2D108E07C2A03D1627879
:101A70007C2AECD102E0282AE3D0E4E7002B47D10E
:101A8000211A05AAFFF77AFC051E45D1262F03D19E
:101A9000059A079B13400AE07C2F03D1059B079A08
:101AA000134304E05E2F03D1059B079A534007932D
:101AB0002378002B01D0B44203D1079B02990B601D
:101AC0002AE02778262F03D16378262B05D021E042
:101AD0007C2F1FD163787C2B1CD1A01C311A05AA46
:101AE000FFF74CFC051E17D1079A262F03D12B1C9C
:101AF000002A08D004E07C2F06D10123002A02D15D
:101B0000059B5A1E93410793079B029A136003E0BB
:101B1000022500E003256D4209B0281CF0BD013705
:101B20000C35062F00D043E55AE5C04600B50378D2
:101B300088420BD2002B09D0092B05D0202B03D0D3
:101B40000D2B01D00A2B01D10130F0E700BD0000C0
:101B500010B5504B96B01B68002B15D14E4B186832
:101B6000002801DDFFF770FBFFF75EFB002869D05E
:101B7000FFF762FBC3B20A20032B63D04748FFF78D
:101B8000C3FB444B01221A603E20FFF7C5FB6846A9
:101B90005021FFF75DFB6A461378032B51D068464E
:101BA00002F0FAFF6A46441E00231355107898424B
:101BB00048D068463A4902F0DDFF002805D0684663
:101BC000384902F0D7FF00283ED1324B0020186080
:101BD000354B01221A60F9322F4B52001A6031E066
:101BE0006846324902F0C6FF002834D10020294B54
:101BF0001EE068462E4902F0BDFF002832D1254B79
:101C000000201860284B01221A6010E0684629491C
:101C100002F0B0FF002805D06846274902F0AAFF6D
:101C2000002826D11B4B002018601F4B18601A4B50
:101C3000186007E0FFF78AFBA6E71598FFF7AAFAF6
:101C4000A2E70A2016B010BD68461C4902F092FFB8
:101C50000028CBD0C4E76846194902F08BFF002862
:101C6000CDD0C6E76846174902F084FF0028CDD1E1
:101C7000E7E700AB19196846FFF758FF041C02F0AC
:101C80008BFF15AA011C201CFFF778FB0028D1D17F
:101C9000D3E7C046A00C0010A80C0010E3500000D1
:101CA000EA500000EC500000A40C0010F4500000BA
:101CB000FD500000465100004C510000035100004F
:101CC000E150000005510000F0B58BB04618051C2E
:101CD000281C311CFFF72AFF0378051C5A42534188
:101CE000002B00D046E3B0425B41002B00D041E323
:101CF000A049082202F058FF00280AD12B7A202B95
:101D00001BD03B2B19D0092B17D00D2B15D00A2B2C
:101D100013D0281C9849052202F046FF002800D065
:101D20002EE36B79202B08D03B2B06D0092B04D057
:101D30000D2B02D00A2B00D022E3281C8D4908224B
:101D400002F032FF002803D1281C0830012401E0F2
:101D5000681D0024311CFFF7E9FE03783B2B00D0FF
:101D6000B9E102231C1B08E36B79202B1BD0282B25
:101D700019D0092B17D00D2B15D00A2B13D0281CE6
:101D80007E49022202F010FF002800D001E3AB7868
:101D9000202B08D0282B06D0092B04D00D2B02D0E5
:101DA0000A2B00D0F5E2281C7549052202F0FCFE42
:101DB000002803D101226C1D029202E00023AC1C1A
:101DC0000293201C311CFFF7B1FE0378282B02D0B0
:101DD000201C1421E9E1471C01970123391C07E06D
:101DE000013304E0292A02D1013B002B0FD001313D
:101DF0000A78B14201D2002A03D10191292A07D0E1
:101E000002E0282AEED1EBE7019A111B7DE0019157
:101E10000198311C0130FFF789FE0390027853428C
:101E20005A41002A05D1B0425241002A01D1011C79
:101E30000AE0039B191B68E0013204E07D2B02D10C
:101E4000013A002A0ED001310B78B1420AD2002BA0
:101E500008D0002A03DC3B2B04D07D2B02D07B2B47
:101E6000ECD1E9E7B14208D2002B06D07D2B01D09E
:101E70003B2B02D1002A00DC94E2091B45E0281C20
:101E80004049042202F090FE002800D0ACE02B79FB
:101E9000281D202B08D07B2B06D0092B04D00D2B1E
:101EA00002D00A2B00D09FE0311CFFF73FFE0278E2
:101EB00053425A41002A05D1B0425241002A01D171
:101EC000051C09E0011B20E0013204E07D2B02D15A
:101ED000013A002A0ED001352B78B5420AD2002BE8
:101EE00008D0002A03DC3B2B04D07D2B02D07B2BB7
:101EF000ECD1E9E7B54207D2002B05D07D2B01D00C
:101F00003B2B01D1002A6DDD291B201C4DE11E4B0E
:101F10001B68002B0AD01D48FFF7EEF9019A381C08
:101F2000D11BFFF701FA1A48FFF7E6F9FFF710FE99
:101F3000002800D020E2019B381CDC1B211C09AAD0
:101F4000FFF71CFA002800D016E2124B1B68002B8A
:101F500003D10D4B1B68002B28D0381C211CFFF728
:101F6000E3F90D48FFF7C8F9099B002B18D00B487F
:101F700017E0C046F4500000125100001851000054
:101F80001B51000021510000A00C00102651000040
:101F90002E510000A40C0010315100000751000028
:101FA0008448FFF7A9F98448FFF7AEF9099B002B95
:101FB00000D1D9E1814B1B68002B03D1804B1B68FA
:101FC000002B04D0FFF7C4FD002800D0D4E1039B10
:101FD000049A181CD11AFFF777FE0128ABD002280B
:101FE000A6D1C1E107950290744B1B68002B03D169
:101FF000734B1B68002B0AD07248FFF77DF9019ADA
:10200000381CD11BFFF790F96F48FFF775F9019B5A
:10201000381CD91B09AAFFF7B1F9684B00280AD070
:102020001B68041C002B00D099E1654B1B68002B3A
:1020300000D1A2E193E11B68002B03D1604B1B6828
:10204000002B0DD06148FFF757F9099B002B01D0F9
:102050005F4800E05748FFF74FF95748FFF754F93A
:10206000099B002B04D0039B049A181CD11A06E08C
:10207000029A002A00D177E1079B101C991AFFF7FA
:1020800023FE002800D16FE176E1EB78E81C202BDD
:1020900008D0282B06D0092B04D00D2B02D00A2BF8
:1020A00000D08AE1311CFFF741FD0378282B12D1C3
:1020B0000130311CFFF73AFD041C071C3B78B74286
:1020C00005D2002B03D03B2B01D00137F6E7B742F6
:1020D00001D2002B01D1281C7BE6781C311CFFF7B4
:1020E00025FD03900190021C1378B24205D2002B0B
:1020F00003D03B2B01D00132F6E70192B24201D26C
:10210000002B01D1019A22E00198311C0130FFF728
:102110000DFD012304900290011C07E0013304E04F
:10212000292A02D1013B002B08D001310A78B142A3
:1021300004D2002A02D0282AF2D1EFE70291B1425C
:1021400004D2534253410693002B02D0029A511BF2
:102150002AE00298311C0130FFF7E8FC069A05904E
:10216000011C07E0013204E07D2B02D1013A002A74
:102170000ED001310B78B1420AD2002B08D0002AD0
:1021800003DC3B2B04D07D2B02D07B2BECD1E9E789
:10219000B14208D2002B06D07D2B01D03B2B02D1BF
:1021A000002A00DC10E1491B281C0224FFF7BCF8C0
:1021B0006442E2E00C51000030510000A40C001019
:1021C000A00C0010345100003951000031510000C2
:1021D00007510000834B1B68002B1BD08248FFF780
:1021E0008BF8391B201CFFF79FF88048FFF784F815
:1021F000039A019B101C991AFFF796F87B48FFF78A
:102200007BF8049A029B101C991AFFF78DF8784806
:10221000FFF772F8FFF79CFC002800D0ACE0754B8C
:102220001B68002B03D16F4B1B68002B06D0201CB2
:10223000391BFFF779F87048FFF766F8391B201C47
:1022400009AAFFF79BF8002800D095E0FFF780FC73
:10225000002800D090E0039A019B101C9C1A211CBE
:1022600009AAFFF78BF8002800D085E0614B1B68B6
:10227000002B03D15B4B1B68002B11D00398211C52
:10228000FFF752F85D48FFF737F8099B002B01D0A4
:102290005B4800E05B48FFF72FF85748FFF734F83A
:1022A000099B002B60D0534B1B68002B03D14D4B77
:1022B0001B68002B03D0FFF74BFC00285CD1059B6B
:1022C000E91A181CFFF700FD002804D0012802D0ED
:1022D000022849D050E0029A049BD41A181C211CF1
:1022E00009AAFFF74BF8002846D1424B1B68002B88
:1022F00003D13C4B1B68002BADD00498211CFFF789
:1023000013F83D48FFF700F8A5E70135E0E43B7816
:10231000B74205D2002B03D03B2B01D00137F6E7A3
:10232000344B1B68002B0CD02220FEF7F5FF791BE5
:10233000281CFEF7F9FF2220FEF7EEFF0A20FEF729
:10234000EBFF7A1B0192111C281C09AAFFF716F853
:10235000002808D0041C0199281CFEF7E5FF264838
:10236000FEF7D2FF09E07D1CFFF7F2FB002800D149
:10237000AEE401E0002400E0041C0BB0201CF0BD22
:10238000281C2149052202F00FFC002800D1EBE4B3
:10239000F5E4281C1D49032202F006FC002800D1A8
:1023A00073E60AE001310491081C311CFFF7BEFB03
:1023B000029B051C002B0ED161E52B787D2BA4D050
:1023C0002F1C7B2BA3D1A0E70A4B4D1C1B68002BB5
:1023D00000D1FFE602E7074B1B68002B00D196E512
:1023E00099E5C046A00C00103B510000415100008F
:1023F0002E510000A40C001030510000315100009B
:10240000075100000C5100001B5100004451000016
:1024100038B5041C051C0BE00A2B01D00D2B06D18E
:10242000211AFEF781FF0548FEF76EFF281C0134D4
:1024300023780135002BEFD138BDC0463051000064
:1024400070B596B00720012100F0D6FB07200121CE
:1024500000F062FC50216846FEF7FAFE684602F082
:102460009BFB00AA0138111800236A4613546846E2
:10247000FFF75CFB0378002B00D1B1E068465949B7
:10248000072202F091FB002808D1574B0122186067
:10249000564B1A60F9325200554B77E06846554961
:1024A000072202F081FB002800D196E068465249DD
:1024B000052202F079FB002805D14B4B0122186060
:1024C0004A4B1A6056E068464C49042202F06CFB05
:1024D000002804D14A4B1868FFF79AFF7DE0684650
:1024E0004849062202F060FB002876D0684646493B
:1024F000042202F059FB002831D1414B434C1860B3
:102500001FE068465021FEF7A3FE684640490322BB
:1025100002F04AFB3D4D002803D1394B20701D606D
:1025200012E0684602F038FB631B1818B0420BD863
:10253000201C694602F028FB281C02F02DFB2C18F9
:10254000601B344EB042DCD92D4C2568002D44D19F
:102550003148FEF7D9FE2D4B1D7023603DE06846E3
:102560002E49032202F020FB002806D11E4B1860E2
:102570001E4B18601E4B186009E06846284904226B
:1025800002F012FB00280ED1174B01221A601C4BDF
:102590001C68201C02F000FB011C201CFFF794FBB0
:1025A00000281AD013E068461E49042202F0FCFA03
:1025B000002802D1FEF7C2FE0FE0684602F0ECFAF6
:1025C00015AA011C6846FEF7D9FE002802D0FEF7C6
:1025D000BDFE02E01598FEF7DDFD1348FEF794FE00
:1025E00016B070BDEC500000A00C0010A40C001040
:1025F000A80C001048510000FD5000005051000090
:10260000340C0010555100005C5100000000001017
:1026100061510000E7030000655100004C510000CB
:102620007A5100007F510000BE50000010B50368D1
:10263000041C1B680D2198472368201C1B680A2175
:10264000984710BD38B5041C0D1C04E02368201CFD
:102650001B689847013529780029F7D138BD00005B
:10266000F0B589B0071C0C1C012A04D10368C9B25B
:102670001B6898477AE00026B14204DA2D236946A8
:102680000B7064420136082A0BD002D8022A5BD1B3
:1026900009E00A2A03D0351C102A55D151E0351C17
:1026A0003AE0351C27E0351C10E0314B2340002B6D
:1026B00004DA0222013B5242134301332D4AD35C18
:1026C0006A465355E30F1C1901356410002CECD1F8
:1026D0003BE0294B2340002B04DA0822013B524205
:1026E00013430133254A6946D35C4B55E3175B0F0F
:1026F0001C190135E410002CEBD126E0201C0A2126
:1027000000F098FD1E4B6A465B5C201C53550A2165
:1027100000F03AFD0135041C002CEFD115E0194BF7
:102720002340002B04DA1022013B524213430133B1
:10273000154A6946D35C4B55E3171B0F1C1901352D
:102740002411002CEBD100E0351C00236A465355C0
:1027500005E069468B5D4A5D8A554B550136013D62
:10276000AE42F6DB381C6946FFF76CFF09B0F0BDDE
:10277000010000803D52000007000080345200003C
:10278000295200000F00008018520000F8B5041C08
:102790000E1C171C002505E02368715D1B68201CBA
:1027A00098470135BD42F7DBF8BD10B5041CFFF7B3
:1027B00049FF2368201C5B68984710BD10B5041CB6
:1027C000FFF74EFF2368201C5B68984710BD7047D9
:1027D000416070474170704781707047F0B585B0B7
:1027E000041C0E1C70200121344D171C019300F0B5
:1027F00003FA0023EB617020012100F08DFA304ACA
:102800000223002C04D0012C02D114602C6701E0BB
:102810001360EB64012211236A662B66294B596809
:10282000114359600433D86F802109010143D967EE
:1028300025490A600B1C072E15D8301C00F04CFCF3
:10284000050407090B0D0F1102221A600DE0042286
:10285000FBE70822F9E71022F7E72022F5E74022FC
:10286000F3E78022F1E704230B60032F0CD8381C18
:1028700000F032FC02040608002304E0012302E019
:10288000022300E003230393039A104B92011A6082
:1028900001991A6801390A431A6080200C4A022102
:1028A000400319611060C52088401458FF25AC43CF
:1028B0003F3D2C4305B014505960F0BD004004402A
:1028C000B040044000800440948004400000044074
:1028D00000E100E008B5031C9978DA7800785B68BD
:1028E000FFF77CFF08BD38B5002508230221041C32
:1028F000436005704570C5708170FFF76DFF201C47
:102900006168FFF765FF291C201CFFF763FF201C8F
:10291000FFF7E0FF201C38BD10B5054C201CFFF769
:10292000E2FF201C0349044A00F0C0F810BDC04675
:10293000B00C0010CF270000300C00107047416031
:10294000704741707047817070470000F7B5334C95
:102950006B200D1C0121161C1F1C00F04DF90023DB
:10296000A3606B20012100F0D7F92D4B0222A26257
:102970001A601223E3652B4B0420596884460143F7
:1029800059601B18D86F8021C90201432648D967B6
:10299000012101606446031C072D15D8281C00F096
:1029A0009BFB040906080B0D0F1119600DE01C605C
:1029B0000BE008221A6008E01022FBE72022F9E76A
:1029C0004022F7E78022F5E70460032E0CD8301C84
:1029D00000F082FB02040608002304E0012302E069
:1029E000022300E003230193019A104B92011A6025
:1029F0001A68013F174380200D4A0221C0011F6061
:102A000019611060C320884015580A4C2C40C0251D
:102A10002D042C4314505960F7BDC04600400440BB
:102A20008C400440008004409C80044000800540AD
:102A300000E100E0FFFF00FF08B5031C9978DA7899
:102A400000785B68FFF782FF08BD38B508230025D2
:102A50000221041C43604570C57001708170FFF74E
:102A600072FF201C6168FFF76AFF291C201CFFF71A
:102A700068FF201CFFF7E0FF201C38BD10B5054C97
:102A8000201CFFF7E2FF201C0349044A00F00EF867
:102A900010BDC046B80C00103D290000300C0010DD
:102AA000014B03607047C046105200000020704781
:102AB00000B5FEE770B5C3B2002815DA0F221A4040
:102AC000083A1348920892001218032003408340EA
:102AD000FC305568041C9C408901A543084098407F
:102AE0002B1C0343536011E003248008094A234050
:102AF000C030A3408000FC348558261C9E408901CC
:102B0000B5430C409C402B1C2343835070BDC046F2
:102B100018ED00E000E100E0024B80221203DA67CA
:102B20007047C04604E100E007B5044B1A68019203
:102B30001968019A8A1A8242FAD307BDC40C0010A0
:102B4000014B18687047C046C40C001008B5064B0E
:102B50008022D96FD2000A43DA67FFF7DDFF034B0B
:102B600001225A6008BDC046048004400080014034
:102B700010B5064C23685A0707D5054B1A68002A7A
:102B800001D01B6898470423236010BD00800140DA
:102B9000C00C0010024B1A6801321A607047C04620
:102BA000C40C001013B5104BFA211868890000F00E
:102BB0009DFA0190019B0D4A0D4C93420CD81B02CB
:102BC0001B0A013B0120636040420321FFF772FFB3
:102BD0000023A3600733236023685A0702D4054B00
:102BE00008221A6013BDC046E8030010FFFFFF0073
:102BF00010E000E0B080044030B5152855DC404AB4
:102C00004400C0008358651C002B0DD1AD00AB58AB
:102C10000B2B06D13B4B07201A8882430638024310
:102C200025E0394AD35C1DE03748012B13D1AD00B4
:102C3000AA58032A0AD88018027B3448072512189C
:102C40001088A84303439BB2138011E08018037BD4
:102C50002E4A9B1808E0AD00AA585D00EB189B00B7
:102C60009B18C35C29481B181A88072082431A80C6
:102C70008023234A2648A5001B02012909D1555962
:102C80000134AD004059A4001259C5589140294360
:102C90002CE05159013489004158A4001259C858F8
:102CA00001249440A043C85028E0632826DDC728AB
:102CB00024DC184B6438C200D458101C0430C258AD
:102CC000600000198000104B8018C35C0F48072576
:102CD0001B181888A400A843188080230C481B02E6
:102CE000012905D100599140C4582143C15005E044
:102CF00000590121C45891408C43C45030BDC04696
:102D00006053000074400440405200000040044002
:102D1000705200008052000010B5152803DC4400FA
:102D2000124A134B07E063281EDDC7281CDC6438F9
:102D30000E4A104B4400C000012908D10134A40000
:102D400018581B598000994012588B000BE01958F5
:102D50000134A40089001B595258012199408B006D
:102D600098588843011C995010BDC046705200000D
:102D7000605300008052000007B5152801DC0D4BA0
:102D800006E00023632812DDC72810DC0A4B6438F4
:102D9000C200D158C000094A04308900C3588A587B
:102DA000042199408B585A1E93410193019B181C92
:102DB0000EBDC046605300008052000070520000FB
:102DC00000B5031C132801D80D4A08E0021C143A70
:102DD00000204F2A12D9643B632B0FD8094AD9002F
:102DE000885809498000DB004058043307499B5844
:102DF0004158012098400840431E984100BDC046FC
:102E000060530000805200007052000018800000E3
:102E100010B5132801D80D4907E0031C143B4F2BB4
:102E200012D9643863280FD80949C3005A58C00022
:102E3000084B04309200D2584158074B0120D45817
:102E40008840011C2143D15010BDC0466053000092
:102E500080520000705200001C80000010B5002459
:102E6000201CFFF7ADFF002809D0201CFFF7D0FF82
:102E7000054BA200D158002901D0D35898470134FE
:102E8000142CEDD110BDC046C80C001008B5FFF7DA
:102E9000E5FF08BD08B5FFF7E1FF08BD08B5FFF77E
:102EA000DDFF08BD08B5FFF7D9FF08BD704700007A
:102EB000662343600A338360054A023BC3606E3B6E
:102EC00043700370036143618261C3617047C04610
:102ED000FFFFFF0010B5054C201CFFF7E9FF201C89
:102EE0000349044AFFF7E2FD10BDC046180D00106B
:102EF000AD2E0000300C001008B5FFF753FEFFF7B1
:102F000025FEFEF767F9FFF79BFAFCE710B51C4BAF
:102F10008E229200995820208143995000221A62F3
:102F2000C0460132C82AFBD1C73A00211A645A644C
:102F300059645A64596C124AC807FBD52321916021
:102F40006B31890050588024A0435050D86801212B
:102F50000B4A0842FAD003201067033851675067C4
:102F60005167596F01221142FBD0054B05499A6701
:102F70000433D96790331A605A609A6010BDC04616
:102F8000008004405F000100014B0833036070477C
:102F90001054000000B5034B5A699006FBD5196028
:102FA00000BDC0460080004010B5041CFFF778FD4E
:102FB000044B201C083323600023237196339B01AC
:102FC000A36010BD1054000070B51B4B81601A1C2B
:102FD000A83210680724A04310601568012005433B
:102FE0001560A4331A688025A2431A601A686D011F
:102FF00002431A60114B1A1DD66F3543D5679432C0
:103000001060986F13680E4A1B01126859435043B1
:1030100000F06CF80B4B8022D9681143D960010A8B
:103020005960FF2108401860D96891430322D96094
:10303000DA609C6070BDC0460040044000800440DF
:10304000E803001000800040024B5869012318403B
:103050007047C04600800040014B18687047C0466A
:103060000080004010B5054C201CFFF79DFF201C80
:103070000349044AFFF71AFD10BDC046400D001079
:10308000892F0000300C0010016042607047000082
:1030900008B503480021034AFFF7F6FF08BDC04604
:1030A0004C0D0010FFFF00007047031CA43370227A
:1030B0001A60704710B5054C201CFFF7F6FF201C66
:1030C0000349044AFFF7F2FC10BDC046540D00103E
:1030D000A9300000300C001002B4714649084900C4
:1030E000095C49008E4402BC7047C046002934D0B8
:1030F0000123002210B488422CD301242407A142CA
:1031000004D2814202D209011B01F8E7E400A14286
:1031100004D2814202D249005B00F8E7884201D321
:10312000401A1A434C08A04202D3001B5C082243F9
:103130008C08A04202D3001B9C082243CC08A0426A
:1031400002D3001BDC082243002803D01B0901D056
:103150000909E3E7101C10BC7047002801D00020CB
:10316000C04307B4024802A14018029003BDC04604
:10317000D90000000029F0D003B5FFF7B9FF0EBC5D
:103180004243891A1847C046002941D010B4041C94
:103190004C40A44601230022002900D549420028C2
:1031A00000D5404288422CD301242407A14204D2F6
:1031B000814202D209011B01F8E7E400A14204D2D6
:1031C000814202D249005B00F8E7884201D3401AED
:1031D0001A434C08A04202D3001B5C0822438C080F
:1031E000A04202D3001B9C082243CC08A04202D379
:1031F000001BDC082243002803D01B0901D0090969
:10320000E3E7101C6446002C00D5404210BC704718
:10321000002806D003DB0020C043400801E08020E6
:10322000000607B4024802A14018029003BDC04640
:10323000190000000029EBD003B5FFF7A7FF0EBC73
:103240004243891A1847C0467047C04600B5036814
:10325000002B00D01B18181C00BDC04600B5036829
:103260005A0003D45B005B08C01800BD80210A0629
:103270001343F9E7F8B55F4656464D464446F0B469
:10328000814690460D1E26D001398B468A4600267F
:103290000AE0611CC8004844FFF7E0FF01384745D9
:1032A00013D8404517D2661C331C5344D80FC4189A
:1032B0006410E5004D44281CFFF7D0FF071CA34510
:1032C000E7D1012250424745EBD9B44202D0013C3C
:1032D000A246E9E70025281C3CBC90469946A24638
:1032E000AB46F8BD30B52B4B83B0041C8D1E002BB4
:1032F0004AD0281C01A900E000BF031E22D02A1CCE
:10330000181C0199FFF7B6FF051E1ED0281CFFF7F9
:10331000A5FF6B68A064012B10D0002B24DB281DB7
:10332000FFF79CFF0023E06423650368002B0FDB9D
:10333000FFF794FF2061002003B030BD013B236103
:103340000520F9E720610930F6E725610920F3E758
:103350001A01100F00280CD001280DD002280FD020
:10336000002020610920E7E7281D0125E06425658C
:10337000DBE709492161DFE7084D01382561DBE71B
:10338000074B02382361D7E7064B0749C81AC2101A
:103390000192B4E7000000002D390000213900003F
:1033A00015390000F85500005858000010B50368A2
:1033B000041CDA0705D49A070FD5483000F05CFDED
:1033C00023685A070FD51A0714D5DA0604D48C20BF
:1033D0008300E01800F05CFD10BD483000F048FDAF
:1033E00023685A07EFD4201CD03000F049FD236831
:1033F0001A07EAD4201CB130FF3000F045FD2368E5
:10340000E3E7C046F0B55F4656464D464446F0B445
:10341000C3682F4C9946A5448369051C161C0431CA
:10342000402292AC93A89A4601F046FA0023216C00
:10343000281C98469293FFF755FF731E9E41102358
:10344000071C09369B461EE0A06B5B461E4360646A
:103450005346019300940120311C2A1C2B1CC847A1
:10346000002823D1002F22D19026201C02A9B200CF
:1034700001F022FA0823984522D1216C281CFFF77D
:1034800031FF0926071C002FDED1216C90226961D3
:103490009200211C02A801F00FFA2B69301C291C94
:1034A00002AA9847804610986064D1E70927094D21
:1034B000381CAD443CBC90469946A246AB46F0BD94
:1034C000013B09379845F2D193A800F0BBFCC046F8
:1034D00074FBFFFF8C04000038B5041C0D1C296C24
:1034E000201CFFF7FFFE00280AD1286C23696061C9
:1034F000211C01202A1C98470828F0D0072801D059
:1035000000F02AFF281D00F09DFCC04600B50029F0
:103510000ED1002B12D10F23934289414942002939
:103520000CD1920083185868019A1060081C04E0BE
:1035300004228A4280414042013000BD0220FCE763
:1035400000B585B003AB0A1C002100930B1CFFF7EC
:10355000DDFF039805B000BD00B500290ED1002B9A
:1035600012D10F2393428941494200290CD1019B7A
:10357000920080181A684260081C04E004228A4203
:1035800080414042013000BD0220FCE700B585B01B
:103590000B1C0392002103AA00921A1C0B1CFFF7BC
:1035A000DBFF05B000BDC046F0B55F4656464D4650
:1035B0004446F0B4CF6C9A4608238BB00340934640
:1035C0000393032208CF0C1C1040002100900797A2
:1035D0008A4500D0D5E008A821260270009A190279
:1035E00055466E4406913570022A00D1D9E0206D0F
:1035F0000123034000D0DAE0009D02936B1E9D4141
:1036000004955D463E68002E2FD002239A4500D1D6
:103610008FE03B887E8804379B46B946A06C012723
:10362000311CB9430A18281C0F219046FFF788FF68
:103630000023804505D85B46BB4343449842BF41C5
:103640007B4201273E405A46BE403A401643BE42A6
:1036500000D173E0002E0AD1002B00D029E1042113
:103660000F1C4F443E68002ECFD1AB46A1E0022E86
:1036700007D009200BB03CBC90469946A246AB4609
:10368000F0BD49460A680098560071088B4600282C
:1036900000D0ACE0002B44D000239B4502D0039F18
:1036A0009F423ED10026B34500D1F7E058200422C6
:1036B0000319171C594601934F440026C90700D42B
:1036C000BCE049460591A94613E00437AB4500D854
:1036D000CBE02E1C019D381C0995FFF7B7FD424633
:1036E000011C09AB201C00E000BF002811D10437E9
:1036F0000136019B381C0993FFF7A8FD0022011C2D
:1037000009AB201C00E000BF00228046751C9045DC
:10371000DBD0059B4D4699465E4500D1BEE04B4649
:103720001A68002A6EDB0122101C584487004F449F
:1037300068E7B3467E680837B9466FE70098002807
:1037400063D1002B19D04A465368484640C8991C9B
:1037500000D18EE7221C5832099201330AD0FFF7BC
:1037600075FDF20F011C09AB201C00E000BF002812
:1037700078D0099A002A00D090E008210F1C4F440D
:1037800040E7190C2126CAB21D046E440223327090
:103790009A40BF18009A08A806950370022A00D024
:1037A00025E7206D0123A76B034000D124E7002407
:1037B000029406A9584600F00FFC011C09200029BC
:1037C00000D057E7029D0138002D00D152E70F21AC
:1037D0005846FFF7B5FE0E21021C5846FFF7D6FEED
:1037E00058460F214A4AFFF7D1FE072042E7281C1E
:1037F0000D21266AFFF7A4FE86423CD049460A689E
:10380000002A90DA042399448DE7281C0D21266AAA
:10381000FFF796FE8642B0D1A76AB945ADD14846BA
:10382000FFF71CFD0F21021C281CFFF7AFFE281C10
:103830000021221CFFF7AAFE07201BE7019B381C72
:103840000993FFF703FD321C011C09AB201C00E0AB
:1038500000BF002800D05FE74A46043701260592E2
:10386000A94646E7009B099387E7059AA84646467E
:103870004D46914650E7A36A994500D04FE7042092
:103880000022206359464844E262A1629046606388
:103890004A461268424527DB029744E7281C0D215F
:1038A000FFF74EFE206209984F466062A76206202D
:1038B000E0E6049E002E00D1D1E64846FFF7CEFC9C
:1038C0004F460437A763AB46051C201C00E000BF31
:1038D000041C0920002C00D1CCE658460F212A1CDC
:1038E000FFF754FE0720C5E65E460136AA464F465E
:1038F000B5007819FFF7B2FC0F21021C5046FFF704
:1039000045FE50464146221CFFF740FE0720B1E627
:103910000000000008B50223FFF746FE08BDC046C0
:1039200008B50123FFF740FE08BDC04608B50023D7
:10393000FFF73AFE08BDC046F0B55F4656464D4615
:103940004446F0B4041CE7B0161C0220042951D8E8
:1039500081405C48425897460220002B4AD13604E9
:10396000360CA36BF00701D502CB6160B10701D51E
:1039700020CBA560720701D580CBE760370701D562
:1039800004CB2261F00601D501CB6061B10601D5FF
:1039900002CBA161720601D520CBE561370601D5C6
:1039A00080CB2762F00501D504CB6262B10501D559
:1039B00001CBA062720501D502CBE162370501D5CA
:1039C00020CB2563F00401D580CB67638022920170
:1039D000324001D001CBA063710401D502CBE16379
:1039E00080273D022E4201D040CB26640020824237
:1039F00000D1A36367B03CBC90469946A246AB4653
:103A0000F0BD0220032BF5D13304350C1E0C7119C7
:103A10001029EFD823680822134200D03CE122A8E5
:103A200000F034FAA06B76008446031C002E1DD0F3
:103A3000ED0004CB22AFED19701E04C5002812D092
:103A40000122002A04D001CB01C5B01E00280AD0F3
:103A5000191C80C92A1C80C25F6802386F600B1D68
:103A6000151D0028F4D1B600331C634422A8A363BB
:103A700000F00AFA0020BDE7002B00D0E5E010338B
:103A8000B34200D2E1E022681A4200D0F7E062A817
:103A900000F000FAA36BF70701D520CB6295B007C1
:103AA00001D504CB6392710701D502CB6491320733
:103AB00001D580CB659762A8A36300F0E9F90020E7
:103AC00098E7C046205400005A1F511E8A41002A20
:103AD00000D0BCE03004350C060CB146291C49442A
:103AE0002027012B00D1C8E002208F4200D281E7BD
:103AF0005E1E774277410F26B846AE42BF417F42F5
:103B0000002F00D0C3E0BB46102900D9A4E00F2D40
:103B10000FD8226801210A420BD08A432260052B6C
:103B200000D1DCE002239A43201C2260483000F0E0
:103B3000A1F90022934504D023680422134200D047
:103B4000BFE00020804500D0C2E00F2D00D8B4E0D7
:103B50000026B34500D08AE04E46A36B9A469946AC
:103B6000002E2ADD76000227B146EB0000AE524659
:103B700078429B1902CA061C4E4402C3701C18D01E
:103B80000120002806D0032180CA4E424E4480C343
:103B9000771C0ED0101C02C8023E8C466746191CCA
:103BA00080C152689446021D604658600B1D711C0E
:103BB000F0D14A4693009946D1440026B3452FD010
:103BC0005846400082462B1C102D00D21023103B7B
:103BD000022142AEDB004A464F429B1901CA3E1CFD
:103BE000564401C3701C18D00120002806D00321C0
:103BF00080CA4E42564480C3701C0ED0101C02C8AE
:103C0000023E8C466746191C80C152689446021DCC
:103C1000604658600B1D711CF0D1524693009944C8
:103C20000026B04540D14F46A7630F2D02D8684605
:103C300000F022F95846002800D1DBE642A800F047
:103C40001FF90020D6E60120D4E60220D2E60220A9
:103C5000012B00D13EE7CDE610398B460026B34557
:103C600000D154E70220B24200D0C3E64FE742A899
:103C700000F008F910214E1B6FE7103F34E78C204D
:103C80009A4383002260E01800F004F9FFE6002167
:103C9000CB468845E2D0ADE6201C9343B13023608B
:103CA000FF3000F0F3F8BAE60420051C4D446846E6
:103CB000A56300F0DDF800209CE6684600F0DEF821
:103CC00046E79343201C2360D03000F0DBF838E750
:103CD0006846002700F0CEF8BB45CBD13CE7033B5C
:103CE0001A43201C2260483000F0C8F821E7C04683
:103CF000406C704770B5154CCD6BA5440D64041C29
:103D00000E1C01A80431402200F0D6FD01204342E0
:103D1000009300E0109D201C291CFFF7E3FA002807
:103D20000BD12569211C6A46A847051C0828F1D03B
:103D30006846FFF73BFB062D04D0902189008D4497
:103D4000092070BD201C311CFFF7C6FBC0FDFFFF22
:103D500008B58261DA6BC1601A64191C0022FFF792
:103D600051FB08BD38B5041CE36840690D1C0864AC
:103D7000002B05D00122201CFFF744FB00F0ECFAD9
:103D800023690220211C2A1C9847072803D00828F1
:103D900004D000F0E1FA281D00F054F8201C291C82
:103DA000FFF79AFB08B5C368002B05D0CA6B0A64FD
:103DB0000022FFF727FB08BDFFF79CFFFBE7C0468B
:103DC0007047C04608B58368011C002B01D0012054
:103DD000984708BD70B51A4C061CA544D46B0D1C41
:103DE0001464111D01A8402200F066FD0120434229
:103DF000009302E0052818D0109C90A8211CFFF722
:103E000071FA002819D168460C2190AAFFF7BEFB71
:103E10006846291CB04700280FD1949B083090A910
:103E20006A469847041C0928E4D16846FFF7BEFAA1
:103E3000A62189008D44201C70BD0924F5E7C046E9
:103E400068FDFFFF011C343138C9043B9C461D60EE
:103E5000A646011C20313CC990469946A246AB4675
:103E6000011C0831FCC941680068E54600BDC04638
:103E70007047C0467047C0467047C0467047C0464E
:103E80007047C0467047C0467047C0467047C0463E
:103E90007047C0467047C04601B401A801B585B05F
:103EA000FFB408A841464A4653465C4665463EC0B4
:103EB00001A83EC80F98009000230CB401A9FFF799
:103EC00019FF109B12B0184701B401A801B585B0C5
:103ED000FFB408A841464A4653465C4665463EC084
:103EE00001A83EC80F98009000230CB401A9FFF769
:103EF00039FF109B12B0184701B401A801B585B075
:103F0000FFB408A841464A4653465C4665463EC053
:103F100001A83EC80F98009000230CB401A9FFF738
:103F200041FF109B12B0184701B401A801B585B03C
:103F3000FFB408A841464A4653465C4665463EC023
:103F400001A83EC80F98009000230CB401ABFFF706
:103F5000FFFE109B12B0184701B401A801B585B04F
:103F6000FFB408A841464A4653465C4665463EC0F3
:103F700001A83EC80F98009000230CB401AAFFF7D7
:103F800029FF109B12B0184700B5027A031C002AC3
:103F90000ED1427AB020002A09D0013A58685A72EC
:103FA00004C8032158601972100E12021A6000BD75
:103FB000013A02720268F7E700B585B003AB002151
:103FC00000930C220B1CFFF7A1FA039805B000BD6B
:103FD00008B5FFF7F1FF08BDF0B55F4656464D4600
:103FE0004446F0B487B00D1C002103918022F023D9
:103FF000F831061C904699468B46281CFFF7C4FFF3
:10400000041CB02800D1ADE0434603409C4628D0B4
:104010004B460340802B00D171E0902B3CD0A02B6D
:1040200057D0B02B00D183E0C02B00D1AFE05B466E
:104030000340D02B0CD10720044079300203013417
:104040002243301C0121CB3BFFF776FC0028D4D063
:10405000092407B0201C3CBC90469946A246AB46BA
:10406000F0BD8700FF233B4004339A4605AF61460D
:10407000301C0D2263460097FFF748FA610624D5ED
:10408000059952468C1A059400970021301C0D2288
:104090000B1CFFF761FAB0E70F2202400F2AD7D0BE
:1040A000141C0D3C63425C41002CD1D105AF211C96
:1040B000231C301C0097FFF729FA301C211C0D220D
:1040C000231C0097FFF748FA97E70598504405909E
:1040D000DAE707225F3382431801011C11410A1CF1
:1040E0000240230702D58024E3011A430021301C3B
:1040F0000B1CFFF721FC002800D17EE7A8E7040293
:10410000281CFFF741FF802304431F02BC429FD0BD
:104110002405240C0021301C221C0B1CFFF70CFC76
:10412000002895D13C4200D167E70127039764E757
:10413000B12871D0B22800D18BE0B3287ED0FC200A
:104140002040B42846D007273C40793701343A0351
:1041500022430121301C0B1CFFF7EEFB002800D18D
:104160004BE775E70398B03CA04200D071E705AD7E
:10417000211C231C301C0E220095FFF7C7F9301CB0
:10418000211C0F22231C0095FFF7E6F961E7C628E2
:104190002FD0C72800D185E05B460340C02B00D15B
:1041A00092E0C82800D196E0C92800D050E7281C2A
:1041B000FFF7EAFE0F214B46034008401F03421C55
:1041C0003A43301C01210523FFF7B6FB002800D13C
:1041D00013E73DE7032214407D320134D20202216D
:1041E0002243301C0B1CFFF7A7FB002800D104E77B
:1041F0002EE7281CFFF7C8FE0F244B460340204043
:104200001903421C0A430321301C0B1CFFF794FBCB
:10421000002800D1F1E61BE7281CFFF7B5FE021EBF
:1042200000D115E74B46134000D011E7301C191C94
:10423000FFF782FB002800D1DFE609E7281CFFF723
:10424000A3FE4B4603401C030F231840421C22438D
:104250007FE705A900918A4600210D220B1C301C26
:10426000FFF754F9281CFFF78FFE4246B03C10427E
:104270000CD07F27059A3840A04010180590281CC4
:10428000FFF782FE434607341842F3D1059A812195
:104290007F238F001840D119A0400F185246059770
:1042A0000092F2E6281CFFF76FFE021E00D1CFE657
:1042B0004B46134000D0CBE6301C0421FFF73CFBFB
:1042C000002800D199E6C3E6B13B1C40A020013490
:1042D0000203224397E7281CFFF756FE4A46024096
:1042E0000F23184010320130120302430121301C09
:1042F0000A3BFFF721FB002800D17EE6A8E6C04676
:1043000000B5C26C85B0506801AB00020190101C72
:104310000830029003201872D279081C5A72191CB6
:10432000FFF75AFE05B000BD08B5FFF751FE806CDF
:1043300008BDC04608B5FFF74BFEC36CD9791A1DFE
:1043400001318800101808BD08B500F005F8C04616
:1043500008B500F001F8C04608B5062000F0CAFB19
:10436000012000F0C1FDC04670B50D4D0D4E761B0D
:10437000B610002E05D0002408CD01349847A6427F
:10438000FAD801F059F8084D084E761BB610002EE9
:1043900005D0002408CD01349847A642FAD870BD54
:1043A0004454000044540000445400006054000091
:1043B000F0B55F4656464D464446F0B40D1C0B35ED
:1043C00083B0071C162D2CD907239D43EB0F8D427C
:1043D0002BD3002B29D1381C00F0EAFA8B4B9D42DD
:1043E00027D8EA088A4ED300F318DC689C4200D133
:1043F000B6E163680322A1689343E268E318CA60E8
:1044000091605A6801210A43381C5A6000F0D2FAC0
:10441000201C083003B03CBC90469946A246AB46EF
:10442000F0BD102500238D42D3D20C233B60002029
:10443000F0E76B0A002B2BD0042B00D979E1AB09F4
:1044400038339946D900724E7118CC68A14226D0F3
:10445000626803208243531B0F2B08DD1CE0E468D5
:10446000A1421CD062688243531B0F2B14DC002B2B
:10447000F5DBE368A168A218CB609960536801215D
:104480000B43381C536000F095FA201C0830C1E73C
:10449000E8088146C100D6E701235B429944012424
:1044A000A144311C08318C68A14200D185E06268CA
:1044B00003239A43531B93460F2B00DD42E1C9604F
:1044C0008960002B00DB9DE0524B9B4551D8D20800
:1044D000931001209840D2007368B218034390688B
:1044E000E260A060C46094604C46A210012090403D
:1044F0007360984268D818420CD103229443221C5E
:10450000043240009146184204D1042240009144F4
:104510000342FAD0032398464C46E3009B199B467E
:104520009C46CA466246D468A44507D10FE1002BD9
:1045300000DB1EE1E468A44500D108E1626843465F
:104540009A43531B0F2BF2DD012062190543A66825
:104550006560E568F560AE601843CA608A605060C7
:10456000D1609160381CD35000F024FA201C083030
:1045700050E7530A042B00D90EE1900938308046E9
:104580004046C3009B199C469B68634500D117E1D8
:104590005A68032082438046934506D308E0586852
:1045A000021C40468243934502D29B689C45F6D14B
:1045B000DA68E260A360DC6094604C46A2100120DF
:1045C00073689040984296D9B468032263680F21BB
:1045D00093439A465B1BD80F033A99424241D2B2A9
:1045E000002A19D1AA4517D30122111C29431343CC
:1045F00065196160381CB5606B6000F0DBF9201C48
:10460000083007E7221C5A4438E7C046F70100008B
:10461000EC030010FF010000A348A4490368804692
:1046200010335B199B468B688946013305D0A04A3D
:10463000131C5B441B0B1B039B46381C594600F0A4
:10464000BBF90190431C5CD0221C5244824200D929
:10465000A7E041464B685B444B60824200D1F4E0E6
:1046600049468968013100D1FAE0C3189A1A4346D5
:104670005A600723034000D19FE00822D21A801815
:1046800001908020400112180199381C0B1C5B44DA
:104690001B051B0DD31A191C994600F08DF9421CFD
:1046A00000D1E8E0019BC01A484401231843424668
:1046B000536801994B445360B1604860B44215D0CF
:1046C0000F22924500D894E00C204042021C0721A2
:1046D000606852448A4306390140114361600520F5
:1046E000A118486088600F2A00D9BCE04446E26AFD
:1046F000934200D9E3624046026B934201D941469E
:104700000B63B468032362689A4392465246531B74
:104710000021D80F0F2288469A424141C9B2414533
:1047200002D1AA4500D35FE7381C00F043F900200E
:1047300070E6142B2CD9542B36D82B0B6E3399469C
:10474000D90080E6012062190543656004E7012471
:10475000A244524643461A4251D00824A444E1E6FA
:10476000231C6469023208339146A34200D198E6C3
:104770003FE6A218536801210B435360E368A26827
:10478000381CD3609A6000F015F9201C083041E60F
:104790005B339946D90056E6142B23D85B339846F1
:1047A000EEE6B442ADD154E7AA225200934211D8AA
:1047B000EB0B77339946D90045E68022520163E737
:1047C0004246901001228240101C726802437260BF
:1047D0001A1CEEE6374A934229D8AB0C7C33994633
:1047E000D90030E6542B27D85B46180B6E30804634
:1047F000C6E601234B60013B0C1C9A4686E75B46EC
:104800004C4600E0013C4246144244D01A1C1B684E
:10481000083A9342F6D073684000984200D9D3E634
:10482000002800D1D0E6034239D0D14674E6FC21FD
:104830007E228900914606E6AA20400083421ED8C7
:104840005A46D00B773080469AE61105002900D0F1
:1048500006E75946B268514401200143516045E7DB
:104860004A46906005E7211C0831381C00F04AFADE
:1048700041464B683AE700210120894617E70D4A77
:104880007E2094468046634500D979E65B46980CC5
:104890007C30804674E6736883437360BBE704240E
:1048A000A2444000BFE7C046FC0D0010EC0700101A
:1048B000FF0F000054050000F0B54F464646C0B457
:1048C000032A0BD8002A05D00023CC5CC454013342
:1048D0009342FAD10CBC90469946F0BD8218031C55
:1048E000032503E00C7801311C70013303242B42B3
:1048F000F8D10C4041D0E700BC46042766423C1B7F
:10490000E4008D59A1460BE004318F596446E5401F
:10491000A8464C463D1CA5404446254320C33D1CAB
:10492000D71A032FF0DC03E00C7801311C7001333F
:104930009342F9D3CEE70C681C604C685C608C68CD
:104940009C60CC68DC600C691C614C695C618C69A2
:104950009C61CC69DC610C6A1C624C6A5C628C6A8A
:104960009C62CC6ADC620C6B1C634C6B5C638C6B72
:104970009C63CC6B4031DC634033D41A3F2CDADCCF
:104980000AE00C681C604C685C608C689C60CC68B9
:104990001031DC601033D41A0F2CF2DC0D1C03E054
:1049A0000968043502C3D41A291C032CF8DCBFE7BC
:1049B0007047C0467047C04638B5074C0023051CF9
:1049C0002360081C00F070FA431C00D038BD236837
:1049D000002BFBD02B60F9E7340E001070B5B72523
:1049E000AD004659041C0020864200D070BD201C3A
:1049F0008021FFF7DDFC6051002807D0021C031C5A
:104A00008032301C01C39342FCD1EFE701204042C9
:104A1000ECE7C046F8B5051C0C1C161C1F2909D86C
:104A2000B727BF00C359002B09D0A4001B19186871
:104A30001E60F8BD1623036001204042F9E7FFF72E
:104A4000CDFF002801D1EB59EFE701204042F0E70C
:104A500070B5061C0C1C1F2921D8B7239B00C35816
:104A6000002B12D08A009A181368002B0DD0002555
:104A7000012B04D0591C04D01560201C9847281C19
:104A800070BD173303600135F9E7301C00F06EF894
:104A9000221C011C301C00F055F8051CEFE7162302
:104AA000012503606D42EAE770B5051C0C1C1F2947
:104AB00016D8B726B6008359002B14D0A2009A1836
:104AC00013680120002B0AD00018591C07D00130B0
:104AD000012B04D00025201C15609847281C70BDB0
:104AE00001204042FBE7FFF779FF0028F8D1AB59DE
:104AF000E4E7C04608B5034B011C1868FFF7A8FFA0
:104B000008BDC0460008001008B50A1C0349031C74
:104B10000868191CFFF77EFF08BDC046000800109A
:104B200008B5024B1868FFF759FF08BD00080010D0
:104B300008B5034B011C1868FFF7B6FF08BDC04657
:104B40000008001038B5084C0023051C2360081C21
:104B5000111C00F0D3F9431C00D038BD2368002B92
:104B6000FBD02B60F9E7C046340E001008B500F00A
:104B7000BDF908BD02780B7801300131002A01D05F
:104B80009A42F7D0D01A7047031C0A7801311A7084
:104B90000133002AF9D170470023C25C0133002A97
:104BA000FBD1581E7047C046F0B5031C101E47D0FD
:104BB0000C1C1C430320551E044029D11E1C0D1C37
:104BC000824240D91F68086887423CD1043A101ECF
:104BD00036D022483D18BD43214F201C3D422FD1E5
:104BE0001C1D081D0BE008CC02C88B422BD1043AD7
:104BF000002A26D0194D59199943394227D1261C2C
:104C0000051C032AEFD8231C011C002A21D0551EA5
:104C10001A780C78A24212D1281E11D0101E0FD083
:104C200001330131681E06E0002809D0002A08D0AF
:104C30000133013101381A780C78A242F4D0101BEC
:104C4000F0BD101CFCE7291C331C551EE0E70020BA
:104C5000F6E722780478101BF2E7C046FFFEFEFE5E
:104C600080808080F8B50F1C041CFFF7A1FE204D4A
:104C7000204AAB685E6803239E43B318DF1B3F0BDB
:104C8000013F1D4B3F039F4207DD201C0021FFF722
:104C900093FEAB689B19984204D0201CFFF78AFE54
:104CA0000020F8BD7942201CFFF786FE01300DD0B0
:104CB000AB68F61B01252E435E60104B201C1A6862
:104CC000D71B1F60FFF776FE281CEAE7201C002197
:104CD000FFF772FEAB68C21A0F2ADEDD08490968C9
:104CE000401A0649086001210A435A60D5E7C046C8
:104CF000EC030010EF0F0000FF0F0000000E00108B
:104D0000F4070010F0B557464E464546E0B4051C82
:104D10000C1E5DD0083CFFF74BFE60680121031CB0
:104D20008B43E21857680326B7435A4E8046B06853
:104D3000844694456CD00020844640465760084025
:104D400080460ED120688C46241A1B18A068824623
:104D500008208019824504D0E1685046C16088600F
:104D6000C446D11948680121084207D10020DB1947
:104D7000844532D09068D268C26090600122111CD4
:104D8000194361600021E3508C451ED142498B429A
:104D900030D95A0A042A54D899093831C800301831
:104DA0008268824253D051680326B1438B4204D3B8
:104DB00006E05168B1438B4202D292689042F8D12A
:104DC000D368E360A260D4609C60281CFFF7F2FD0A
:104DD0001CBC90469946A246F0BD371C9068083727
:104DE000B842C8D11943C4608460E060A0606160CB
:104DF000E350EAE7DB0899108A407168DB000A4358
:104E00007260F618B368E660A360DC60B460DCE74B
:104E10004246FB180A4206D12268A41AA1689B18D0
:104E2000E268CA60916001221A4362601B4AB46062
:104E300012689342C9D31A4B281C1968FFF712FF56
:104E4000C3E7142A0CD8111C5B31C800A7E78910EE
:104E500001238B40191C736819437160131CB0E760
:104E6000542A03D8190B6E31C80098E7AA214900CB
:104E70008A4203D8D90B7731C80090E709498A42A2
:104E800003D8990C7C31C80089E7FC2080007E2182
:104E900085E7C046EC030010FF010000F807001092
:104EA000FC0D00105405000070B50D4C2368002B5C
:104EB00001D10C4B2360C61C256803239E43AE1909
:104EC000301C00F023F8002801D1266005E000F036
:104ED0004BF801250C2303606D42281C70BDC046B1
:104EE000380E00103C0E001000B5FEE7024B5822B1
:104EF000012040421A607047340E0010024B5822C5
:104F0000012040421A607047340E001000B5084B73
:104F10006A469A4202D90123904206D2054B002BE1
:104F200003D0002298425241131C181C00BDC046F9
:104F30003C0E00100000000000B5034B1A78002A58
:104F400001D101321A7000BD300E001008B50448BE
:104F50000368002B03D0034B002B00D0984708BDFB
:104F6000340C001000000000014B18687047C04668
:104F700000080010D45100000C0000006111000076
:104F8000E15100000D000000C1110000EF510000D0
:104F9000040000006D110000F45100000400000046
:104FA0007B110000F951000008000000AD11000065
:104FB00002520000050000005D1100008451000055
:104FC0000300000000000000885100000400000001
:104FD000010000000C51000005000000000000006E
:104FE0000751000004000000010000008D51000086
:104FF00005000000000000009351000006000000C2
:10500000010000009A51000004000000651100003A
:105010009F5100000B00000059110000AB5100002F
:105020000600000089110000B25100000C000000D1
:10503000CD110000BF51000007000000B9110000B1
:10504000C75100000500000055110000CD510000BF
:10505000060000009511000054696E792043206C11
:10506000616E677561676520696E746572707265DF
:1050700074657220666F722041726475696E6F008C
:105080002863292032303132204E2E4D2E0074728A
:10509000616E73706C616E746564206F6E746F20E6
:1050A00065586F647573696E6F206279204C796EF4
:1050B000782D4579454420574F524B532E004F4B86
:1050C0000044697669646564206279203000537910
:1050D0006E746178206572726F720053746F7070B5
:1050E000656400506175736564006100616E696D8F
:1050F00061746500636F6E74696E756500646562E6
:1051000075670063005300747275650066616C73A7
:105110006500627265616B006966007768696C653D
:1051200000656C7365007768696C65202800290A42
:10513000003A200069662028002900666F72202846
:10514000003B2000666F72006175746F72756E00AF
:105150006C697374006E6F6175746F0070726F6745
:1051600000656E640050726F6772616D2069732014
:10517000746F6F206C617267650073746570007383
:10518000617665004C4F57004849474800494E50EA
:105190005554004F555450555400616273280061B6
:1051A0006E616C6F6752656164280064656C61793B
:1051B00028006469676974616C5265616428006DD8
:1051C000696C6C6973280072616E64280070726982
:1051D0006E742800616E616C6F6757726974652820
:1051E000006469676974616C577269746528006D41
:1051F000696E28006D6178280070696E4D6F646576
:105200002800706C7573280000000000000000008A
:10521000B12A00002D2600003031323334353637C4
:105220003839414243444546003031323334353613
:1052300037383900303132333435363700303100C9
:105240000C101C2C30344C5060646874787C809056
:1052500094A0A4A814386C9808285C8C40440020C2
:105260002454587084889CAC3C4800000000000026
:1052700000000050000001500000025000000350E8
:105280000100000002000000010000000100000019
:105290000100000004000000010000000B000000FD
:1052A00001000000070000000100000005000000F0
:1052B00003000000020000000200000000000000E7
:1052C00001000000060000000000000001000000D6
:1052D00001000000080000000000000003000000C2
:1052E00000000000020000000300000004000000B5
:1052F00000000000040000000300000005000000A2
:105300000000000005000000010000000700000090
:105310000100000009000000010000000A00000078
:105320000000000006000000000000000B0000006C
:105330000000000008000000010000000000000064
:10534000000000000900000000000000070000004D
:105350000100000005000000020000000000000045
:10536000010000000600000001000000070000002E
:105370000000000003000000010000000900000020
:105380000300000004000000020000000400000010
:105390000200000000000000020000000300000006
:1053A00002000000020000000200000001000000F6
:1053B00000000000020000000000000009000000E2
:1053C00000000000080000000000000006000000CF
:1053D000000000000B0000000100000000000000C1
:1053E00001000000010000000100000002000000B8
:1053F00000000000050000000000000004000000A4
:10540000010000000A000000010000000B00000085
:105410000000000000000000952F00002D26000075
:1054200058390000C83A0000463C0000023A00002B
:10543000783A000043000000F8B5C046F8BC08BC4C
:105440009E467047192900007D2A0000D52E0000D5
:105450006530000091300000B53000004D4F000075
:0C546000F8B5C046F8BC08BC9E4670477A
:10546C0008B10181B0B000840000000008B10181D6
:10547C00B0B000840000000008B10181B0B000841D
:10548C000000000008B10181B0B0008400000000F1
:10549C0008B10181B0B000840000000008B10181A6
:1054AC00B0B000840000000008B10181B0B00084ED
:1054BC000000000008B10181B0B0008400000000C1
:1054CC0008B10181B0B000840000000008B1018176
:1054DC00B0B000840000000008B10181B0B00084BD
:1054EC000000000008B10181B0B000840000000091
:1054FC0008B10181B0B000840000000008B1018146
:10550C00B0B000840000000008B10181B0B000848C
:10551C000000000008B10181B0B000840000000060
:10552C0008B10181B0B000840000000008B1018115
:10553C00B0B000840000000008B10181B0B000845C
:10554C000000000008B10181B0B000840000000030
:10555C00A2B20181ABF0800100000000800A018141
:10556C00B0B0ABF00000000008B10181B0B0008415
:10557C000000000008B10181B0B000840000000000
:10558C0008B10181B0B00084000000003F26018109
:10559C00B0ABF0800000000008B10181B0B0008415
:1055AC000000000008B10181B0B0008400000000D0
:1055BC0008B10181B0B000840000000008B1018185
:1055CC00B0B000840000000080060181B0B0ABF0E8
:1055DC000000000008B10181B0B0008400000000A0
:0C55EC0008B10181B0B000840000000094
:1055F800DCBAFF7F010000000CBBFF7FB0B0A880C1
:1056080048BBFF7F0100000078BBFF7F58FEFF7F8B
:105618007CBBFF7FB0B0A8808CBBFF7F54FEFF7FB0
:1056280090BBFF7F58FEFF7F90BBFF7F5CFEFF7F34
:1056380094BBFF7F60FEFF7F94BBFF7FB0B0A88064
:10564800E0BBFF7F5CFEFF7FE8BBFF7F60FEFF7F64
:10565800F0BBFF7F64FEFF7FF0BBFF7FAB07B1802D
:1056680090BCFF7F60FEFF7F98BCFF7F64FEFF7FDA
:10567800A0BCFF7F68FEFF7FA8BCFF7F6CFEFF7F9A
:10568800B4BCFF7F01000000BCBCFF7F68FEFF7F49
:10569800E4BCFF7FB0AB08808CC4FF7F0100000032
:1056A800A8C4FF7FB0A8158018C6FF7FB0AB0A80DA
:1056B80058CDFF7FA908B18080CDFF7FB0AA1580A3
:1056C80064CFFF7FB0B0A88074CFFF7FA908B180F6
:1056D80088CFFF7FB0AB0880ACD0FF7FAB08B1802C
:1056E800C2D0FF7FB0B0A880DED0FF7F01000000ED
:1056F800E4D0FF7FB0AB0480D4D1FF7F04FEFF7FEE
:10570800DED1FF7FA908B18008D2FF7F0100000029
:1057180034D2FF7FAB07B18018D3FF7FF0FDFF7F46
:1057280022D3FF7FA908B1804CD3FF7F010000007E
:1057380038D4FF7FB0B0A88054D4FF7F01000000A8
:1057480014D7FF7FB0B0A8803CD7FF7FCCFDFF7F88
:105758003CD7FF7FD0FDFF7F3CD7FF7FD4FDFF7F85
:105768003CD7FF7FD8FDFF7F3CD7FF7F01000000BB
:1057780080D7FF7FD4FDFF7F8CD7FF7F010000001B
:105788005CDBFF7FB0A902801CDCFF7FB0B0A88083
:105798006CDCFF7FC0FDFF7F38DDFF7FA908B1808B
:1057A80064DDFF7F01000000F8DDFF7FB4FDFF7FAF
:1057B8005CE1FF7FB8FDFF7F60E1FF7FBCFDFF7FFD
:1057C80064E1FF7FC0FDFF7F68E1FF7FC4FDFF7FCD
:1057D80018E5FF7F0100000014E5FF7FAA0FB280E3
:1057E80068E5FF7FB8FDFF7F74E5FF7FA908B180FA
:1057F800ACE5FF7FB4FDFF7FC0E5FF7F010000003F
:10580800BCE5FF7FB0FDFF7FC4E5FF7FAA25B2801E
:105818002CE6FF7F0100000098E7FF7F00840480EA
:10582800A8E7FF7F9CFDFF7FA8E7FF7FA0FDFF7F24
:10583800C8EAFF7F00840480E8EAFF7F9CFDFF7FC1
:10584800ECEAFF7FA0FDFF7FF8EAFF7F0100000080
:10585800666F7228693D303B3B693D692B31297B76
:105868007072696E742869293B7D00000000000091
:105878000000000000000000000000000000000020
:105888000000000000000000000000000000000010
:105898000000000000000000000000000000000000
:1058A80000000000000000000000000000000000F0
:105C38000000000000000000006CDC020000000012
:105C480000000000EC030010EC030010F403001047
:105C5800F4030010FC030010FC03001004040010FF
:105C6800040400100C0400100C04001014040010AC
:105C7800140400101C0400101C040010240400105C
:105C8800240400102C0400102C040010340400100C
:105C9800340400103C0400103C04001044040010BC
:105CA800440400104C0400104C040010540400106C
:105CB800540400105C0400105C040010640400101C
:105CC800640400106C0400106C04001074040010CC
:105CD800740400107C0400107C040010840400107C
:105CE800840400108C0400108C040010940400102C
:105CF800940400109C0400109C040010A4040010DC
:105D0800A4040010AC040010AC040010B40400108B
:105D1800B4040010BC040010BC040010C40400103B
:105D2800C4040010CC040010CC040010D4040010EB
:105D3800D4040010DC040010DC040010E40400109B
:105D4800E4040010EC040010EC040010F40400104B
:105D5800F4040010FC040010FC04001004050010FA
:105D6800040500100C0500100C05001014050010A7
:105D7800140500101C0500101C0500102405001057
:105D8800240500102C0500102C0500103405001007
:105D9800340500103C0500103C05001044050010B7
:105DA800440500104C0500104C0500105405001067
:105DB800540500105C0500105C0500106405001017
:105DC800640500106C0500106C05001074050010C7
:105DD800740500107C0500107C0500108405001077
:105DE800840500108C0500108C0500109405001027
:105DF800940500109C0500109C050010A4050010D7
:105E0800A4050010AC050010AC050010B405001086
:105E1800B4050010BC050010BC050010C405001036
:105E2800C4050010CC050010CC050010D4050010E6
:105E3800D4050010DC050010DC050010E405001096
:105E4800E4050010EC050010EC050010F405001046
:105E5800F4050010FC050010FC05001004060010F5
:105E6800040600100C0600100C06001014060010A2
:105E7800140600101C0600101C0600102406001052
:105E8800240600102C0600102C0600103406001002
:105E9800340600103C0600103C06001044060010B2
:105EA800440600104C0600104C0600105406001062
:105EB800540600105C0600105C0600106406001012
:105EC800640600106C0600106C06001074060010C2
:105ED800740600107C0600107C0600108406001072
:105EE800840600108C0600108C0600109406001022
:105EF800940600109C0600109C060010A4060010D2
:105F0800A4060010AC060010AC060010B406001081
:105F1800B4060010BC060010BC060010C406001031
:105F2800C4060010CC060010CC060010D4060010E1
:105F3800D4060010DC060010DC060010E406001091
:105F4800E4060010EC060010EC060010F406001041
:105F5800F4060010FC060010FC06001004070010F0
:105F6800040700100C0700100C070010140700109D
:105F7800140700101C0700101C070010240700104D
:105F8800240700102C0700102C07001034070010FD
:105F9800340700103C0700103C07001044070010AD
:105FA800440700104C0700104C070010540700105D
:105FB800540700105C0700105C070010640700100D
:105FC800640700106C0700106C07001074070010BD
:105FD800740700107C0700107C070010840700106D
:105FE800840700108C0700108C070010940700101D
:105FF800940700109C0700109C070010A4070010CD
:10600800A4070010AC070010AC070010B40700107C
:10601800B4070010BC070010BC070010C40700102C
:10602800C4070010CC070010CC070010D4070010DC
:10603800D4070010DC070010DC070010E40700108C
:10604800E4070010FFFFFFFF00000200000000004F
:10605800080800100000000000000000F40A00100A
:106068005C0B0010C40B00100000000000000000D2
:106078000000000000000000000000000000000018
:106088000000000000000000000000003454000080
:1060980000000000000000000000000000000000F8
:1060A80000000000000000000000000000000000E8
:1060B80000000000000000000000000000000000D8
:1060C80000000000000000000000000000000000C8
:1060D80000000000000000000000000000000000B8
:1060E80000000000000000000000000000000000A8
:1060F8000000000000000000000000000000000098
:1061080001000000000000000E33CDAB34126DE634
:10611800ECDE05000B00000000000000000000009D
:106128000000000000000000000000000000000067
:106138000000000000000000000000000000000057
:106148000000000000000000000000000000000047
:106158000000000000000000000000000000000037
:046488000000000010
:040000030000110DDB
:00000001FF
