:10100000E01F00100D110000D5100000D9100000E5
:1010100000000000000000000000000000000000D0
:10102000000000000000000000000000DD100000D3
:101030000000000000000000E1100000A116000008
:101040005111000051110000511100005111000018
:101050005111000051110000511100005111000008
:1010600051110000511100005111000051110000F8
:1010700051110000511100005111000051110000E8
:101080005111000051110000511100007D160000A7
:10109000511100005111000000000000000000008C
:1010A000511100005111000051110000000000001A
:1010B00051110000511100005111000051110000A8
:1010C000243D0000000000104C0800004C080010F7
:1010D0004401000000B5FEE700B5FEE700B5FEE7FD
:1010E00000B5FEE700B5FEE710B5002302E01C588E
:1010F000043310C19342FAD310BD00B5002302E0BF
:10110000002204C004338B42FAD300BD10B50D4C4D
:1011100005E020686168A2680C34FFF7E5FF0A4B20
:101120009C42F6D304E0206861680834FFF7E5FFCD
:10113000064B9C42F7D300F073FB01F041FE00F038
:1011400065FBFEE7C0100000CC100000D4100000CA
:1011500000B5FEE738B50620012100F0D3FA6D2076
:10116000012100F0CFFA0B4D9621281C890100F0D7
:101170009FFB094C0C21201C00F037F9201C022198
:1011800000F039F9201C00F0AFF9281C034900F0E9
:101190007BFC38BD9808001060080010E0380000A3
:1011A000F8B50620002100F0DFFA6D20012100F0E3
:1011B000DBFA254D2549281C00F066FC012106209C
:1011C00000F0D2FA042000F01BFA281C204900F09D
:1011D0005BFC281C1F4900F057FC0620002100F092
:1011E000C3FA1D4C1D49201C00F0B6F91C4E1B49CA
:1011F0003060201C00F0B0F91A4F18493860201CEC
:1012000000F0AAF9184C19492060281C00F09AFB3C
:10121000281C31680A2200F044FC281C144900F004
:1012200091FB281C39680A2200F03BFC281C11495C
:1012300000F088FB281C21680A2200F032FCFA200A
:10124000800000F0DDF9F8BD98080010E6380000D5
:10125000F63800000639000060080010FF0F00009B
:101260004C08001054080010500800101F390000EE
:1012700024390000293900007047416070474170EF
:101280007047817070470000F0B585B0041C0E1CDB
:1012900070200121344D171C019300F033FA002314
:1012A000EB617020012100F05FFA304A0223002C2C
:1012B00004D0012C02D114602C6701E01360EB64B0
:1012C000012211236A662B66294B59681143596024
:1012D0000433D86F802109010143D96725490A6089
:1012E0000B1C072E15D8301C00F022FC0504070942
:1012F0000B0D0F1102221A600DE00422FBE70822F9
:10130000F9E71022F7E72022F5E74022F3E78022F1
:10131000F1E704230B60032F0CD8381C00F008FC05
:1013200002040608002304E0012302E0022300E097
:1013300003230393039A104B92011A6001991A68D0
:1013400001390A431A6080200C4A022140031961C6
:101350001060C52088401458FF25AC433F3D2C4306
:1013600005B014505960F0BD00400440B040044046
:1013700000800440948004400000044000E100E04C
:1013800008B5031C9978DA7800785B68FFF77CFF72
:1013900008BD38B5002508230221041C43600570F0
:1013A0004570C5708170FFF76CFF201C6168FFF706
:1013B00064FF291C201CFFF762FF201CFFF7E0FFE1
:1013C000201C38BD10B5054C201CFFF7E2FF201C87
:1013D0000349044A00F0D8F810BDC0465808001070
:1013E0007912000048080010704741607047417052
:1013F000704781707047C17070470000F7B5334C7B
:101400006B200D1C0121161C1F1C00F07BF9002312
:10141000A3606B20012100F0A7F92D4B0222A262EC
:101420001A601223E3652B4B04205968844601435C
:1014300059601B18D86F8021C90201432648D9671B
:10144000012101606446031C072D15D8281C00F0FB
:101450006FFB040906080B0D0F1119600DE01C60ED
:101460000BE008221A6008E01022FBE72022F9E7CF
:101470004022F7E78022F5E70460032E0CD8301CE9
:1014800000F056FB02040608002304E0012302E0FA
:10149000022300E003230193019A104B92011A608A
:1014A0001A68013F174380200D4A0221C0011F60C6
:1014B00019611060C320884015580A4C2C40C02583
:1014C0002D042C4314505960F7BDC0460040044021
:1014D0008C400440008004409C8004400080054013
:1014E00000E100E0FFFF00FF08B5031C9978DA78FF
:1014F00000785B68FFF782FF08BD38B50823002538
:101500000221041C43604570C57001708170FFF7B3
:1015100070FF201C6168FFF768FF291C201CFFF783
:1015200066FF201CFFF7E0FF201C38BD07B5094B04
:101530001222D9680A40022AF9D19860DA68D106E5
:10154000FCD4DA685107FCD5024B9B6801930198E3
:101550000EBDC0460080054008B5081CFFF7E6FF39
:1015600008BD000010B5054C201CFFF7C6FF201C6D
:101570000349044A00F008F810BDC0466008001096
:10158000E9130000480800100020704770B5C3B28E
:10159000002815DA0F221A40083A134892089200E0
:1015A0001218032003408340FC305568041C9C4003
:1015B0008901A543084098402B1C0343536011E068
:1015C00003248008094A2340C030A3408000FC3433
:1015D0008558261C9E408901B5430C409C402B1C1D
:1015E0002343835070BDC04618ED00E000E100E0E9
:1015F000024B80221203DA677047C04604E100E024
:1016000007B5044B1A6801921968019A8A1A824236
:10161000FAD307BD6C08001038B50F4B051C8022AB
:10162000D86FD2000243DA67012912DD0B4C302358
:10163000E36001399033216280226361084B120319
:101640001A6013200021FFF7A1FF01236360054BFF
:101650001D60002038BDC046048004400080014069
:1016600000E100E06808001008B5012149420020AF
:10167000FFF7D2FFFFF7BCFF08BD000010B5064C16
:1016800023685A0707D5054B1A68002A01D01B6842
:1016900098470423236010BD0080014068080010B3
:1016A000024B1A6801321A607047C0466C0800107D
:1016B00013B5104BFA211868890000F043FA019025
:1016C000019B0D4A0D4C93420CD81B021B0A013B97
:1016D0000120636040420321FFF758FF0023A3600D
:1016E0000733236023685A0702D4054B08221A6087
:1016F00013BDC04600000010FFFFFF0010E000E037
:10170000B080044030B5132806DC80234400134D1C
:10171000134AC0001B020AE063281DDDC7281BDC3A
:10172000643880230D4D0F4A44001B02C00001297C
:1017300008D11158013489006958A400C8581259B9
:10174000024308E01158013489006958A400125975
:10175000C8589043021CCA5030BDC0463039000002
:10176000203A00004039000010B5132803DC440083
:10177000104A114B07E063281BDDC72819DC6438C9
:101780000C4A0E4B4400C000012908D119580134FD
:10179000A40089001B59525899008B5009E0195830
:1017A00001348900A400525819598B009858884375
:1017B000985010BD30390000203A00004039000038
:1017C00070470000662343600A338360054A023B8A
:1017D000C3606E3B43700370036143618261C36108
:1017E0007047C046FFFFFF0010B5054C201CFFF7F7
:1017F000E9FF201C0349044AFFF7C6FE10BDC0469E
:1018000070080010C11700004808001008B5FFF765
:101810004FFFFFF729FFFFF79DFCFFF7C1FCFCE737
:1018200010B51C4B8E22920099582020814399506C
:1018300000221A62C0460132C82AFBD10021C73AF1
:1018400019645A6459645A64596C124AC807FBD522
:10185000232191606B31890050588024A04350505F
:10186000D86801210B4A0842FAD0032010670338D8
:10187000516750675167596F01221142FBD0054BE8
:1018800005499A670433D96790331A605A609A60A1
:1018900010BDC04600800440FFFF010070470023D8
:1018A0000370083343708E339B0143607047000020
:1018B00070B51B4B41601A1CA83210680724A04366
:1018C00010601568012005431560A4331A6880254F
:1018D000A2431A601A686D0102431A60114B1A1D67
:1018E000D66F3543D56794321060986F13680E4AEF
:1018F0001B0112685943504300F024F90B4B80221E
:10190000D9681143D960010A5960FF210840186065
:10191000D96891430322D960DA609C6070BDC046EB
:10192000004004400080044000000010008000409F
:1019300000B5034B5A699006FBD5196000BDC0463F
:101940000080004038B5051C0C1C03E0281CFFF784
:10195000EFFF013421780029F8D138BDF0B589B006
:10196000071C0C1C012A03D1C9B2FFF7E1FF7AE082
:101970000026B14204DA2D2369460B706442013619
:10198000082A0BD002D8022A5BD109E00A2A03D028
:10199000351C102A55D151E0351C3AE0351C27E0A2
:1019A000351C10E0314B2340002B04DA0222013BAE
:1019B0005242134301332E4AD35C6A465355E30F18
:1019C0001C1901356410002CECD13BE0294B23405D
:1019D000002B04DA0822013B524213430133264A0A
:1019E0006946D35C4B55E3175B0F1C190135E410B6
:1019F000002CEBD126E0201C0A2100F047F91F4BF8
:101A00006A465B5C201C53550A2100F0E9F8013559
:101A1000041C002CEFD115E0194B2340002B04DAF5
:101A20001022013B524213430133164A6946D35CEC
:101A30004B55E3171B0F1C1901352411002CEBD15A
:101A400000E0351C00236A46535505E069468B5D6E
:101A50004A5D8A554B550136013DAE42F6DB381CD6
:101A60006946FFF76FFF09B0F0BDC0460100008076
:101A7000B53A000007000080AC3A0000A13A00002F
:101A80000F000080903A000010B5041CFFF75AFFC9
:101A9000201C0D21FFF74CFF201C0A21FFF748FFF7
:101AA00010BD10B5041CFFF759FF201C0D21FFF7D6
:101AB0003FFF201C0A21FFF73BFF10BD10B5054C6E
:101AC000201CFFF7ECFE201C0349044AFFF75CFDD5
:101AD00010BDC046980800109D180000480800106E
:101AE000016042607047000008B503480021034AC6
:101AF000FFF7F6FF08BDC046A0080010FFFF00007A
:101B00007047031CA43370221A60704710B5054C4F
:101B1000201CFFF7F6FF201C0349044AFFF734FDA1
:101B200010BDC046A8080010011B000048080010A6
:101B300002B4714649084900095C49008E4402BC60
:101B40007047C046002934D00123002210B48842D7
:101B50002CD301242407A14204D2814202D20901DC
:101B60001B01F8E7E400A14204D2814202D24900FD
:101B70005B00F8E7884201D3401A1A434C08A042A0
:101B800002D3001B5C0822438C08A04202D3001B36
:101B90009C082243CC08A04202D3001BDC0822434D
:101BA000002803D01B0901D00909E3E7101C10BC71
:101BB0007047002801D00020C04307B4024802A1AA
:101BC0004018029003BDC046D90000000029F0D0A3
:101BD00003B5FFF7B9FF0EBC4243891A1847C04648
:101BE000002941D010B4041C4C40A446012300221B
:101BF000002900D54942002800D5404288422CD314
:101C000001242407A14204D2814202D209011B010E
:101C1000F8E7E400A14204D2814202D249005B000D
:101C2000F8E7884201D3401A1A434C08A04202D375
:101C3000001B5C0822438C08A04202D3001B9C08B6
:101C40002243CC08A04202D3001BDC082243002818
:101C500003D01B0901D00909E3E7101C6446002CDE
:101C600000D5404210BC7047002806D003DB00209E
:101C7000C043400801E08020000607B4024802A1EA
:101C80004018029003BDC046190000000029EBD0A7
:101C900003B5FFF7A7FF0EBC4243891A1847C04699
:101CA0007047C04600B50368002B00D01B18181CF5
:101CB00000BDC04600B503685A0003D45B005B0852
:101CC000C01800BD80210A061343F9E7F8B55F4646
:101CD00056464D464446F0B4814690460D1E26D0E9
:101CE00001398B468A4600260AE0611CC800484438
:101CF000FFF7E0FF0138474513D8404517D2661C6F
:101D0000331C5344D80FC4186410E5004D44281CFC
:101D1000FFF7D0FF071CA345E7D1012250424745FA
:101D2000EBD9B44202D0013CA246E9E70025281CC9
:101D30003CBC90469946A246AB46F8BD30B52B4B0D
:101D400083B0041C8D1E002B4AD0281C01A900E082
:101D500000BF031E22D02A1C181C0199FFF7B6FFF2
:101D6000051E1ED0281CFFF7A5FF6B68A064012B81
:101D700010D0002B24DB281DFFF79CFF0023E0641C
:101D800023650368002B0FDBFFF794FF2061002021
:101D900003B030BD013B23610520F9E72061093024
:101DA000F6E725610920F3E71A01100F00280CD08F
:101DB00001280DD002280FD0002020610920E7E77C
:101DC000281D0125E0642565DBE709492161DFE77E
:101DD000084D01382561DBE7074B02382361D7E75F
:101DE000064B0749C81AC2100192B4E70000000070
:101DF00085230000792300006D230000C43B000010
:101E0000243D000010B50368041CDA0705D49A07C6
:101E10000FD5483000F05CFD23685A070FD51A072C
:101E200014D5DA0604D48C208300E01800F05CFDA1
:101E300010BD483000F048FD23685A07EFD4201C3D
:101E4000D03000F049FD23681A07EAD4201CB130D5
:101E5000FF3000F045FD2368E3E7C046F0B55F467C
:101E600056464D464446F0B4C3682F4C9946A544A7
:101E70008369051C161C0431402292AC93A89A4633
:101E800001F046FA0023216C281C98469293FFF734
:101E900055FF731E9E411023071C09369B461EE00A
:101EA000A06B5B461E43606453460193009401207F
:101EB000311C2A1C2B1CC847002823D1002F22D1FB
:101EC0009026201C02A9B20001F022FA08239845AE
:101ED00022D1216C281CFFF731FF0926071C002F97
:101EE000DED1216C902269619200211C02A801F0D0
:101EF0000FFA2B69301C291C02AA984780461098BB
:101F00006064D1E70927094D381CAD443CBC9046BC
:101F10009946A246AB46F0BD013B09379845F2D140
:101F200093A800F0BBFCC04674FBFFFF8C040000CC
:101F300038B5041C0D1C296C201CFFF7FFFE00287F
:101F40000AD1286C23696061211C01202A1C984752
:101F50000828F0D0072801D000F02AFF281D00F043
:101F60009DFCC04600B500290ED1002B12D10F23D5
:101F700093428941494200290CD192008318586844
:101F8000019A1060081C04E004228A428041404209
:101F9000013000BD0220FCE700B585B003AB0A1C90
:101FA000002100930B1CFFF7DDFF039805B000BD77
:101FB00000B500290ED1002B12D10F239342894185
:101FC000494200290CD1019B920080181A68426096
:101FD000081C04E004228A4280414042013000BDD6
:101FE0000220FCE700B585B00B1C0392002103AA78
:101FF00000921A1C0B1CFFF7DBFF05B000BDC046AA
:10200000F0B55F4656464D464446F0B4CF6C9A460E
:1020100008238BB0034093460393032208CF0C1C84
:1020200010400021009007978A4500D0D5E008A80D
:1020300021260270009A190255466E4406913570A9
:10204000022A00D1D9E0206D0123034000D0DAE05C
:10205000009D02936B1E9D4104955D463E68002ED7
:102060002FD002239A4500D18FE03B887E88043729
:102070009B46B946A06C0127311CB9430A18281C9D
:102080000F219046FFF788FF0023804505D85B4667
:10209000BB4343449842BF417B4201273E405A46DE
:1020A000BE403A401643BE4200D173E0002E0AD132
:1020B000002B00D029E104210F1C4F443E68002E64
:1020C000CFD1AB46A1E0022E07D009200BB03CBC1B
:1020D00090469946A246AB46F0BD49460A6800982C
:1020E000560071088B46002800D0ACE0002B44D08D
:1020F00000239B4502D0039F9F423ED10026B3455B
:1021000000D1F7E0582004220319171C5946019307
:102110004F440026C90700D4BCE049460591A946B2
:1021200013E00437AB4500D8CBE02E1C019D381CD2
:102130000995FFF7B7FD4246011C09AB201C00E0E2
:1021400000BF002811D104370136019B381C0993C8
:10215000FFF7A8FD0022011C09AB201C00E000BF16
:1021600000228046751C9045DBD0059B4D46994664
:102170005E4500D1BEE04B461A68002A6EDB0122A4
:10218000101C584487004F4468E7B3467E68083700
:10219000B9466FE70098002863D1002B19D04A4652
:1021A0005368484640C8991C00D18EE7221C58321B
:1021B000099201330AD0FFF775FDF20F011C09AB3C
:1021C000201C00E000BF002878D0099A002A00D027
:1021D00090E008210F1C4F4440E7190C2126CAB299
:1021E0001D046E44022332709A40BF18009A08A85A
:1021F00006950370022A00D025E7206D0123A76B06
:10220000034000D124E70024029406A9584600F0B8
:102210000FFC011C0920002900D057E7029D01385E
:10222000002D00D152E70F215846FFF7B5FE0E21D1
:10223000021C5846FFF7D6FE58460F214A4AFFF7C0
:10224000D1FE072042E7281C0D21266AFFF7A4FED5
:1022500086423CD049460A68002A90DA0423994411
:102260008DE7281C0D21266AFFF796FE8642B0D125
:10227000A76AB945ADD14846FFF71CFD0F21021CE6
:10228000281CFFF7AFFE281C0021221CFFF7AAFE26
:1022900007201BE7019B381C0993FFF703FD321C45
:1022A000011C09AB201C00E000BF002800D05FE744
:1022B0004A46043701260592A94646E7009B099342
:1022C00087E7059AA84646464D46914650E7A36AD9
:1022D000994500D04FE70420002220635946484426
:1022E000E262A162904660634A461268424527DB7B
:1022F000029744E7281C0D21FFF74EFE2062099843
:102300004F466062A7620620E0E6049E002E00D1E0
:10231000D1E64846FFF7CEFC4F460437A763AB46ED
:10232000051C201C00E000BF041C0920002C00D16B
:10233000CCE658460F212A1CFFF754FE0720C5E6BD
:102340005E460136AA464F46B5007819FFF7B2FC43
:102350000F21021C5046FFF745FE50464146221C05
:10236000FFF740FE0720B1E60000000008B5022399
:10237000FFF746FE08BDC04608B50123FFF740FE43
:1023800008BDC04608B50023FFF73AFE08BDC046A9
:10239000F0B55F4656464D464446F0B4041CE7B0DF
:1023A000161C0220042951D881405C4842589746A7
:1023B0000220002B4AD13604360CA36BF00701D55E
:1023C00002CB6160B10701D520CBA560720701D5B2
:1023D00080CBE760370701D504CB2261F00601D539
:1023E00001CB6061B10601D502CBA161720601D5B6
:1023F00020CBE561370601D580CB2762F00501D5FA
:1024000004CB6262B10501D501CBA062720501D592
:1024100002CBE162370501D520CB2563F00401D55D
:1024200080CB676380229201324001D001CBA06350
:10243000710401D502CBE16380273D022E4201D019
:1024400040CB26640020824200D1A36367B03CBC2D
:1024500090469946A246AB46F0BD0220032BF5D12B
:102460003304350C1E0C71191029EFD8236808228B
:10247000134200D03CE122A800F034FAA06B7600B1
:102480008446031C002E1DD0ED0004CB22AFED19B5
:10249000701E04C5002812D00122002A04D001CBEE
:1024A00001C5B01E00280AD0191C80C92A1C80C290
:1024B0005F6802386F600B1D151D0028F4D1B6004F
:1024C000331C634422A8A36300F00AFA0020BDE78E
:1024D000002B00D0E5E01033B34200D2E1E02268E7
:1024E0001A4200D0F7E062A800F000FAA36BF707E9
:1024F00001D520CB6295B00701D504CB639271075B
:1025000001D502CB6491320701D580CB659762A8D3
:10251000A36300F0E9F9002098E7C046B83A00004C
:102520005A1F511E8A41002A00D0BCE03004350CED
:10253000060CB146291C49442027012B00D1C8E0D4
:1025400002208F4200D281E75E1E774277410F263C
:10255000B846AE42BF417F42002F00D0C3E0BB4629
:10256000102900D9A4E00F2D0FD8226801210A42BA
:102570000BD08A432260052B00D1DCE002239A4372
:10258000201C2260483000F0A1F90022934504D0BD
:1025900023680422134200D0BFE00020804500D011
:1025A000C2E00F2D00D8B4E00026B34500D08AE089
:1025B0004E46A36B9A469946002E2ADD76000227E6
:1025C000B146EB0000AE524678429B1902CA061C87
:1025D0004E4402C3701C18D00120002806D00321ED
:1025E00080CA4E424E4480C3771C0ED0101C02C8D5
:1025F000023E8C466746191C80C152689446021DF3
:10260000604658600B1D711CF0D14A4693009946F4
:10261000D1440026B3452FD05846400082462B1C9B
:10262000102D00D21023103B022142AEDB004A469F
:102630004F429B1901CA3E1C564401C3701C18D05E
:102640000120002806D0032180CA4E42564480C390
:10265000701C0ED0101C02C8023E8C466746191C26
:1026600080C152689446021D604658600B1D711C63
:10267000F0D15246930099440026B04540D14F46D0
:10268000A7630F2D02D8684600F022F958460028AB
:1026900000D1DBE642A800F01FF90020D6E60120B9
:1026A000D4E60220D2E60220012B00D13EE7CDE69F
:1026B00010398B460026B34500D154E70220B242C0
:1026C00000D0C3E64FE742A800F008F910214E1BE6
:1026D0006FE7103F34E78C209A4383002260E018B4
:1026E00000F004F9FFE60021CB468845E2D0ADE6D4
:1026F000201C9343B1302360FF3000F0F3F8BAE6BA
:102700000420051C4D446846A56300F0DDF8002058
:102710009CE6684600F0DEF846E79343201C236001
:10272000D03000F0DBF838E76846002700F0CEF83C
:10273000BB45CBD13CE7033B1A43201C2260483009
:1027400000F0C8F821E7C046406C704770B5154CE2
:10275000CD6BA5440D64041C0E1C01A8043140225D
:1027600000F0D6FD01204342009300E0109D201CA4
:10277000291CFFF7E3FA00280BD12569211C6A46C2
:10278000A847051C0828F1D06846FFF73BFB062D3B
:1027900004D0902189008D44092070BD201C311C7B
:1027A000FFF7C6FBC0FDFFFF08B58261DA6BC160B1
:1027B0001A64191C0022FFF751FB08BD38B5041C30
:1027C000E36840690D1C0864002B05D00122201C21
:1027D000FFF744FB00F0ECFA23690220211C2A1CBD
:1027E0009847072803D0082804D000F0E1FA281DF4
:1027F00000F054F8201C291CFFF79AFB08B5C368A9
:10280000002B05D0CA6B0A640022FFF727FB08BD26
:10281000FFF79CFFFBE7C0467047C04608B58368DA
:10282000011C002B01D00120984708BD70B51A4C3F
:10283000061CA544D46B0D1C1464111D01A8402274
:1028400000F066FD01204342009302E0052818D005
:10285000109C90A8211CFFF771FA002819D1684636
:102860000C2190AAFFF7BEFB6846291CB047002840
:102870000FD1949B083090A96A469847041C0928F8
:10288000E4D16846FFF7BEFAA62189008D44201CDA
:1028900070BD0924F5E7C04668FDFFFF011C343117
:1028A00038C9043B9C461D60A646011C20313CC92A
:1028B00090469946A246AB46011C0831FCC94168C6
:1028C0000068E54600BDC0467047C0467047C04638
:1028D0007047C0467047C0467047C0467047C04604
:1028E0007047C0467047C0467047C0467047C046F4
:1028F00001B401A801B585B0FFB408A841464A4615
:1029000053465C4665463EC001A83EC80F980090FD
:1029100000230CB401A9FFF719FF109B12B0184750
:1029200001B401A801B585B0FFB408A841464A46E4
:1029300053465C4665463EC001A83EC80F980090CD
:1029400000230CB401A9FFF739FF109B12B0184700
:1029500001B401A801B585B0FFB408A841464A46B4
:1029600053465C4665463EC001A83EC80F9800909D
:1029700000230CB401A9FFF741FF109B12B01847C8
:1029800001B401A801B585B0FFB408A841464A4684
:1029900053465C4665463EC001A83EC80F9800906D
:1029A00000230CB401ABFFF7FFFE109B12B01847D9
:1029B00001B401A801B585B0FFB408A841464A4654
:1029C00053465C4665463EC001A83EC80F9800903D
:1029D00000230CB401AAFFF729FF109B12B018477F
:1029E00000B5027A031C002A0ED1427AB020002AD8
:1029F00009D0013A58685A7204C803215860197204
:102A0000100E12021A6000BD013A02720268F7E766
:102A100000B585B003AB002100930C220B1CFFF71F
:102A2000A1FA039805B000BD08B5FFF7F1FF08BD96
:102A3000F0B55F4656464D464446F0B487B00D1C8F
:102A4000002103918022F023F831061C904699461C
:102A50008B46281CFFF7C4FF041CB02800D1ADE052
:102A6000434603409C4628D04B460340802B00D170
:102A700071E0902B3CD0A02B57D0B02B00D183E03D
:102A8000C02B00D1AFE05B460340D02B0CD1072018
:102A900004407930020301342243301C0121CB3B36
:102AA000FFF776FC0028D4D0092407B0201C3CBCDA
:102AB00090469946A246AB46F0BD8700FF233B40B7
:102AC00004339A4605AF6146301C0D2263460097D9
:102AD000FFF748FA610624D5059952468C1A0594E9
:102AE00000970021301C0D220B1CFFF761FAB0E7A4
:102AF0000F2202400F2AD7D0141C0D3C63425C41C8
:102B0000002CD1D105AF211C231C301C0097FFF7EE
:102B100029FA301C211C0D22231C0097FFF748FACC
:102B200097E7059850440590DAE707225F33824320
:102B30001801011C11410A1C0240230702D5802400
:102B4000E3011A430021301C0B1CFFF721FC002875
:102B500000D17EE7A8E70402281CFFF741FF80238D
:102B600004431F02BC429FD02405240C0021301CCA
:102B7000221C0B1CFFF70CFC002895D13C4200D115
:102B800067E70127039764E7B12871D0B22800D125
:102B90008BE0B3287ED0FC202040B42846D0072705
:102BA0003C40793701343A0322430121301C0B1C8D
:102BB000FFF7EEFB002800D14BE775E70398B03C28
:102BC000A04200D071E705AD211C231C301C0E2251
:102BD0000095FFF7C7F9301C211C0F22231C00951C
:102BE000FFF7E6F961E7C6282FD0C72800D185E0B6
:102BF0005B460340C02B00D192E0C82800D196E08C
:102C0000C92800D050E7281CFFF7EAFE0F214B46E9
:102C1000034008401F03421C3A43301C0121052396
:102C2000FFF7B6FB002800D113E73DE7032214406D
:102C30007D320134D20202212243301C0B1CFFF7EB
:102C4000A7FB002800D104E72EE7281CFFF7C8FEE9
:102C50000F244B46034020401903421C0A43032122
:102C6000301C0B1CFFF794FB002800D1F1E61BE79A
:102C7000281CFFF7B5FE021E00D115E74B46134096
:102C800000D011E7301C191CFFF782FB002800D18F
:102C9000DFE609E7281CFFF7A3FE4B4603401C03B1
:102CA0000F231840421C22437FE705A900918A4662
:102CB00000210D220B1C301CFFF754F9281CFFF7D4
:102CC0008FFE4246B03C10420CD07F27059A384018
:102CD000A04010180590281CFFF782FE43460734D9
:102CE0001842F3D1059A81217F238F001840D11912
:102CF000A0400F18524605970092F2E6281CFFF7F5
:102D00006FFE021E00D1CFE64B46134000D0CBE64B
:102D1000301C0421FFF73CFB002800D199E6C3E6F4
:102D2000B13B1C40A02001340203224397E7281C3A
:102D3000FFF756FE4A4602400F231840103201307A
:102D4000120302430121301C0A3BFFF721FB00283C
:102D500000D17EE6A8E6C04600B5C26C85B05068DA
:102D600001AB00020190101C083002900320187281
:102D7000D279081C5A72191CFFF75AFE05B000BD23
:102D800008B5FFF751FE806C08BDC04608B5FFF7D7
:102D90004BFEC36CD9791A1D01318800101808BD8B
:102DA00008B500F005F8C04608B500F001F8C046C7
:102DB00008B5062000F0CAFB012000F049FDC0461E
:102DC00070B50D4D0D4E761BB610002E05D00024AB
:102DD00008CD01349847A642FAD800F079FE084D94
:102DE000084E761BB610002E05D0002408CD013405
:102DF0009847A642FAD870BDDC3A0000DC3A0000E1
:102E0000DC3A0000F83A0000F0B55F4656464D4601
:102E10004446F0B40D1C0B3583B0071C162D2CD97D
:102E200007239D43EB0F8D422BD3002B29D1381C58
:102E300000F0EAFA8B4B9D4227D8EA088A4ED3006D
:102E4000F318DC689C4200D1B6E163680322A168F4
:102E50009343E268E318CA6091605A6801210A430B
:102E6000381C5A6000F0D2FA201C083003B03CBC79
:102E700090469946A246AB46F0BD102500238D42F0
:102E8000D3D20C233B600020F0E76B0A002B2BD041
:102E9000042B00D979E1AB0938339946D900724E39
:102EA0007118CC68A14226D0626803208243531B6C
:102EB0000F2B08DD1CE0E468A1421CD0626882434D
:102EC000531B0F2B14DC002BF5DBE368A168A21861
:102ED000CB609960536801210B43381C536000F0AC
:102EE00095FA201C0830C1E7E8088146C100D6E702
:102EF00001235B4299440124A144311C08318C68B0
:102F0000A14200D185E0626803239A43531B934694
:102F10000F2B00DD42E1C9608960002B00DB9DE0E2
:102F2000524B9B4551D8D208931001209840D200B3
:102F30007368B21803439068E260A060C460946054
:102F40004C46A210012090407360984268D8184205
:102F50000CD103229443221C0432400091461842B3
:102F600004D10422400091440342FAD0032398463E
:102F70004C46E3009B199B469C46CA466246D46871
:102F8000A44507D10FE1002B00DB1EE1E468A44556
:102F900000D108E1626843469A43531B0F2BF2DDD0
:102FA000012062190543A6686560E568F560AE60BA
:102FB0001843CA608A605060D1609160381CD35059
:102FC00000F024FA201C083050E7530A042B00D9E3
:102FD0000EE19009383080464046C3009B199C465C
:102FE0009B68634500D117E15A68032082438046FD
:102FF000934506D308E05868021C40468243934537
:1030000002D29B689C45F6D1DA68E260A360DC607E
:1030100094604C46A210012073689040984296D963
:10302000B468032263680F2193439A465B1BD80F51
:10303000033A99424241D2B2002A19D1AA4517D384
:103040000122111C2943134365196160381CB560C6
:103050006B6000F0DBF9201C083007E7221C5A44A3
:1030600038E7C046F701000004000010FF0100002F
:10307000A348A4490368804610335B199B468B68BC
:103080008946013305D0A04A131C5B441B0B1B036C
:103090009B46381C594600F0BBF90190431C5CD09C
:1030A000221C5244824200D9A7E041464B685B444F
:1030B0004B60824200D1F4E049468968013100D179
:1030C000FAE0C3189A1A43465A600723034000D116
:1030D0009FE00822D21A8018019080204001121827
:1030E0000199381C0B1C5B441B051B0DD31A191CC2
:1030F000994600F08DF9421C00D1E8E0019BC01A0E
:103100004844012318434246536801994B44536095
:10311000B1604860B44215D00F22924500D894E0C7
:103120000C204042021C0721606852448A43063941
:103130000140114361600520A118486088600F2A92
:1031400000D9BCE04446E26A934200D9E3624046BB
:10315000026B934201D941460B63B4680323626852
:103160009A4392465246531B0021D80F0F2288469D
:103170009A424141C9B2414502D1AA4500D35FE715
:10318000381C00F043F9002070E6142B2CD9542B86
:1031900036D82B0B6E339946D90080E60120621990
:1031A0000543656004E70124A244524643461A429F
:1031B00051D00824A444E1E6231C64690232083398
:1031C0009146A34200D198E63FE6A2185368012138
:1031D0000B435360E368A268381CD3609A6000F028
:1031E00015F9201C083041E65B339946D90056E6B4
:1031F000142B23D85B339846EEE6B442ADD154E7A6
:10320000AA225200934211D8EB0B77339946D9008A
:1032100045E68022520163E7424690100122824037
:10322000101C7268024372601A1CEEE6374A934221
:1032300029D8AB0C7C339946D90030E6542B27D8DB
:103240005B46180B6E308046C6E601234B60013B9F
:103250000C1C9A4686E75B464C4600E0013C424621
:10326000144244D01A1C1B68083A9342F6D0736883
:103270004000984200D9D3E6002800D1D0E60342AE
:1032800039D0D14674E6FC217E228900914606E6BB
:10329000AA20400083421ED85A46D00B7730804681
:1032A0009AE61105002900D006E75946B268514454
:1032B00001200143516045E74A46906005E7211C23
:1032C0000831381C00F0D2F941464B683AE700213A
:1032D0000120894617E70D4A7E20944680466345C3
:1032E00000D979E65B46980C7C30804674E67368BA
:1032F00083437360BBE70424A2444000BFE7C04699
:103300005009001004040010FF0F000054050000D5
:10331000F0B54F464646C0B4032A0BD8002A05D064
:103320000023CC5CC45401339342FAD10CBC9046C8
:103330009946F0BD8218031C032503E00C78013187
:103340001C70013303242B42F8D10C4041D0E7001C
:10335000BC46042766423C1BE4008D59A1460BE0A5
:1033600004318F596446E540A8464C463D1CA540B3
:103370004446254320C33D1CD71A032FF0DC03E04D
:103380000C7801311C7001339342F9D3CEE70C68FD
:103390001C604C685C608C689C60CC68DC600C696C
:1033A0001C614C695C618C699C61CC69DC610C6A54
:1033B0001C624C6A5C628C6A9C62CC6ADC620C6B3C
:1033C0001C634C6B5C638C6B9C63CC6B4031DC632B
:1033D0004033D41A3F2CDADC0AE00C681C604C68DD
:1033E0005C608C689C60CC681031DC601033D41A4F
:1033F0000F2CF2DC0D1C03E00968043502C3D41A5B
:10340000291C032CF8DCBFE77047C0467047C04654
:1034100038B5074C0023051C2360081C00F0F8F9A0
:10342000431C00D038BD2368002BFBD02B60F9E78C
:103430008809001070B5B725AD004659041C00205E
:10344000864200D070BD201C8021FFF7DDFC60515A
:10345000002807D0021C031C8032301C01C3934299
:10346000FCD1EFE701204042ECE7C046F8B5051C6F
:103470000C1C161C1F2909D8B727BF00C359002BE5
:1034800009D0A4001B1918681E60F8BD162303603C
:1034900001204042F9E7FFF7CDFF002801D1EB59A9
:1034A000EFE701204042F0E770B5061C0C1C1F2915
:1034B00021D8B7239B00C358002B12D08A009A183A
:1034C0001368002B0DD00025012B04D0591C04D00B
:1034D0001560201C9847281C70BD17330360013508
:1034E000F9E7301C00F06EF8221C011C301C00F0C3
:1034F00055F8051CEFE71623012503606D42EAE746
:1035000070B5051C0C1C1F2916D8B726B6008359A8
:10351000002B14D0A2009A1813680120002B0AD0A7
:103520000018591C07D00130012B04D00025201CA5
:1035300015609847281C70BD01204042FBE7FFF74B
:1035400079FF0028F8D1AB59E4E7C04608B5034B32
:10355000011C1868FFF7A8FF08BDC046180400103A
:1035600008B50A1C0349031C0868191CFFF77EFFF5
:1035700008BDC0461804001008B5024B1868FFF7D4
:1035800059FF08BD1804001008B5034B011C18684A
:10359000FFF7B6FF08BDC0461804001038B5084C48
:1035A0000023051C2360081C111C00F05BF9431C60
:1035B00000D038BD2368002BFBD02B60F9E7C04654
:1035C0008809001008B500F045F908BDF8B50F1CD2
:1035D000041CFFF719FF204D204AAB685E680323E7
:1035E0009E43B318DF1B3F0B013F1D4B3F039F4220
:1035F00007DD201C0021FFF70BFFAB689B199842E9
:1036000004D0201CFFF702FF0020F8BD7942201CE7
:10361000FFF7FEFE01300DD0AB68F61B01252E43EF
:103620005E60104B201C1A68D71B1F60FFF7EEFE70
:10363000281CEAE7201C0021FFF7EAFEAB68C21A4B
:103640000F2ADEDD08490968401A06490860012191
:103650000A435A60D5E7C04604000010EF0F00008F
:10366000FF0F0000540900100C040010F0B557467D
:103670004E464546E0B4051C0C1E5DD0083CFFF7E5
:10368000C3FE60680121031C8B43E21857680326C0
:10369000B7435A4E8046B068844694456CD00020AB
:1036A000844640465760084080460ED120688C46CC
:1036B000241A1B18A068824608208019824504D06D
:1036C000E1685046C1608860C446D119486801214C
:1036D000084207D10020DB19844532D09068D268B7
:1036E000C26090600122111C194361600021E35007
:1036F0008C451ED142498B4230D95A0A042A54D8EB
:1037000099093831C80030188268824253D0516814
:103710000326B1438B4204D306E05168B1438B4288
:1037200002D292689042F8D1D368E360A260D4607C
:103730009C60281CFFF76AFE1CBC90469946A24676
:10374000F0BD371C90680837B842C8D11943C4602F
:103750008460E060A0606160E350EAE7DB089910F4
:103760008A407168DB000A437260F618B368E6604D
:10377000A360DC60B460DCE74246FB180A4206D175
:103780002268A41AA1689B18E268CA6091600122AD
:103790001A4362601B4AB46012689342C9D31A4B41
:1037A000281C1968FFF712FFC3E7142A0CD8111C54
:1037B0005B31C800A7E7891001238B40191C73688F
:1037C00019437160131CB0E7542A03D8190B6E31EA
:1037D000C80098E7AA2149008A4203D8D90B77315B
:1037E000C80090E709498A4203D8990C7C31C80087
:1037F00089E7FC2080007E2185E7C0460400001098
:10380000FF010000100400105009001054050000D2
:1038100070B50D4B1A68002A01D10C4A1A600A4D86
:10382000C61C2C6803239E43A619301C00F022F806
:10383000002801D12E6005E000F04CF801240C2393
:1038400003606442201C70BD8C09001090090010B8
:1038500000B5FEE7024B5822012040421A60704733
:1038600088090010024B5822012040421A6070471C
:103870008809001000B5094A6B46934203D9984263
:1038800001D3012008E0064B002B01D1002003E00A
:10389000002298425241101C00BDC0469009001001
:1038A0000000000000B5034B1A78002A01D1013254
:1038B0001A7000BD8409001008B504480368002B85
:1038C00003D0034B002B00D0984708BD4C080010D4
:1038D00000000000014B18687047C0461804001033
:1038E000537461727400E7A98DE7AE97E38292E9A1
:1038F000968BE5A78B00E7A98DE7AE97E38292E769
:10390000B582E4BA8600E38387E383BCE382BFE346
:1039100083AAE383BCE38389E9968BE5A78B0072D6
:10392000203D200067203D200062203D2000000057
:103930000000005000000150000002500000035041
:10394000010000000400000001000000020000006F
:10395000010000001000000001000000000800004D
:1039600001000000800000000100000020000000B5
:10397000030000000400000002000000010000003D
:1039800001000000400000000000000002000000F4
:10399000010000000001000000000000080000001D
:1039A0000000000004000000030000001000000000
:1039B00000000000100000000300000020000000D4
:1039C0000000000020000000010000008000000056
:1039D00001000000000200000100000000040000DF
:1039E000000000004000000000000000000800008F
:1039F00000000000000100000100000001000000C4
:103A00000000000000020000000000008000000034
:103A10000100000020000000020000000100000082
:103A200001000000400000000100000080000000D4
:103A3000000000000800000001000000000200007B
:103A40000300000010000000020000001000000051
:103A50000200000001000000020000000800000059
:103A6000020000000400000002000000020000004C
:103A70000000000004000000000000000002000040
:103A800000000000000100000000000040000000F5
:103A90003031323334353637383941424344454684
:103AA0000030313233343536373839003031323343
:103AB0003435363700303100B023000020250000B7
:103AC0009E2600005A240000D0240000430000007D
:103AD000F8B5C046F8BC08BC9E467047C513000048
:103AE00065150000E9170000BD1A0000E91A000082
:103AF0000D1B0000B9380000F8B5C046F8BC08BC82
:043B00009E46704726
:103B040008B10181B0B000840000000008B1018157
:103B1400B0B000840000000008B10181B0B000849E
:103B240000000000A2B20181ABF08001000000009F
:103B3400800A0181B0B0ABF00000000008B101813F
:103B4400B0B000840000000008B10181B0B000846E
:103B54000000000008B10181B0B000840000000042
:103B64003F260181B0ABF0800000000008B1018164
:103B7400B0B000840000000008B10181B0B000843E
:103B84000000000008B10181B0B000840000000012
:103B940008B10181B0B000840000000080060181FA
:103BA400B0B0ABF00000000008B10181B0B00084F7
:103BB4000000000008B10181B0B0008400000000E2
:103BC40010D5FF7F0100000040D5FF7FB0B0A88072
:103BD4007CD5FF7F0100000078D5FF7FA908B18064
:103BE400BCD5FF7FAB08B1808CD6FF7F01000000FD
:103BF40094D6FF7FB0AB048084D7FF7F04FFFF7FA0
:103C04008ED7FF7FA908B180B8D7FF7F01000000DD
:103C1400E8D7FF7FAB07B180CCD8FF7FF0FEFF7FF2
:103C2400D6D8FF7FA908B18000D9FF7F010000002A
:103C340048DAFF7FB0B0A88064DAFF7F010000009B
:103C4400C8DBFF7FD4FEFF7FD4DBFF7F01000000D1
:103C5400E8E0FF7FB0A90280A8E1FF7FB0B0A880B0
:103C6400F8E1FF7FC0FEFF7FC4E2FF7FA908B180B7
:103C7400F0E2FF7F0100000084E3FF7FB4FEFF7FDA
:103C8400E8E6FF7FB8FEFF7FECE6FF7FBCFEFF7F28
:103C9400F0E6FF7FC0FEFF7FF4E6FF7FC4FEFF7FF8
:103CA400A4EAFF7F01000000A0EAFF7FAA0FB28010
:103CB400F4EAFF7FB8FEFF7F00EBFF7FA908B18025
:103CC40038EBFF7FB4FEFF7F4CEBFF7F0100000069
:103CD40048EBFF7FB0FEFF7F50EBFF7FAA25B28049
:103CE400B8EBFF7F0100000024EDFF7F0084048017
:103CF40034EDFF7F9CFEFF7F34EDFF7FA0FEFF7F4E
:103D040054F0FF7F0084048074F0FF7F9CFEFF7FEB
:103D140078F0FF7FA0FEFF7F84F0FF7F01000000AA
:103D2400006CDC0200000000000000000400001031
:103D3400040000100C0000100C000010140000100F
:103D4400140000101C0000101C00001024000010BF
:103D5400240000102C0000102C000010340000106F
:103D6400340000103C0000103C000010440000101F
:103D7400440000104C0000104C00001054000010CF
:103D8400540000105C0000105C000010640000107F
:103D9400640000106C0000106C000010740000102F
:103DA400740000107C0000107C00001084000010DF
:103DB400840000108C0000108C000010940000108F
:103DC400940000109C0000109C000010A40000103F
:103DD400A4000010AC000010AC000010B4000010EF
:103DE400B4000010BC000010BC000010C40000109F
:103DF400C4000010CC000010CC000010D40000104F
:103E0400D4000010DC000010DC000010E4000010FE
:103E1400E4000010EC000010EC000010F4000010AE
:103E2400F4000010FC000010FC000010040100105D
:103E3400040100100C0100100C010010140100100A
:103E4400140100101C0100101C01001024010010BA
:103E5400240100102C0100102C010010340100106A
:103E6400340100103C0100103C010010440100101A
:103E7400440100104C0100104C01001054010010CA
:103E8400540100105C0100105C010010640100107A
:103E9400640100106C0100106C010010740100102A
:103EA400740100107C0100107C01001084010010DA
:103EB400840100108C0100108C010010940100108A
:103EC400940100109C0100109C010010A40100103A
:103ED400A4010010AC010010AC010010B4010010EA
:103EE400B4010010BC010010BC010010C40100109A
:103EF400C4010010CC010010CC010010D40100104A
:103F0400D4010010DC010010DC010010E4010010F9
:103F1400E4010010EC010010EC010010F4010010A9
:103F2400F4010010FC010010FC0100100402001058
:103F3400040200100C0200100C0200101402001005
:103F4400140200101C0200101C02001024020010B5
:103F5400240200102C0200102C0200103402001065
:103F6400340200103C0200103C0200104402001015
:103F7400440200104C0200104C02001054020010C5
:103F8400540200105C0200105C0200106402001075
:103F9400640200106C0200106C0200107402001025
:103FA400740200107C0200107C02001084020010D5
:103FB400840200108C0200108C0200109402001085
:103FC400940200109C0200109C020010A402001035
:103FD400A4020010AC020010AC020010B4020010E5
:103FE400B4020010BC020010BC020010C402001095
:103FF400C4020010CC020010CC020010D402001045
:10400400D4020010DC020010DC020010E4020010F4
:10401400E4020010EC020010EC020010F4020010A4
:10402400F4020010FC020010FC0200100403001053
:10403400040300100C0300100C0300101403001000
:10404400140300101C0300101C03001024030010B0
:10405400240300102C0300102C0300103403001060
:10406400340300103C0300103C0300104403001010
:10407400440300104C0300104C03001054030010C0
:10408400540300105C0300105C0300106403001070
:10409400640300106C0300106C0300107403001020
:1040A400740300107C0300107C03001084030010D0
:1040B400840300108C0300108C0300109403001080
:1040C400940300109C0300109C030010A403001030
:1040D400A4030010AC030010AC030010B4030010E0
:1040E400B4030010BC030010BC030010C403001090
:1040F400C4030010CC030010CC030010D403001040
:10410400D4030010DC030010DC030010E4030010EF
:10411400E4030010EC030010EC030010F40300109F
:10412400F4030010FC030010FC030010FFFFFFFF6A
:104134000000020000000000200400100000000045
:10414400000000000C07001074070010DC070010CA
:10415400000000000000000000000000000000005B
:10416400000000000000000000000000000000004B
:1041740000000000CC3A0000000000000000000035
:10418400000000000000000000000000000000002B
:10419400000000000000000000000000000000001B
:1041A400000000000000000000000000000000000B
:1041B40000000000000000000000000000000000FB
:1041C40000000000000000000000000000000000EB
:1041D40000000000000000000000000000000000DB
:1041E40000000000000000000100000000000000CA
:1041F4000E33CDAB34126DE6ECDE05000B0000008F
:1042040000000000000000000000000000000000AA
:10421400000000000000000000000000000000009A
:10422400000000000000000000000000000000008A
:10423400000000000000000000000000000000007A
:040000030000110DDB
:00000001FF
