:10100000E01F00100D110000D5100000D9100000E5
:1010100000000000000000000000000000000000D0
:10102000000000000000000000000000DD100000D3
:101030000000000000000000E11000008D19000019
:101040005111000051110000511100005111000018
:101050005111000051110000511100005111000008
:1010600051110000511100005111000051110000F8
:1010700051110000511100005111000051110000E8
:1010800051110000511100005111000069190000B8
:10109000511100005111000000000000000000008C
:1010A000511100005111000051110000000000001A
:1010B000C91B0000C11B0000B91B0000B11B0000D0
:1010C000D04A0000000000104C0800004C0800103E
:1010D000A005000000B5FEE700B5FEE700B5FEE79D
:1010E00000B5FEE700B5FEE710B5002302E01C588E
:1010F000043310C19342FAD310BD00B5002302E0BF
:10110000002204C004338B42FAD300BD10B50D4C4D
:1011100005E020686168A2680C34FFF7E5FF0A4B20
:101120009C42F6D304E0206861680834FFF7E5FFCD
:10113000064B9C42F7D300F07BFD02F067FC00F009
:101140006DFDFEE7C0100000CC100000D4100000C0
:1011500000B5FEE7F7B51F4B1A88FE2A13D91E4AC1
:101160001178002934D0002119801C4B081C1988E3
:10117000107001394C1EA1411980198801394B1E8C
:101180009941174B1980164D124C2A882388120258
:10119000144ED2185200925B0133238006200121A5
:1011A000019200F057FC104F0199381C00F036FBFB
:1011B0002A8823881202D2185200955B0133062038
:1011C0000021238000F046FC381C291C00F026FB7F
:1011D000F7BDC04652080010510800104C0800101E
:1011E0005408001056080010600C001037B500239A
:1011F0006A46D38001AA13806A461B49D0880B88AF
:1012000000B20632984208D001AB188800B2FE281E
:1012100003DD0988118000221A8001AC23881BB2EB
:10122000FE2B17DC6B46D888104D114B00B24002E4
:101230008021181889002A1C01F08CF80D4B1870B9
:10124000002810D12B88002B0DD023880133FF33C9
:101250009BB2238001AB1B881BB2FE2BCCDD064B5F
:1012600001221A70C8E737BD4C0800104E08001064
:1012700056080010500800105108001038B51B4CDB
:101280009621201C890100F031FD0620012100F08B
:10129000AFFB174D1021281C00F00BFA281C012170
:1012A00000F00BFA281C00F081FA124D281C00F007
:1012B00085FD002804D1201C0F4900F011F913E02E
:1012C000201C0E4900F00CF9281C0D4900F07FFD90
:1012D0000C4B1870002807D0201C0B4900F000F9B7
:1012E000281C00F07CFDFEE738BDC046E80C00106D
:1012F000600C0010FC0C0010284500003D4500006B
:101300004F450000500800105845000038B5134CF8
:101310001349201C00F0E4F8124D1349281C00F07A
:10132000F7FA00F017FB114800F0D4FA201C10491E
:1013300000F0D6F82D21281C00F0EAFAFFF756FF3E
:101340000C4800F04CFD00F005FB201C0A4900F0A1
:10135000C7F8201C094900F0C3F8FEE7E80C0010AC
:101360006A45000055110000204E000040420F0069
:1013700073450000FC0C0010694500007E4500002C
:1013800010B50368041C1B680D2198472368201CB6
:101390001B680A21984710BD38B5041C0D1C04E0D9
:1013A0002368201C1B689847013529780029F7D14C
:1013B00038BD0000F0B589B0071C0C1C012A04D10F
:1013C0000368C9B21B6898477AE00026B14204DA84
:1013D0002D2369460B7064420136082A0BD002D8CF
:1013E000022A5BD109E00A2A03D0351C102A55D104
:1013F00051E0351C3AE0351C27E0351C10E0314B3C
:101400002340002B04DA0222013B524213430133F2
:101410002D4AD35C6A465355E30F1C1901356410FD
:10142000002CECD13BE0294B2340002B04DA0822AE
:10143000013B524213430133254A6946D35C4B5565
:10144000E3175B0F1C190135E410002CEBD126E0EB
:10145000201C0A2101F040FA1E4B6A465B5C201CEE
:1014600053550A2101F0E2F90135041C002CEFD19B
:1014700015E0194B2340002B04DA1022013B5242A5
:1014800013430133154A6946D35C4B55E3171B0FD1
:101490001C1901352411002CEBD100E0351C002370
:1014A0006A46535505E069468B5D4A5D8A554B5542
:1014B0000136013DAE42F6DB381C6946FFF76CFF92
:1014C00009B0F0BD01000080BD45000007000080AC
:1014D000B4450000A94500000F00008098450000B9
:1014E00010B5041CFFF758FF2368201C5B68984761
:1014F00010BD10B5041CFFF75DFF2368201C5B685E
:10150000984710BD704741607047417070478170C7
:101510007047C17070470000F0B585B0041C0E1C08
:1015200070200121344D171C019300F061FA002353
:10153000EB617020012100F08DFA304A0223002C6B
:1015400004D0012C02D114602C6701E01360EB641D
:10155000012211236A662B66294B59681143596091
:101560000433D86F802109010143D96725490A60F6
:101570000B1C072E15D8301C01F000F905040709D3
:101580000B0D0F1102221A600DE00422FBE7082266
:10159000F9E71022F7E72022F5E74022F3E780225F
:1015A000F1E704230B60032F0CD8381C01F0E6F898
:1015B00002040608002304E0012302E0022300E005
:1015C00003230393039A104B92011A6001991A683E
:1015D00001390A431A6080200C4A02214003196134
:1015E0001060C52088401458FF25AC433F3D2C4374
:1015F00005B014505960F0BD00400440B0400440B4
:1016000000800440948004400000044000E100E0B9
:1016100008B5031C9978DA7800785B68FFF77CFFDF
:1016200008BD38B5002508230221041C436005705D
:101630004570C5708170FFF76AFF201C6168FFF775
:1016400062FF291C201CFFF760FF201CFFF7E0FF52
:10165000201C38BD07B5094B1222D9680A40022A5E
:10166000F9D19860DA68D106FCD4DA685107FCD564
:10167000024B9B68019301980EBDC04600000440D8
:1016800008B5081CFFF7E6FF08BD000010B5054CC3
:10169000201CFFF7C6FF201C0349044A00F0DCF8B9
:1016A00010BDC046580C0010051500004808001079
:1016B000704741607047417070478170704700000B
:1016C000F7B5334C6B200D1C0121161C1F1C00F0BC
:1016D0008FF90023A3606B20012100F0BBF92D4B93
:1016E0000222A2621A601223E3652B4B0420596880
:1016F0008446014359601B18D86F8021C9020143F9
:101700002648D967012101606446031C072D15D8BE
:10171000281C01F033F8040906080B0D0F1119609D
:101720000DE01C600BE008221A6008E01022FBE7C5
:101730002022F9E74022F7E78022F5E70460032E34
:101740000CD8301C01F01AF802040608002304E04B
:10175000012302E0022300E003230193019A104BCE
:1017600092011A601A68013F174380200D4A022136
:10177000C0011F6019611060C320884015580A4CD1
:101780002C40C0252D042C4314505960F7BDC04691
:10179000004004408C400440008004409C80044091
:1017A0000080054000E100E0FFFF00FF08B5031CDA
:1017B0009978DA7800785B68FFF782FF08BD38B562
:1017C000082300250221041C43604570C570017088
:1017D0008170FFF772FF201C6168FFF76AFF291C08
:1017E000201CFFF768FF201CFFF7E0FF201C38BD1E
:1017F00007B5094B1222D9680A40022AF9D198602C
:10180000DA68D106FCD4DA685107FCD5024B9B6834
:10181000019301980EBDC0460080054008B5081C24
:10182000FFF7E6FF08BD000010B5054C201CFFF7D0
:10183000C6FF201C0349044A00F00EF810BDC04644
:10184000600C0010B116000048080010014B036046
:101850007047C046904500000020704700B5FEE785
:1018600070B5C3B2002815DA0F221A40083A13489F
:10187000920892001218032003408340FC30556800
:10188000041C9C408901A543084098402B1C03433D
:10189000536011E003248008094A2340C030A3406C
:1018A0008000FC348558261C9E408901B5430C40BD
:1018B0009C402B1C2343835070BDC04618ED00E0B4
:1018C00000E100E0024B80221203DA677047C04655
:1018D00004E100E007B5044B9A6801929968019A07
:1018E0008A1A8242FAD307BD0080014008B5064B30
:1018F0008022D96FD2000A43DA67FFF7E3FF034B78
:1019000001225A6008BDC0460480044000800140A6
:1019100038B50D4C00236360051CA360012911DD5F
:101920003022E26001399032216262618021074AEF
:10193000090311601320191CFFF792FF0123636054
:10194000034B1D60002038BD0080014000E100E035
:10195000680C001008B5034B012252421A62FFF7CF
:10196000B1FF08BD0080014010B5064C23685A073E
:1019700007D5054B1A68002A01D01B689847042335
:10198000236010BD00800140680C0010024B1A68F3
:1019900001321A607047C0466C0C001013B5104B32
:1019A000FA211868890000F0F3FE0190019B0D4AAE
:1019B0000D4C93420CD81B021B0A013B01206360B3
:1019C00040420321FFF74CFF0023A360073323604D
:1019D00023685A0702D4054B08221A6013BDC0467B
:1019E00000000010FFFFFF0010E000E0B0800440A6
:1019F00030B5132806DC80234400134D134AC00081
:101A00001B020AE063281DDDC7281BDC6438802325
:101A10000D4D0F4A44001B02C000012908D1115886
:101A2000013489006958A400C8581259024308E0DB
:101A30001158013489006958A4001259C8589043BC
:101A4000021CCA5030BDC046C0450000B046000070
:101A5000D045000010B5132803DC4400104A114B98
:101A600007E063281BDDC72819DC64380C4A0E4BDD
:101A70004400C000012908D119580134A40089008C
:101A80001B59525899008B5009E0195801348900AC
:101A9000A400525819598B0098588843985010BD8B
:101AA000C0450000B0460000D045000007B513282F
:101AB00001DC0C4B06E00023632811DDC7280FDC96
:101AC000094B6438C200D158C000084A043089006C
:101AD000C3588A589B009B585A1E93410193019BFF
:101AE000181C0EBDB0460000D0450000C0450000E7
:101AF00000B5031C132801D80C4A08E0021C143A54
:101B000000204F2A10D9643B632B0DD8084AD90016
:101B10008858084980004058DB0007490433415881
:101B200098580840431E984100BDC046B04600008A
:101B3000D0450000C04500001880000010B51328F3
:101B400001D80B4907E0031C143B4F2B0FD9643815
:101B500063280CD80749C3005A58074B9200D25843
:101B6000C000064B0430D45841582143D15010BD19
:101B7000B0460000D0450000C04500001C800000B9
:101B800010B50024201CFFF7B3FF002809D0201C4B
:101B9000FFF7D4FF054BA200D158002901D0D3583C
:101BA00098470134142CEDD110BDC046700C0010C4
:101BB00008B5FFF7E5FF08BD08B5FFF7E1FF08BD71
:101BC00008B5FFF7DDFF08BD08B5FFF7D9FF08BD71
:101BD00070470000662343600A338360054A023B76
:101BE000C3606E3B43700370036143618261C361F4
:101BF0007047C046FFFFFF0010B5054C201CFFF7E3
:101C0000E9FF201C0349044AFFF726FE10BDC04629
:101C1000C00C0010D11B00004808001008B5FFF7E9
:101C2000BDFEFFF763FEFFF729FBFFF76FFBFCE745
:101C300010B51C4B8E229200995820208143995058
:101C400000221A62C0460132C82AFBD1C73A0021DD
:101C50001A645A6459645A64596C124AC807FBD50D
:101C6000232191606B31890050588024A04350504B
:101C7000D86801210B4A0842FAD0032010670338C4
:101C8000516750675167596F01221142FBD0054BD4
:101C900005499A670433D96790331A605A609A608D
:101CA00010BDC046008004405F000100014B0833B6
:101CB000036070472047000000B5034B5A69900647
:101CC000FBD5196000BDC0460080004010B5041C63
:101CD000FFF7BCFD044B201C083323600023237155
:101CE00096339B01A36010BD2047000070B51B4BCD
:101CF00081601A1CA83210680724A0431060156880
:101D0000012005431560A4331A688025A2431A6098
:101D10001A686D0102431A60114B1A1DD66F3543C4
:101D2000D56794321060986F13680E4A1B011268D1
:101D30005943504300F02CFD0B4B8022D9681143CE
:101D4000D960010A5960FF2108401860D9689143A1
:101D50000322D960DA609C6070BDC0460040044038
:101D600000800440000000100080004010B5054CC9
:101D7000201CFFF7ABFF201C0349044AFFF76CFD52
:101D800010BDC046E80C0010AD1C00004808001053
:101D9000016042607047000008B503480021034A13
:101DA000FFF7F6FF08BDC046F40C0010FFFF00006F
:101DB0007047031CA43370221A60704710B5041CCE
:101DC00000F0D6F9A23420704342584110BD10B53E
:101DD000041C081C00F084FAA234207010BD704767
:101DE00010B5054C201CFFF7E4FF201C0349044AF2
:101DF000FFF732FD10BDC046FC0C0010B11D000005
:101E00004808001000B5064B821E1B680020D968E8
:101E100002398A4203D258789B695043C01800BDEA
:101E2000A40D001010B50F4B041C1A68002303808A
:101E30008368181C012B13D0D16801208B420FD26C
:101E4000002B03D11178032900D15369E360002BE3
:101E500003D0181CFFF7D6FF00E050692061002076
:101E600010BDC046A40D0010F7B5344B0126051C6B
:101E70001C68B0425FD9E36898425CD22378022B99
:101E80002FD0032B3ED0B34255D183B25F08FF1849
:101E9000BFB2FA052A4BD20D7F0A21699A4203D0BC
:101EA000791801A802230CE0791801A8331C00F06E
:101EB00017FB021E3FD1216968460131C91905305F
:101EC000331C00F00DFB002835D101AB5E781B7888
:101ED00036021E43EB0701D536112CE03605360DD0
:101EE00029E02269010A8918FF2201AF15406A0022
:101EF000381C00F0F5FA00281DD17E783B783602B8
:101F00001E4318E023697F22C10901AF1540C9189B
:101F1000AA00381C042300F0E3FA00280BD1FE7855
:101F2000BB7836061B041E433B781E437B781B029E
:101F30001E4336013609301CFEBDC046A40D0010FC
:101F4000FF01000070B50588154B0135ADB21E6864
:101F5000041C0323002D21D00269002A1ED029076A
:101F60001AD101320261C068002803D1B288AA42A6
:101F700012D813E072782B09013A1A420CD1FFF7FC
:101F800073FF0123984209D9F2680233904205D2C7
:101F9000E060FFF737FF206125800023181C70BD2B
:101FA000A40D001038B5FF2202235200041C0D1CA2
:101FB00000F096FA0323002822D1617823780902E1
:101FC0001943154A09B20223914219D1201C291C38
:101FD000362200F085FA002814D1617823780902AE
:101FE00019430E4A09B2031C91420BD108E06378F1
:101FF00022781B0213430A4A1BB29B185A1E9341B4
:10200000181C38BD0223201C291C522200F068FA3B
:1020100001230028F4D1EAE755AAFFFF464100005A
:10202000BABEFFFFF7B5041C0D1C00E001352B788C
:10203000202BFBD02F3B5A4253410027ED18A760BD
:102040002B78202B08D8201CFFF7ECFE474B061CF2
:102050001B689B681F7078E0616800232022CA54C7
:1020600001330B2BFAD1203A01920820019EAB5D7F
:102070000136F6B201961E1C2F3E77427E41002E9D
:102080001CD1202B1AD91E1C2E3E77427E41002ED9
:1020900003D182427641002E06D02E2B0ED1082885
:1020A0000CD108220330E1E71E1C613E192E01D835
:1020B000203BDBB28B540132D2B2D7E72020002282
:1020C00098425241CA72201CFFF7ACFE061E1CD17A
:1020D000264B1B689F6822880F231A405201381C28
:1020E0002169113300F0FCF900282BD12FE0FA7A96
:1020F000082313402FD1626801E00B2B32D0F85C2B
:10210000D15C01338842F8D025E0032E1DD16368ED
:10211000DE7A73425E41033617E0144B1B689B68FE
:10212000DA7AD10610D5019A197DAD185A7DD87E7C
:1021300012020A430002997E031C12040B4313434C
:10214000A36089E7012600E00426301CFEBD3B7831
:10215000002BCCD1DBE7201CFFF7F4FE0028BAD01F
:10216000061CD2E7D37A002BD7D0EEE7A40D0010DF
:10217000F0B5584B00221A608FB0041C031C90422B
:1021800000D1A4E000F058FA0122071C02231740F6
:1021900000D09CE005AD281C391CFFF703FF061C8E
:1021A00001281ED1DF221023281C391C520000F008
:1021B00097F9331C002800D089E02A790633002AD9
:1021C00000D184E0EF7AAB7A3F061B041F432B7AE1
:1021D000281C1F436B7A1B021F43391CFFF7E2FECA
:1021E000061C0123032E72D00633002E6FD105ADDD
:1021F0001D33281C391C0D2200F072F90123002820
:1022000065D1AA7A6B7A12021A4309D1AA7E6B7E33
:1022100012061B041A43EB7D1A432B7E1B021A4342
:1022200005ABDD78597855439A7812020A43BF18F6
:1022300001922761197861705E7918793602064338
:10224000A680D879000284469879624603901043AC
:1022500084460CD1987D00068446587D6246000471
:102260000243D87C1B7D10431B0218438446019B0C
:102270006246D01A3609401B801B00F089FA164AC4
:102280000230E0600123904204D9144B83429B4109
:102290005B4202332370032B10D16B461733DA7F76
:1022A000013BDB7F12061B04134305AAD27F1343B5
:1022B0006A461532D27F1202134300E0EB19BF19B0
:1022C000044A63617D190023A561A37014600FB0F7
:1022D000181CF0BDA40D0010F60F0000F6FF000062
:1022E00030B51B4B011C1C6891B00620002C2CD073
:1022F000002300AAA370A2600DAB08A80993FFF702
:1023000091FE002821D16D462B78002B1CD0EB7A52
:10231000D90619D46A7D297DEB7E12020A43A97E73
:102320001B0212040B4313436362EA7FAB7F120666
:102330001B0413432A7F13436A7FE0611202134395
:1023400023620123A37000E0032011B030BDC0461A
:10235000A40D0010F7B5314B01901C6800230D1C33
:10236000171C138006209C4257D0A3780138DA0747
:1023700053D5226AE369D31A994200D99DB2019BD1
:10238000009343E0E669F305002B1BD1700A6178E6
:1023900000F042FA00290BD1002E01D1606A02E060
:1023A000A06AFFF761FD012834D90023A062E37021
:1023B000A06AFFF727FD00282CD0E378C01801336E
:1023C000E062E370E2698023D105C90D9B005B1ACE
:1023D0009BB22E1C9D4200D91E1C019BB6B20098D8
:1023E000002B00D1181CD205D20DE16A331C00F07D
:1023F00077F800280ED1E369009A9B19E3613B88C6
:102400009219AD1BF6180092ADB23E80002DB9D1E5
:10241000281C02E00023A3700120FEBDA40D0010C3
:1024200008B5011C0148FFF72BF908BD580C001036
:1024300008B50248FF21FFF723F908BD580C00102A
:1024400070B543B2051C0E1C002B07DA7720002163
:10245000FFF7F6FF012834D87F231D40194C0121D6
:10246000A4342068FFF7F6FAFFF7E2FF00212068A6
:10247000FFF7F0FAFFF7DCFF281CFFF7D1FF300E63
:10248000FFF7CEFF300CC0B2FFF7CAFF300AC0B270
:10249000FFF7C6FFF0B2FFF7C3FF9520402D03D032
:1024A0000E38482D00D08638FFF7BAFF0A24FFF710
:1024B000BFFF031CC0B21A0603D5013CE4B2002CD6
:1024C000F5D170BDFC0C001008B5044B0121A433FC
:1024D0001868FFF7BFFAFFF7ABFF08BDFC0C001050
:1024E000F8B51C1C234B071C1B78151C1A0700D4BD
:1024F00049025120FFF7A4FF0126002836D11E4EC5
:10250000FFF796FFC0B2FF2805D1013EB6B2002EFC
:10251000F6D101362AE00126FE2827D1174B6E425C
:10252000F618361BB6B2002D04D0013DFFF780FF30
:10253000ADB2F8E7002F08D0FFF77AFF013CA4B254
:1025400038700137002CF7D10AE0FFF771FF013C2A
:10255000011C0A220A48A4B2FEF7CBFF002CF4D1DA
:10256000013EB6B2FFF764FF002EF9D1FFF7ACFFD2
:10257000301CF8BDA80D00103075000002020000EC
:10258000E80C001070B5051E10D08CB2002C4AD09B
:10259000264E3388002B45D02878FFF741FF33883B
:1025A000013C013B01353380A4B2EFE7002916D08E
:1025B0001F4B1B781A0700D449025820FFF740FF31
:1025C0000124051E2FD1FF20FFF72AFFFE20FFF771
:1025D00027FF8022154B92001A802C1C23E0134BFE
:1025E0001C88023403E00020FFF71AFF013CA4B26C
:1025F000002CF8D1FFF71CFF1F23184001340528D9
:102600000DD10C4CFFF714FFFF2804D0002C05D08F
:10261000013CA4B2F6E763425C4100E00124FFF70D
:1026200053FF00E01C1C201C70BDC046AA0D00100A
:10263000A80D0010E8FD000073B54B4D0121A43535
:102640002868FFF7D5F9494C0821201CFEF75BFFED
:10265000201C0021FEF75DFF0521201CFEF757FF1F
:10266000201CFEF7D5FF2868FFF720FA011E02D1D3
:10267000081CFFF787FF6425013DEDB2FFF7D8FE88
:10268000002DF9D14020291CFFF7DAFE2C1C061C76
:10269000012852D1D52148204900FFF7D1FE012859
:1026A0002CD1FFF7C5FE01AB58550135042DF8D1EB
:1026B0009A780024012A40D1DB78AA2B3DD12C4CFA
:1026C0008021C905E920FFF7BBFE011E46D0013C71
:1026D000A4B2002C30D0F3E77A20FFF7B1FE002837
:1026E0002AD1041CFFF7A4FE01AB18550134042CB9
:1026F000F8D11B785A0620D508341EE0E920291CA1
:10270000FFF79EFE012802D80224E92601E0341CCE
:102710004126184D301C0021FFF792FE002820D0E2
:10272000013DADB2002D07D0F4E780215020890093
:10273000FFF786FE002800D000240F4B1C70FFF727
:10274000C3FE002C07D0094D0021281CFEF7DFFE38
:10275000281CFEF75DFF6042604176BD002CEBD087
:10276000BAE7002DE8D0E0E7FC0C0010580C001090
:10277000E02E0000A8610000A80D001002B4714610
:1027800049084900095C49008E4402BC7047C046B4
:10279000002934D00123002210B488422CD3012414
:1027A0002407A14204D2814202D209011B01F8E7A9
:1027B000E400A14204D2814202D249005B00F8E762
:1027C000884201D3401A1A434C08A04202D3001B8E
:1027D0005C0822438C08A04202D3001B9C082243C1
:1027E000CC08A04202D3001BDC082243002803D0FF
:1027F0001B0901D00909E3E7101C10BC7047002831
:1028000001D00020C04307B4024802A14018029042
:1028100003BDC046D90000000029F0D003B5FFF782
:10282000B9FF0EBC4243891A1847C046002941D05F
:1028300010B4041C4C40A44601230022002900D5FA
:102840004942002800D5404288422CD30124240765
:10285000A14204D2814202D209011B01F8E7E4003F
:10286000A14204D2814202D249005B00F8E78842CB
:1028700001D3401A1A434C08A04202D3001B5C0843
:1028800022438C08A04202D3001B9C082243CC08A0
:10289000A04202D3001BDC082243002803D01B09FE
:1028A00001D00909E3E7101C6446002C00D5404222
:1028B00010BC7047002806D003DB0020C04340084E
:1028C00001E08020000607B4024802A140180290EF
:1028D00003BDC046190000000029EBD003B5FFF787
:1028E000A7FF0EBC4243891A1847C0467047C0462E
:1028F00000B50368002B00D01B18181C00BDC04693
:1029000000B503685A0003D45B005B08C01800BD23
:1029100080210A061343F9E7F8B55F4656464D464F
:102920004446F0B4814690460D1E26D001398B46B0
:102930008A4600260AE0611CC8004844FFF7E0FF11
:102940000138474513D8404517D2661C331C534401
:10295000D80FC4186410E5004D44281CFFF7D0FFC1
:10296000071CA345E7D1012250424745EBD9B442A9
:1029700002D0013CA246E9E70025281C3CBC904659
:102980009946A246AB46F8BD30B52B4B83B0041C2C
:102990008D1E002B4AD0281C01A900E000BF031E99
:1029A00022D02A1C181C0199FFF7B6FF051E1ED065
:1029B000281CFFF7A5FF6B68A064012B10D0002B2B
:1029C00024DB281DFFF79CFF0023E06423650368D8
:1029D000002B0FDBFFF794FF2061002003B030BD18
:1029E000013B23610520F9E720610930F6E7256105
:1029F0000920F3E71A01100F00280CD001280DD090
:102A000002280FD0002020610920E7E7281D0125BA
:102A1000E0642565DBE709492161DFE7084D0138FE
:102A20002561DBE7074B02382361D7E7064B0749EF
:102A3000C81AC2100192B4E700000000D12F0000B4
:102A4000C52F0000B92F000090480000D04A0000B8
:102A500010B50368041CDA0705D49A070FD548306F
:102A600000F05CFD23685A070FD51A0714D5DA0663
:102A700004D48C208300E01800F05CFD10BD4830C9
:102A800000F048FD23685A07EFD4201CD03000F036
:102A900049FD23681A07EAD4201CB130FF3000F04A
:102AA00045FD2368E3E7C046F0B55F4656464D4610
:102AB0004446F0B4C3682F4C9946A5448369051C6D
:102AC000161C0431402292AC93A89A4601F046FAB3
:102AD0000023216C281C98469293FFF755FF731E24
:102AE0009E411023071C09369B461EE0A06B5B46E7
:102AF0001E4360645346019300940120311C2A1C3C
:102B00002B1CC847002823D1002F22D19026201C3F
:102B100002A9B20001F022FA0823984522D1216CC3
:102B2000281CFFF731FF0926071C002FDED1216C7E
:102B3000902269619200211C02A801F00FFA2B6912
:102B4000301C291C02AA9847804610986064D1E77F
:102B50000927094D381CAD443CBC90469946A24615
:102B6000AB46F0BD013B09379845F2D193A800F080
:102B7000BBFCC04674FBFFFF8C04000038B5041C8E
:102B80000D1C296C201CFFF7FFFE00280AD1286CC1
:102B900023696061211C01202A1C98470828F0D075
:102BA000072801D000F02AFF281D00F09DFCC04638
:102BB00000B500290ED1002B12D10F239342894179
:102BC000494200290CD1920083185868019A10607C
:102BD000081C04E004228A4280414042013000BDCA
:102BE0000220FCE700B585B003AB0A1C002100936E
:102BF0000B1CFFF7DDFF039805B000BD00B50029F1
:102C00000ED1002B12D10F23934289414942002952
:102C10000CD1019B920080181A684260081C04E0E5
:102C200004228A4280414042013000BD0220FCE77C
:102C300000B585B00B1C0392002103AA00921A1C58
:102C40000B1CFFF7DBFF05B000BDC046F0B55F46CB
:102C500056464D464446F0B4CF6C9A4608238BB096
:102C6000034093460393032208CF0C1C104000211D
:102C7000009007978A4500D0D5E008A82126027069
:102C8000009A190255466E4406913570022A00D109
:102C9000D9E0206D0123034000D0DAE0009D0293CB
:102CA0006B1E9D4104955D463E68002E2FD0022389
:102CB0009A4500D18FE03B887E8804379B46B94611
:102CC000A06C0127311CB9430A18281C0F2190461B
:102CD000FFF788FF0023804505D85B46BB4343448C
:102CE0009842BF417B4201273E405A46BE403A408F
:102CF0001643BE4200D173E0002E0AD1002B00D053
:102D000029E104210F1C4F443E68002ECFD1AB4671
:102D1000A1E0022E07D009200BB03CBC904699469A
:102D2000A246AB46F0BD49460A68009856007108B5
:102D30008B46002800D0ACE0002B44D000239B45FC
:102D400002D0039F9F423ED10026B34500D1F7E059
:102D5000582004220319171C594601934F4400269A
:102D6000C90700D4BCE049460591A94613E00437E1
:102D7000AB4500D8CBE02E1C019D381C0995FFF710
:102D8000B7FD4246011C09AB201C00E000BF002833
:102D900011D104370136019B381C0993FFF7A8FDB8
:102DA0000022011C09AB201C00E000BF002280466D
:102DB000751C9045DBD0059B4D4699465E4500D17C
:102DC000BEE04B461A68002A6EDB0122101C5844F4
:102DD00087004F4468E7B3467E680837B9466FE717
:102DE0000098002863D1002B19D04A465368484602
:102DF00040C8991C00D18EE7221C58320992013339
:102E00000AD0FFF775FDF20F011C09AB201C00E092
:102E100000BF002878D0099A002A00D090E008214D
:102E20000F1C4F4440E7190C2126CAB21D046E4402
:102E3000022332709A40BF18009A08A806950370C2
:102E4000022A00D025E7206D0123A76B034000D1A3
:102E500024E70024029406A9584600F00FFC011C48
:102E60000920002900D057E7029D0138002D00D12C
:102E700052E70F215846FFF7B5FE0E21021C5846B7
:102E8000FFF7D6FE58460F214A4AFFF7D1FE07202A
:102E900042E7281C0D21266AFFF7A4FE86423CD09B
:102EA00049460A68002A90DA042399448DE7281CD1
:102EB0000D21266AFFF796FE8642B0D1A76AB94572
:102EC000ADD14846FFF71CFD0F21021C281CFFF75F
:102ED000AFFE281C0021221CFFF7AAFE07201BE7DB
:102EE000019B381C0993FFF703FD321C011C09AB41
:102EF000201C00E000BF002800D05FE74A460437EE
:102F000001260592A94646E7009B099387E7059AA3
:102F1000A84646464D46914650E7A36A994500D0DB
:102F20004FE704200022206359464844E262A16230
:102F3000904660634A461268424527DB029744E7A1
:102F4000281C0D21FFF74EFE206209984F46606253
:102F5000A7620620E0E6049E002E00D1D1E6484696
:102F6000FFF7CEFC4F460437A763AB46051C201C79
:102F700000E000BF041C0920002C00D1CCE658461C
:102F80000F212A1CFFF754FE0720C5E65E460136D6
:102F9000AA464F46B5007819FFF7B2FC0F21021C74
:102FA0005046FFF745FE50464146221CFFF740FEC3
:102FB0000720B1E60000000008B50223FFF746FE37
:102FC00008BDC04608B50123FFF740FE08BDC04656
:102FD00008B50023FFF73AFE08BDC046F0B55F46CE
:102FE00056464D464446F0B4041CE7B0161C022079
:102FF000042951D881405C48425897460220002B52
:103000004AD13604360CA36BF00701D502CB6160C0
:10301000B10701D520CBA560720701D580CBE76051
:10302000370701D504CB2261F00601D501CB6061E1
:10303000B10601D502CBA161720601D520CBE561B5
:10304000370601D580CB2762F00501D504CB62623B
:10305000B10501D501CBA062720501D502CBE162B9
:10306000370501D520CB2563F00401D580CB6763FC
:1030700080229201324001D001CBA063710401D5BE
:1030800002CBE16380273D022E4201D040CB266473
:103090000020824200D1A36367B03CBC90469946B1
:1030A000A246AB46F0BD0220032BF5D13304350C0C
:1030B0001E0C71191029EFD823680822134200D082
:1030C0003CE122A800F034FAA06B76008446031C91
:1030D000002E1DD0ED0004CB22AFED19701E04C5EB
:1030E000002812D00122002A04D001CB01C5B01E55
:1030F00000280AD0191C80C92A1C80C25F680238C7
:103100006F600B1D151D0028F4D1B600331C6344FD
:1031100022A8A36300F00AFA0020BDE7002B00D02C
:10312000E5E01033B34200D2E1E022681A4200D059
:10313000F7E062A800F000FAA36BF70701D520CBF7
:103140006295B00701D504CB6392710701D502CB1C
:103150006491320701D580CB659762A8A36300F024
:10316000E9F9002098E7C046304700005A1F511E79
:103170008A41002A00D0BCE03004350C060CB14670
:10318000291C49442027012B00D1C8E002208F428E
:1031900000D281E75E1E774277410F26B846AE42E5
:1031A000BF417F42002F00D0C3E0BB46102900D9A9
:1031B000A4E00F2D0FD8226801210A420BD08A43C8
:1031C0002260052B00D1DCE002239A43201C226000
:1031D000483000F0A1F90022934504D0236804226E
:1031E000134200D0BFE00020804500D0C2E00F2D88
:1031F00000D8B4E00026B34500D08AE04E46A36B69
:103200009A469946002E2ADD76000227B146EB0049
:1032100000AE524678429B1902CA061C4E4402C3B5
:10322000701C18D00120002806D0032180CA4E420D
:103230004E4480C3771C0ED0101C02C8023E8C4640
:103240006746191C80C152689446021D604658604A
:103250000B1D711CF0D14A4693009946D1440026BB
:10326000B3452FD05846400082462B1C102D00D26B
:103270001023103B022142AEDB004A464F429B190D
:1032800001CA3E1C564401C3701C18D001200028FE
:1032900006D0032180CA4E42564480C3701C0ED013
:1032A000101C02C8023E8C466746191C80C1526839
:1032B0009446021D604658600B1D711CF0D15246A9
:1032C000930099440026B04540D14F46A7630F2D87
:1032D00002D8684600F022F95846002800D1DBE603
:1032E00042A800F01FF90020D6E60120D4E6022013
:1032F000D2E60220012B00D13EE7CDE610398B4605
:103300000026B34500D154E70220B24200D0C3E604
:103310004FE742A800F008F910214E1B6FE7103F5D
:1033200034E78C209A4383002260E01800F004F90F
:10333000FFE60021CB468845E2D0ADE6201C934352
:10334000B1302360FF3000F0F3F8BAE60420051C2A
:103350004D446846A56300F0DDF800209CE6684611
:1033600000F0DEF846E79343201C2360D03000F0E5
:10337000DBF838E76846002700F0CEF8BB45CBD134
:103380003CE7033B1A43201C2260483000F0C8F899
:1033900021E7C046406C704770B5154CCD6BA54415
:1033A0000D64041C0E1C01A80431402200F0D6FD5F
:1033B00001204342009300E0109D201C291CFFF7D0
:1033C000E3FA00280BD12569211C6A46A847051C91
:1033D0000828F1D06846FFF73BFB062D04D090216A
:1033E00089008D44092070BD201C311CFFF7C6FBED
:1033F000C0FDFFFF08B58261DA6BC1601A64191C59
:103400000022FFF751FB08BD38B5041CE368406992
:103410000D1C0864002B05D00122201CFFF744FB83
:1034200000F0ECFA23690220211C2A1C9847072887
:1034300003D0082804D000F0E1FA281D00F054F869
:10344000201C291CFFF79AFB08B5C368002B05D088
:10345000CA6B0A640022FFF727FB08BDFFF79CFF39
:10346000FBE7C0467047C04608B58368011C002BC7
:1034700001D00120984708BD70B51A4C061CA54420
:10348000D46B0D1C1464111D01A8402200F066FDD0
:1034900001204342009302E0052818D0109C90A818
:1034A000211CFFF771FA002819D168460C2190AA57
:1034B000FFF7BEFB6846291CB04700280FD1949B3C
:1034C000083090A96A469847041C0928E4D1684648
:1034D000FFF7BEFAA62189008D44201C70BD092487
:1034E000F5E7C04668FDFFFF011C343138C9043BD5
:1034F0009C461D60A646011C20313CC99046994659
:10350000A246AB46011C0831FCC941680068E5468B
:1035100000BDC0467047C0467047C0467047C046B1
:103520007047C0467047C0467047C0467047C046A7
:103530007047C0467047C0467047C04601B401A8F6
:1035400001B585B0FFB408A841464A4653465C46DB
:1035500065463EC001A83EC80F98009000230CB4F9
:1035600001A9FFF719FF109B12B0184701B401A879
:1035700001B585B0FFB408A841464A4653465C46AB
:1035800065463EC001A83EC80F98009000230CB4C9
:1035900001A9FFF739FF109B12B0184701B401A829
:1035A00001B585B0FFB408A841464A4653465C467B
:1035B00065463EC001A83EC80F98009000230CB499
:1035C00001A9FFF741FF109B12B0184701B401A8F1
:1035D00001B585B0FFB408A841464A4653465C464B
:1035E00065463EC001A83EC80F98009000230CB469
:1035F00001ABFFF7FFFE109B12B0184701B401A802
:1036000001B585B0FFB408A841464A4653465C461A
:1036100065463EC001A83EC80F98009000230CB438
:1036200001AAFFF729FF109B12B0184700B5027AD4
:10363000031C002A0ED1427AB020002A09D0013A98
:1036400058685A7204C8032158601972100E120289
:103650001A6000BD013A02720268F7E700B585B052
:1036600003AB002100930C220B1CFFF7A1FA039877
:1036700005B000BD08B5FFF7F1FF08BDF0B55F4626
:1036800056464D464446F0B487B00D1C00210391C8
:103690008022F023F831061C904699468B46281C60
:1036A000FFF7C4FF041CB02800D1ADE0434603403F
:1036B0009C4628D04B460340802B00D171E0902BD4
:1036C0003CD0A02B57D0B02B00D183E0C02B00D131
:1036D000AFE05B460340D02B0CD10720044079308B
:1036E000020301342243301C0121CB3BFFF776FC5F
:1036F0000028D4D0092407B0201C3CBC9046994631
:10370000A246AB46F0BD8700FF233B4004339A46F8
:1037100005AF6146301C0D2263460097FFF748FA5B
:10372000610624D5059952468C1A0594009700210C
:10373000301C0D220B1CFFF761FAB0E70F2202408C
:103740000F2AD7D0141C0D3C63425C41002CD1D110
:1037500005AF211C231C301C0097FFF729FA301CF1
:10376000211C0D22231C0097FFF748FA97E70598C4
:1037700050440590DAE707225F3382431801011CA9
:1037800011410A1C0240230702D58024E3011A4399
:103790000021301C0B1CFFF721FC002800D17EE724
:1037A000A8E70402281CFFF741FF802304431F02FF
:1037B000BC429FD02405240C0021301C221C0B1C71
:1037C000FFF70CFC002895D13C4200D167E70127A8
:1037D000039764E7B12871D0B22800D18BE0B328F9
:1037E0007ED0FC202040B42846D007273C407937C3
:1037F00001343A0322430121301C0B1CFFF7EEFB7E
:10380000002800D14BE775E70398B03CA04200D0F8
:1038100071E705AD211C231C301C0E220095FFF71B
:10382000C7F9301C211C0F22231C0095FFF7E6F975
:1038300061E7C6282FD0C72800D185E05B4603404A
:10384000C02B00D192E0C82800D196E0C92800D052
:1038500050E7281CFFF7EAFE0F214B4603400840C3
:103860001F03421C3A43301C01210523FFF7B6FB1E
:10387000002800D113E73DE7032214407D320134D4
:10388000D20202212243301C0B1CFFF7A7FB0028A9
:1038900000D104E72EE7281CFFF7C8FE0F244B4693
:1038A000034020401903421C0A430321301C0B1C17
:1038B000FFF794FB002800D1F1E61BE7281CFFF777
:1038C000B5FE021E00D115E74B46134000D011E7AC
:1038D000301C191CFFF782FB002800D1DFE609E746
:1038E000281CFFF7A3FE4B4603401C030F23184080
:1038F000421C22437FE705A900918A4600210D2240
:103900000B1C301CFFF754F9281CFFF78FFE4246B2
:10391000B03C10420CD07F27059A3840A0401018C8
:103920000590281CFFF782FE434607341842F3D166
:10393000059A81217F238F001840D119A0400F18CC
:10394000524605970092F2E6281CFFF76FFE021E12
:1039500000D1CFE64B46134000D0CBE6301C04210B
:10396000FFF73CFB002800D199E6C3E6B13B1C40C1
:10397000A02001340203224397E7281CFFF756FEDC
:103980004A4602400F23184010320130120302430E
:103990000121301C0A3BFFF721FB002800D17EE605
:1039A000A8E6C04600B5C26C85B0506801AB000205
:1039B0000190101C0830029003201872D279081C64
:1039C0005A72191CFFF75AFE05B000BD08B5FFF783
:1039D00051FE806C08BDC04608B5FFF74BFEC36CB6
:1039E000D9791A1D01318800101808BD08B500F0FA
:1039F00005F8C04608B500F001F8C04608B5062035
:103A000000F0CAFB012000F049FDC04670B50D4D25
:103A10000D4E761BB610002E05D0002408CD0134C3
:103A20009847A642FAD800F08FFE084D084E761B44
:103A3000B610002E05D0002408CD01349847A642C8
:103A4000FAD870BD544700005447000054470000A6
:103A500070470000F0B55F4656464D464446F0B408
:103A60000D1C0B3583B0071C162D2CD907239D4345
:103A7000EB0F8D422BD3002B29D1381C00F0EAFA32
:103A80008B4B9D4227D8EA088A4ED300F318DC6896
:103A90009C4200D1B6E163680322A1689343E268C7
:103AA000E318CA6091605A6801210A43381C5A60C1
:103AB00000F0D2FA201C083003B03CBC9046994676
:103AC000A246AB46F0BD102500238D42D3D20C2375
:103AD0003B600020F0E76B0A002B2BD0042B00D9B1
:103AE00079E1AB0938339946D900724E7118CC6828
:103AF000A14226D0626803208243531B0F2B08DDAE
:103B00001CE0E468A1421CD062688243531B0F2B67
:103B100014DC002BF5DBE368A168A218CB60996088
:103B2000536801210B43381C536000F095FA201CA8
:103B30000830C1E7E8088146C100D6E701235B42AF
:103B400099440124A144311C08318C68A14200D160
:103B500085E0626803239A43531B93460F2B00DDD5
:103B600042E1C9608960002B00DB9DE0524B9B4520
:103B700051D8D208931001209840D2007368B2182F
:103B800003439068E260A060C46094604C46A21059
:103B9000012090407360984268D818420CD10322EB
:103BA0009443221C043240009146184204D104225E
:103BB000400091440342FAD0032398464C46E30068
:103BC0009B199B469C46CA466246D468A44507D1C9
:103BD0000FE1002B00DB1EE1E468A44500D108E101
:103BE000626843469A43531B0F2BF2DD0120621992
:103BF0000543A6686560E568F560AE601843CA6075
:103C00008A605060D1609160381CD35000F024FA73
:103C1000201C083050E7530A042B00D90EE190090C
:103C2000383080464046C3009B199C469B686345DC
:103C300000D117E15A68032082438046934506D39A
:103C400008E05868021C40468243934502D29B68B4
:103C50009C45F6D1DA68E260A360DC6094604C4673
:103C6000A210012073689040984296D9B46803224C
:103C700063680F2193439A465B1BD80F033A99421E
:103C80004241D2B2002A19D1AA4517D30122111CF0
:103C90002943134365196160381CB5606B6000F0FF
:103CA000DBF9201C083007E7221C5A4438E7C046DD
:103CB000F701000004000010FF010000A348A44920
:103CC0000368804610335B199B468B688946013335
:103CD00005D0A04A131C5B441B0B1B039B46381CDE
:103CE000594600F0BBF90190431C5CD0221C5244A1
:103CF000824200D9A7E041464B685B444B60824258
:103D000000D1F4E049468968013100D1FAE0C318D6
:103D10009A1A43465A600723034000D19FE00822C5
:103D2000D21A801801908020400112180199381C85
:103D30000B1C5B441B051B0DD31A191C994600F084
:103D40008DF9421C00D1E8E0019BC01A48440123D0
:103D500018434246536801994B445360B160486030
:103D6000B44215D00F22924500D894E00C20404276
:103D7000021C0721606852448A43063901401143FE
:103D800061600520A118486088600F2A00D9BCE056
:103D90004446E26A934200D9E3624046026B934292
:103DA00001D941460B63B468032362689A43924683
:103DB0005246531B0021D80F0F2288469A42414198
:103DC000C9B2414502D1AA4500D35FE7381C00F0D3
:103DD00043F9002070E6142B2CD9542B36D82B0B2A
:103DE0006E339946D90080E601206219054365606B
:103DF00004E70124A244524643461A4251D0082403
:103E0000A444E1E6231C6469023208339146A342CC
:103E100000D198E63FE6A218536801210B43536096
:103E2000E368A268381CD3609A6000F015F9201C82
:103E3000083041E65B339946D90056E6142B23D867
:103E40005B339846EEE6B442ADD154E7AA22520065
:103E5000934211D8EB0B77339946D90045E680227F
:103E6000520163E74246901001228240101C7268A2
:103E7000024372601A1CEEE6374A934229D8AB0C13
:103E80007C339946D90030E6542B27D85B46180B73
:103E90006E308046C6E601234B60013B0C1C9A46FF
:103EA00086E75B464C4600E0013C4246144244D063
:103EB0001A1C1B68083A9342F6D073684000984277
:103EC00000D9D3E6002800D1D0E6034239D0D1464C
:103ED00074E6FC217E228900914606E6AA20400075
:103EE00083421ED85A46D00B773080469AE6110599
:103EF000002900D006E75946B26851440120014329
:103F0000516045E74A46906005E7211C0831381C9E
:103F100000F0D2F941464B683AE70021012089467A
:103F200017E70D4A7E2094468046634500D979E61E
:103F30005B46980C7C30804674E6736883437360FC
:103F4000BBE70424A2444000BFE7C046AC0D00100C
:103F500004040010FF0F000054050000F0B54F46A8
:103F60004646C0B4032A0BD8002A05D00023CC5CF7
:103F7000C45401339342FAD10CBC90469946F0BD2B
:103F80008218031C032503E00C7801311C700133F7
:103F900003242B42F8D10C4041D0E700BC46042753
:103FA00066423C1BE4008D59A1460BE004318F5959
:103FB0006446E540A8464C463D1CA5404446254382
:103FC00020C33D1CD71A032FF0DC03E00C7801312D
:103FD0001C7001339342F9D3CEE70C681C604C6827
:103FE0005C608C689C60CC68DC600C691C614C690E
:103FF0005C618C699C61CC69DC610C6A1C624C6AF6
:104000005C628C6A9C62CC6ADC620C6B1C634C6BDD
:104010005C638C6B9C63CC6B4031DC634033D41AA3
:104020003F2CDADC0AE00C681C604C685C608C6831
:104030009C60CC681031DC601033D41A0F2CF2DC99
:104040000D1C03E00968043502C3D41A291C032C93
:10405000F8DCBFE77047C0467047C04638B5074C2C
:104060000023051C2360081C00F0F8F9431C00D055
:1040700038BD2368002BFBD02B60F9E7E40D00105E
:1040800070B5B725AD004659041C0020864200D00B
:1040900070BD201C8021FFF7DDFC6051002807D097
:1040A000021C031C8032301C01C39342FCD1EFE799
:1040B00001204042ECE7C046F8B5051C0C1C161C5C
:1040C0001F2909D8B727BF00C359002B09D0A40066
:1040D0001B1918681E60F8BD1623036001204042BA
:1040E000F9E7FFF7CDFF002801D1EB59EFE70120F9
:1040F0004042F0E770B5061C0C1C1F2921D8B723DD
:104100009B00C358002B12D08A009A181368002B0A
:104110000DD00025012B04D0591C04D01560201CA3
:104120009847281C70BD173303600135F9E7301C30
:1041300000F06EF8221C011C301C00F055F8051C24
:10414000EFE71623012503606D42EAE770B5051C11
:104150000C1C1F2916D8B726B6008359002B14D083
:10416000A2009A1813680120002B0AD00018591CCD
:1041700007D00130012B04D00025201C1560984782
:10418000281C70BD01204042FBE7FFF779FF0028A3
:10419000F8D1AB59E4E7C04608B5034B011C1868D9
:1041A000FFF7A8FF08BDC0461804001008B50A1C98
:1041B0000349031C0868191CFFF77EFF08BDC046B1
:1041C0001804001008B5024B1868FFF759FF08BD26
:1041D0001804001008B5034B011C1868FFF7B6FF60
:1041E00008BDC0461804001038B5084C0023051C53
:1041F0002360081C111C00F05BF9431C00D038BD83
:104200002368002BFBD02B60F9E7C046E40D0010BB
:1042100008B500F045F908BDF8B50F1C041CFFF700
:1042200019FF204D204AAB685E6803239E43B318F4
:10423000DF1B3F0B013F1D4B3F039F4207DD201C4F
:104240000021FFF70BFFAB689B19984204D0201C9C
:10425000FFF702FF0020F8BD7942201CFFF7FEFEA9
:1042600001300DD0AB68F61B01252E435E60104B6C
:10427000201C1A68D71B1F60FFF7EEFE281CEAE718
:10428000201C0021FFF7EAFEAB68C21A0F2ADEDD10
:1042900008490968401A0649086001210A435A6022
:1042A000D5E7C04604000010EF0F0000FF0F00002C
:1042B000B00D00100C040010F0B557464E464546B0
:1042C000E0B4051C0C1E5DD0083CFFF7C3FE60681F
:1042D0000121031C8B43E21857680326B7435A4E4B
:1042E0008046B068844694456CD0002084464046A1
:1042F0005760084080460ED120688C46241A1B184F
:10430000A068824608208019824504D0E1685046A2
:10431000C1608860C446D11948680121084207D1AC
:104320000020DB19844532D09068D268C26090606A
:104330000122111C194361600021E3508C451ED1FC
:1043400042498B4230D95A0A042A54D89909383143
:10435000C80030188268824253D051680326B143A6
:104360008B4204D306E05168B1438B4202D292687B
:104370009042F8D1D368E360A260D4609C60281CAE
:10438000FFF76AFE1CBC90469946A246F0BD371C5A
:1043900090680837B842C8D11943C4608460E060AF
:1043A000A0606160E350EAE7DB0899108A40716819
:1043B000DB000A437260F618B368E660A360DC6055
:1043C000B460DCE74246FB180A4206D12268A41A10
:1043D000A1689B18E268CA60916001221A4362607A
:1043E0001B4AB46012689342C9D31A4B281C19683F
:1043F000FFF712FFC3E7142A0CD8111C5B31C80069
:10440000A7E7891001238B40191C73681943716059
:10441000131CB0E7542A03D8190B6E31C80098E773
:10442000AA2149008A4203D8D90B7731C80090E706
:1044300009498A4203D8990C7C31C80089E7FC20DD
:1044400080007E2185E7C04604000010FF010000C7
:1044500010040010AC0D00105405000070B50D4C98
:104460002368002B01D10C4B2360C61C2568032355
:104470009E43AE19301C00F023F8002801D12660BD
:1044800005E000F04BF801250C2303606D42281C69
:1044900070BDC046E80D0010EC0D001000B5FEE741
:1044A000024B5822012040421A607047E40D001070
:1044B000024B5822012040421A607047E40D001060
:1044C00000B5084B6A469A4202D90123904206D2AF
:1044D000054B002B03D0002298425241131C181C9C
:1044E00000BDC046EC0D00100000000000B5034BFD
:1044F0001A78002A01D101321A7000BDE00D0010B7
:1045000008B504480368002B03D0034B002B00D0F0
:10451000984708BD4C08001000000000014B1868C7
:104520007047C0461804001043616E6E6F742064BB
:1045300065746563742053444361726400636172FF
:104540006420696E697469616C697A65642E0074AF
:104550006573742E776176004661696C65642074BA
:104560006F206F70656E2E2E2E0053746172742E44
:104570002E2E00706C617920737461727400706CFF
:10458000617920656E642E000000000000000000CC
:104590005D18000081130000303132333435363776
:1045A00038394142434445460030313233343536A0
:1045B0003738390030313233343536370030310056
:1045C00000000050000001500000025000000350A5
:1045D00001000000040000000100000002000000D3
:1045E00001000000100000000100000000080000B1
:1045F0000100000080000000010000002000000019
:1046000003000000040000000200000001000000A0
:104610000100000040000000000000000200000057
:104620000100000000010000000000000800000080
:104630000000000004000000030000001000000063
:104640000000000010000000030000002000000037
:1046500000000000200000000100000080000000B9
:104660000100000000020000010000000004000042
:1046700000000000400000000000000000080000F2
:104680000000000000010000010000000100000027
:104690000000000000020000000000008000000098
:1046A00001000000200000000200000001000000E6
:1046B0000100000040000000010000008000000038
:1046C00000000000080000000100000000020000DF
:1046D00003000000100000000200000010000000B5
:1046E00002000000010000000200000008000000BD
:1046F00002000000040000000200000002000000B0
:1047000000000000040000000000000000020000A3
:104710000000000000010000000000004000000058
:104720000000000000000000B91C00008113000020
:10473000FC2F00006C310000EA320000A6300000BF
:104740001C31000043000000F8B5C046F8BC08BCAE
:104750009E4670478D16000029180000F91B0000C6
:104760006D1D0000991D0000E11D000001450000C5
:0C477000F8B5C046F8BC08BC9E46704777
:10477C0008B10181B0B000840000000008B10181D3
:10478C00B0B000840000000008B10181B0B000841A
:10479C000000000008B10181B0B0008400000000EE
:1047AC0008B10181B0B000840000000008B10181A3
:1047BC00B0B000840000000008B10181B0B00084EA
:1047CC000000000008B10181B0B0008400000000BE
:1047DC0008B10181B0B000840000000008B1018173
:1047EC00B0B0008400000000A2B20181ABF08001E7
:1047FC0000000000800A0181B0B0ABF000000000A6
:10480C0008B10181B0B000840000000008B1018142
:10481C00B0B000840000000008B10181B0B0008489
:10482C00000000003F260181B0ABF08000000000CA
:10483C0008B10181B0B000840000000008B1018112
:10484C00B0B000840000000008B10181B0B0008459
:10485C000000000008B10181B0B00084000000002D
:10486C0080060181B0B0ABF00000000008B10181FE
:10487C00B0B000840000000008B10181B0B0008429
:04488C000000000028
:1048900044C8FF7F0100000074C8FF7FB0B0A8804B
:1048A000B0C8FF7F01000000ACC8FF7FAB07B1803C
:1048B0003CC9FF7FA907B180C4C9FF7FA908B180A7
:1048C000C0CAFF7FB0B0A880D0CAFF7FA908B1805E
:1048D000E4CAFF7FB0AB088008CCFF7FB0B0A880EF
:1048E00024CCFF7F0100000030CCFF7FB0AB048000
:1048F00020CDFF7F88FEFF7F2ACDFF7FA908B180F2
:1049000054CDFF7F01000000B8CDFF7FAB07B18021
:104910009CCEFF7F74FEFF7FA6CEFF7FA908B180EB
:10492000D0CEFF7F0100000040D0FF7FB0B0A88054
:104930005CD0FF7F0100000048D2FF7FB0B0A880AC
:1049400070D2FF7F50FEFF7F70D2FF7F54FEFF7F4B
:1049500070D2FF7F58FEFF7F70D2FF7F5CFEFF7F2B
:1049600070D2FF7F01000000B4D2FF7F58FEFF7FAE
:10497000C0D2FF7F0100000044D4FF7FB0B0A88008
:104980005ED4FF7F01000000E0D4FF7FAB07B18061
:10499000B4D5FF7FB0B0AA800CD6FF7FA908B18044
:1049A00084D6FF7FAB07B180C8D7FF7FB0AB0E8046
:1049B00030D9FF7FB0A910809CD9FF7FAB07B180B1
:1049C00060DAFF7F0CFEFF7F68DAFF7F10FEFF7F5B
:1049D00070DAFF7FB0B0AA80F0DAFF7F0CFEFF7FB5
:1049E00000DBFF7FAB08B1809CDBFF7FB0B0AA800B
:1049F00048DCFF7FAA03B18084DDFF7F0100000057
:104A000088DFFF7FB0A9028048E0FF7FB0B0A880B8
:104A100098E0FF7FE0FDFF7F64E1FF7FA908B180A0
:104A200090E1FF7F0100000024E2FF7FD4FDFF7FC3
:104A300088E5FF7FD8FDFF7F8CE5FF7FDCFDFF7FF2
:104A400090E5FF7FE0FDFF7F94E5FF7FE4FDFF7FC2
:104A500044E9FF7F0100000040E9FF7FAA0FB28018
:104A600094E9FF7FD8FDFF7FA0E9FF7FA908B1800F
:104A7000D8E9FF7FD4FDFF7FECE9FF7F0100000054
:104A8000E8E9FF7FD0FDFF7FF0E9FF7FAA25B28034
:104A900058EAFF7F01000000C4EBFF7F0084048020
:104AA000D4EBFF7FBCFDFF7FD4EBFF7FC0FDFF7F1A
:104AB000F4EEFF7F0084048014EFFF7FBCFDFF7FD6
:104AC00018EFFF7FC0FDFF7F24EFFF7F0100000094
:104AD000006CDC0200000000000000000400001078
:104AE000040000100C0000100C0000101400001056
:104AF000140000101C0000101C0000102400001006
:104B0000240000102C0000102C00001034000010B5
:104B1000340000103C0000103C0000104400001065
:104B2000440000104C0000104C0000105400001015
:104B3000540000105C0000105C00001064000010C5
:104B4000640000106C0000106C0000107400001075
:104B5000740000107C0000107C0000108400001025
:104B6000840000108C0000108C00001094000010D5
:104B7000940000109C0000109C000010A400001085
:104B8000A4000010AC000010AC000010B400001035
:104B9000B4000010BC000010BC000010C4000010E5
:104BA000C4000010CC000010CC000010D400001095
:104BB000D4000010DC000010DC000010E400001045
:104BC000E4000010EC000010EC000010F4000010F5
:104BD000F4000010FC000010FC00001004010010A4
:104BE000040100100C0100100C0100101401001051
:104BF000140100101C0100101C0100102401001001
:104C0000240100102C0100102C01001034010010B0
:104C1000340100103C0100103C0100104401001060
:104C2000440100104C0100104C0100105401001010
:104C3000540100105C0100105C01001064010010C0
:104C4000640100106C0100106C0100107401001070
:104C5000740100107C0100107C0100108401001020
:104C6000840100108C0100108C01001094010010D0
:104C7000940100109C0100109C010010A401001080
:104C8000A4010010AC010010AC010010B401001030
:104C9000B4010010BC010010BC010010C4010010E0
:104CA000C4010010CC010010CC010010D401001090
:104CB000D4010010DC010010DC010010E401001040
:104CC000E4010010EC010010EC010010F4010010F0
:104CD000F4010010FC010010FC010010040200109F
:104CE000040200100C0200100C020010140200104C
:104CF000140200101C0200101C02001024020010FC
:104D0000240200102C0200102C02001034020010AB
:104D1000340200103C0200103C020010440200105B
:104D2000440200104C0200104C020010540200100B
:104D3000540200105C0200105C02001064020010BB
:104D4000640200106C0200106C020010740200106B
:104D5000740200107C0200107C020010840200101B
:104D6000840200108C0200108C02001094020010CB
:104D7000940200109C0200109C020010A40200107B
:104D8000A4020010AC020010AC020010B40200102B
:104D9000B4020010BC020010BC020010C4020010DB
:104DA000C4020010CC020010CC020010D40200108B
:104DB000D4020010DC020010DC020010E40200103B
:104DC000E4020010EC020010EC020010F4020010EB
:104DD000F4020010FC020010FC020010040300109A
:104DE000040300100C0300100C0300101403001047
:104DF000140300101C0300101C03001024030010F7
:104E0000240300102C0300102C03001034030010A6
:104E1000340300103C0300103C0300104403001056
:104E2000440300104C0300104C0300105403001006
:104E3000540300105C0300105C03001064030010B6
:104E4000640300106C0300106C0300107403001066
:104E5000740300107C0300107C0300108403001016
:104E6000840300108C0300108C03001094030010C6
:104E7000940300109C0300109C030010A403001076
:104E8000A4030010AC030010AC030010B403001026
:104E9000B4030010BC030010BC030010C4030010D6
:104EA000C4030010CC030010CC030010D403001086
:104EB000D4030010DC030010DC030010E403001036
:104EC000E4030010EC030010EC030010F4030010E6
:104ED000F4030010FC030010FC030010FFFFFFFFB1
:104EE000000002000000000020040010000000008C
:104EF000000000000C07001074070010DC07001011
:104F000000000000000000000000000000000000A1
:104F10000000000000000000000000000000000091
:104F200000000000444700000000000000000000F6
:104F30000000000000000000000000000000000071
:104F40000000000000000000000000000000000061
:104F50000000000000000000000000000000000051
:104F60000000000000000000000000000000000041
:104F70000000000000000000000000000000000031
:104F80000000000000000000000000000000000021
:104F90000000000000000000010000000000000010
:104FA0000E33CDAB34126DE6ECDE05000B000000D5
:104FB00000000000000000000000000000000000F1
:104FC00000000000000000000000000000000000E1
:104FD00000000000000000000000000000000000D1
:104FE00000000000000000000000000000000000C1
:040000030000110DDB
:00000001FF
