:10000000D00F001085010000B5060000C1060000F9
:1000100000000000000000000000000000000000E0
:10002000000000000000000000000000CD060000FD
:100030000000000000000000D9060000E5060000F6
:10004000F1060000F1060000F1060000F1060000D4
:10005000F1060000F1060000F1060000F1060000C4
:10006000F1060000F1060000F1060000F1060000B4
:10007000F1060000F1060000F1060000FD06000098
:100080000907000015070000210700002D070000E8
:100090003907000045070000510700005D07000018
:1000A0006907000075070000810700008D07000048
:1000B00099070000A5070000B1070000BD07000078
:1000C00000B5031C89B00C20994208D33222019359
:1000D00002916846009205A9024B9847059809B01D
:1000E00000BDC046F11FFF1F00B589B0019009484F
:1000F0000291FA213323006889000093039200F0F3
:100100001BFC05A90490044B68469847059809B064
:1001100000BDC04604000010F11FFF1F00B5031C06
:1001200089B00C2099420FD308480291FA21342259
:10013000006889000092019300F0FEFB05A903907E
:10014000034B68469847059809B000BD04000010AD
:10015000F11FFF1F10B588B01C1C382300930190BD
:1001600002916846039205A9054B984705980A280D
:1001700001D008B010BD002CFBD006992160F8E733
:10018000F11FFF1FF0B55F4656464D464446F0B49A
:1001900066486749834683B059456ED2441AA6081B
:1001A000B500A4460320634A4B1C019560453CD230
:1001B000002D3AD0731E0340101C20C8984601241D
:1001C0000B1C20C3A6422AD90027B84510D0012510
:1001D000A84508D00237B84502D010C810C33C1C4F
:1001E00020C8013420C380C8013480C3A64216D978
:1001F000071C0437B9461D1C043F3F680435A84658
:10020000043D80C547684D465F606D6847467D6028
:10021000C5680434DD6010301033A642E8D8019E72
:1002200092198919B44528D04B1C5F46FC1A03204B
:1002300020401ED0147801320C70191C9B451CD92B
:100240000133012815D0022804D0157801320D7031
:10025000191C0133107801320870191C013308E0B1
:1002600056781E7095785D70D17804329970D91CDB
:100270000433107808709B45F2D82F4A2F4CA242C5
:100280004ED2A01A850880460321531CAF00414579
:1002900029D278427841002825D16B1E0B409C461C
:1002A0000239131C01C38D4219D90026B4450DD063
:1002B0000136B44506D00136B44501D001C3311C26
:1002C00001C30131013101C38D4208D91E1C01C691
:1002D000043158607060D86010338D42F6D8D2195E
:1002E000B8451DD0531CE71A03200021384014D014
:1002F00011701A1C9C4213D9013301280DD0022819
:1003000002D011701A1C013311701A1C013304E061
:10031000197059709970DA1C043311709C42F7D827
:1003200000F0C4FA00F000FBFEE7C0460800001031
:1003300000000010600A0000080000100800001013
:1003400010B52C4A031C0020013909B2002930DB0A
:100350001C7801332402604084B200B2002845DBDF
:10036000600080B204B2002C3CDB400080B204B2DA
:10037000002C33DB400080B204B2002C2ADB4000AA
:1003800080B204B2002C21DB400080B204B2002C09
:1003900018DB400080B204B2002C0FDB400080B2BA
:1003A00004B2002C06DB0139440009B2A0B20029D6
:1003B000CEDA10BD4000504080B2C5E74400544042
:1003C000A0B2EDE744005440A0B2E4E7440054403A
:1003D000A0B2DBE744005440A0B2D2E7440054404E
:1003E000A0B2C9E744005440A0B2C0E76400544042
:1003F000A0B2B7E721100000F0B55F4656464D4663
:100400004446F0B4794D7A49AD4468228BA800F097
:100410008FFAB12398006844782707808046B0207F
:100420008200A5266A44093FB50017806D449146B5
:10043000704A2B1C13CA13C3191CAA4631CA31C1F6
:10044000146896200C60137980010B7100F0BCF9E0
:1004500001200721FFF734FE002808D0B3208000D8
:1004600085443CBC90469946A246AB46F0BD01305F
:100470000721FFF753FE0028F0D18BA8682100F078
:1004800003FA5D4D6D44281C00F0F0F90028FAD005
:100490002C786846047001270024AE97AF94AF9E75
:1004A000564B9E421EDC80269B467600281C00F0A0
:1004B000DDF900280FD0AE9B2F786946CF54AE9956
:1004C0000131AE91AE9AB2422CD0AF94281C00F00C
:1004D000CDF90028EFD1C046AF990131AF91AF9867
:1004E0005845E3DD01200721FFF7EAFD00283BD155
:1004F000434C8025206869466A00FFF7F5FD031E1E
:1005000032D18027206869467A00FFF723FE002851
:100510002AD1226848460132FF322260022100F0CF
:10052000B3F925E001200721FFF7CAFD002807D114
:10053000334F69463868321CFFF7D6FD031E3DD0A5
:100540004046022100F0A0F9AE94AD94AD9AFF2A86
:10055000BBDCAD9BAD9F6A460137AD97AD99D454D6
:10056000FF29F6DDAF94B1E74046022100F08CF997
:10057000802670012349FFF7E3FE8024FE234BAA67
:10058000DB0126021C1C20CC171C20C759685160B7
:1005900065687D60D9681033D1601032B342F1D103
:1005A000FC224BAB98500720011CFFF789FD002867
:1005B00014D050461D2100F067F94FE738686946AE
:1005C000321CFFF7C7FD0028BAD13868022101307C
:1005D000FF303860484600F057F9B5E78026FE3016
:1005E0004BA97200C001FFF77FFDE2E734FDFFFF7A
:1005F000D8090000400A0000C7020000FEFF0F00FB
:1006000000000010FC6F000030B5224C224B228805
:1006100083B09A4207D0802020494001FFF790FE26
:100620002188814207D01E4C1E4DFFF7E5FEEC608D
:10063000BFF34F8FFEE796232025980101AC00F011
:10064000C3F82570203D0095009A174DAA4206DD9B
:100650000BE0009B01330093009AAA4205DCC046E0
:10066000201C00F003F90028F3D021787A2908D063
:100670000E48006885460E480068874603B0002093
:1006800030BDFFF7B9FE074C0548E060BFF34F8F60
:10069000FEE7C046FC7F0000FFFF0000FC6F00008B
:1006A0000400FA0500ED00E0FEFF0F00001000005E
:1006B0000410000001480068874600000810000090
:1006C00001480068874600000C10000001480068DF
:1006D000874600002C100000014800688746000093
:1006E0003810000001480068874600003C100000F8
:1006F000014800688746000040100000014800687B
:10070000874600007C100000014800688746000012
:100710008010000001480068874600008410000037
:100720000148006887460000881000000148006802
:10073000874600008C1000000148006887460000D2
:1007400090100000014800688746000094100000E7
:1007500001480068874600009810000001480068C2
:10076000874600009C100000014800688746000092
:10077000A01000000148006887460000A410000097
:100780000148006887460000A81000000148006882
:1007900087460000AC100000014800688746000052
:1007A000B01000000148006887460000B410000047
:1007B0000148006887460000B81000000148006842
:1007C00087460000BC100000F8B58026071C2248B0
:1007D000224BB5038551A42019580725A943195068
:1007E0001C5801210C431C5004301A58AA431A50BB
:1007F0001C5898220C431C50194B70019C592043E3
:10080000184C985199508231E16017489E58006801
:10081000996F00F091F8311C00F08EF8391C000936
:1008200000F08AF8FF23010A1840FC3B6160206059
:10083000E360A5606369602167690A4A0F40602F21
:10084000FAD1566901210E4204D0131C1A685A6964
:100850000A42FBD1F8BDC04600E100E00040044080
:1008600000800440008000400400001000B50549ED
:1008700001234A691A4002D00A6802701A1C101C2F
:1008800000BDC0460080004010B500290BD0064ACC
:1008900040240378136053692342FCD001390029B6
:1008A00001D00130F5E710BD0080004010B51C4BB1
:1008B0008E229200995820208143995000221A627A
:1008C000C0460132C82AFBD10021C73A19645A64D4
:1008D00059645A64596C124AC807FBD523219160A8
:1008E0006B31890050588024A0435050D8680121B2
:1008F0000B4A0842FAD0032010670338516750674B
:100900005167596F01221142FBD0054B05499A6787
:100910000433D96790331A605A609A6010BDC0469C
:1009200000800440FFFF010008B5FFF76DFE08BD21
:1009300008B500F03BF808BD002931D00122D207EC
:10094000030901E0090112099942FBD9430801E0BA
:10095000490052089942FBD900E04908401A07D3E0
:100960005241FAD301461046704749084018F7D261
:100970009218FAD34018014610467047CB0F00D0AA
:100980004942021000D54042534008B5FFF7D4FF5A
:100990000CBC521000D34042002A00D549421847EF
:1009A000F446002000F001F8604770478446830752
:1009B00008D18B0706D1131F04D304C904C0043B1C
:1009C000FBD21A1D524205D0891A801A8B5C8354BF
:1009D0000132FBD16046704757656C636F6D6520CF
:1009E000746F2065586F647573696E6F2120284C91
:1009F000504331313134464E32382F313032290DA7
:100A00000A687474703A2F2F6C796E786579656412
:100A10002E686174656E61626C6F672E636F6D2FF7
:100A20000D0A65586F64757320426F6F746C6F6147
:100A30006465722053746172742E2E2E2E0D0A007E
:100A40000D0A50726F6772616D20656E642E2052C0
:100A500065626F6F74696E672E2E2E2E0000000087
:080A600000100000006CDC0234
:040000030000018573
:00000001FF
